{
  "address": "0x360343aBCbe5e34dE1e2e33f332601d17F9E4221",
  "abi": [
    {
      "inputs": [
        {
          "internalType": "address",
          "name": "stakingProxy",
          "type": "address"
        },
        {
          "internalType": "address",
          "name": "grgToken",
          "type": "address"
        },
        {
          "internalType": "address",
          "name": "grgTransferProxy",
          "type": "address"
        }
      ],
      "stateMutability": "nonpayable",
      "type": "constructor"
    },
    {
      "inputs": [
        {
          "internalType": "uint256",
          "name": "amount",
          "type": "uint256"
        }
      ],
      "name": "stake",
      "outputs": [],
      "stateMutability": "nonpayable",
      "type": "function"
    },
    {
      "inputs": [
        {
          "internalType": "uint256",
          "name": "amount",
          "type": "uint256"
        }
      ],
      "name": "undelegateStake",
      "outputs": [],
      "stateMutability": "nonpayable",
      "type": "function"
    },
    {
      "inputs": [
        {
          "internalType": "uint256",
          "name": "amount",
          "type": "uint256"
        }
      ],
      "name": "unstake",
      "outputs": [],
      "stateMutability": "nonpayable",
      "type": "function"
    },
    {
      "inputs": [],
      "name": "withdrawDelegatorRewards",
      "outputs": [],
      "stateMutability": "nonpayable",
      "type": "function"
    }
  ],
  "transactionHash": "0x0034d59c959f885389c11bebdd5a7d2b54059988f4f0807bab878d76f4ba864a",
  "args": [
    "0x6C4594aa0CBcb8315E88EFdb11675c09A7a5f444",
    "0x076C619e7ebaBe40746106B66bFBed731F2c1339",
    "0x28891F41eA506Ba7eA3Be9f2075AB0aa8b81dD29"
  ],
  "solcInputHash": "656e34d5c2c173c2d18ee1cf3ed6b924",
  "bytecode": "0x60e060405234801561001057600080fd5b5060405161095c38038061095c83398101604081905261002f91610068565b6001600160a01b0392831660805290821660a0521660c0526100ab565b80516001600160a01b038116811461006357600080fd5b919050565b60008060006060848603121561007d57600080fd5b6100868461004c565b92506100946020850161004c565b91506100a26040850161004c565b90509250925092565b60805160a05160c0516108676100f560003960006103ba0152600081816103dd015261056e01526000818160b20152818161011501528181610299015261060901526108676000f3fe608060405234801561001057600080fd5b506004361061004c5760003560e01c80632e17de78146100515780634aace83514610066578063a694fc3a14610079578063b880660b1461008c575b600080fd5b61006461005f366004610754565b610094565b005b610064610074366004610754565b610111565b610064610087366004610754565b610244565b610064610605565b6040516305c2fbcf60e31b8152600481018290526001600160a01b037f00000000000000000000000000000000000000000000000000000000000000001690632e17de7890602401600060405180830381600087803b1580156100f657600080fd5b505af115801561010a573d6000803e3d6000fd5b5050505050565b60007f0000000000000000000000000000000000000000000000000000000000000000604051637fa140c760e01b81523060048201529091506000906001600160a01b03831690637fa140c790602401602060405180830381865afa15801561017e573d6000803e3d6000fd5b505050506040513d601f19601f820116820180604052508101906101a2919061076d565b9050816001600160a01b03166358f6c7e360405180604001604052806001808111156101d0576101d0610786565b815260200184905260408051808201909152806000815260200185815250866040518463ffffffff1660e01b815260040161020d939291906107c9565b600060405180830381600087803b15801561022757600080fd5b505af115801561023b573d6000803e3d6000fd5b50505050505050565b806102955760405162461bcd60e51b815260206004820152601760248201527f5354414b455f414d4f554e545f4e554c4c5f4552524f52000000000000000000604482015260640160405180910390fd5b60007f0000000000000000000000000000000000000000000000000000000000000000604051637fa140c760e01b815230600482015290915081906000906001600160a01b03831690637fa140c790602401602060405180830381865afa158015610304573d6000803e3d6000fd5b505050506040513d601f19601f82011682018060405250810190610328919061076d565b90506000816103b357604051632f8446bd60e21b81523060048201526001600160a01b0384169063be111af4906024016020604051808303816000875af1158015610377573d6000803e3d6000fd5b505050506040513d601f19601f8201168201806040525081019061039b919061076d565b905060008190036103ae576103ae6107f2565b6103b6565b50805b60007f000000000000000000000000000000000000000000000000000000000000000090507f000000000000000000000000000000000000000000000000000000000000000060405163095ea7b360e01b81526001600160a01b0383811660048301526000196024830152919091169063095ea7b3906044016020604051808303816000875af115801561044e573d6000803e3d6000fd5b505050506040513d601f19601f820116820180604052508101906104729190610808565b5060405163534a7e1d60e11b8152600481018790526001600160a01b0385169063a694fc3a90602401600060405180830381600087803b1580156104b557600080fd5b505af11580156104c9573d6000803e3d6000fd5b50505050836001600160a01b03166358f6c7e36040518060400160405280600060018111156104fa576104fa610786565b815260200185905260408051808201909152806001815260200186815250896040518463ffffffff1660e01b8152600401610537939291906107c9565b600060405180830381600087803b15801561055157600080fd5b505af1158015610565573d6000803e3d6000fd5b505050506105907f000000000000000000000000000000000000000000000000000000000000000090565b60405163095ea7b360e01b81526001600160a01b03838116600483015260016024830152919091169063095ea7b3906044016020604051808303816000875af11580156105e1573d6000803e3d6000fd5b505050506040513d601f19601f8201168201806040525081019061023b9190610808565b60007f0000000000000000000000000000000000000000000000000000000000000000604051637fa140c760e01b81523060048201529091506000906001600160a01b03831690637fa140c790602401602060405180830381865afa158015610672573d6000803e3d6000fd5b505050506040513d601f19601f82011682018060405250810190610696919061076d565b60405160016296e4ef60e01b03198152600481018290529091506001600160a01b0383169063ff691b1190602401600060405180830381600087803b1580156106de57600080fd5b505af11580156106f2573d6000803e3d6000fd5b505060405163b510879f60e01b8152600481018490526001600160a01b038516925063b510879f9150602401600060405180830381600087803b15801561073857600080fd5b505af115801561074c573d6000803e3d6000fd5b505050505050565b60006020828403121561076657600080fd5b5035919050565b60006020828403121561077f57600080fd5b5051919050565b634e487b7160e01b600052602160045260246000fd5b8051600281106107bc57634e487b7160e01b600052602160045260246000fd5b8252602090810151910152565b60a081016107d7828661079c565b6107e4604083018561079c565b826080830152949350505050565b634e487b7160e01b600052600160045260246000fd5b60006020828403121561081a57600080fd5b8151801515811461082a57600080fd5b939250505056fea2646970667358221220e1b387fa6d1a8683e9bbba2f57b660bb6ad4201ce6a43514cd792ed6603403b164736f6c63430008110033",
  "devdoc": {
    "author": "Gabriele Rigo - <gab@rigoblock.com>",
    "kind": "dev",
    "methods": {
      "stake(uint256)": {
        "details": "Creating staking pool if doesn't exist effectively locks direct call.",
        "params": {
          "amount": "Amount of GRG to stake."
        }
      },
      "undelegateStake(uint256)": {
        "params": {
          "amount": "Number of GRG units with undelegate."
        }
      },
      "unstake(uint256)": {
        "params": {
          "amount": "Number of GRG units to unstake."
        }
      }
    },
    "title": "Self Custody adapter - A helper contract for self custody.",
    "version": 1
  },
  "userdoc": {
    "kind": "user",
    "methods": {
      "stake(uint256)": {
        "notice": "Stakes an amount of GRG to own staking pool. Creates staking pool if doesn't exist."
      },
      "undelegateStake(uint256)": {
        "notice": "Undelegates stake for the pool."
      },
      "unstake(uint256)": {
        "notice": "Unstakes staked undelegated tokens for the pool."
      },
      "withdrawDelegatorRewards()": {
        "notice": "Withdraws delegator rewards of the pool."
      }
    },
    "version": 1
  },
  "storageLayout": {
    "storage": [],
    "types": null
  }
}