{
  "address": "0xC1ad7e8ea82f2f5129428a46Eb968D08CD40cb92",
  "abi": [
    {
      "inputs": [
        {
          "internalType": "address",
          "name": "newUniswapRouter02",
          "type": "address"
        }
      ],
      "stateMutability": "nonpayable",
      "type": "constructor"
    },
    {
      "inputs": [
        {
          "internalType": "uint256",
          "name": "tokenId",
          "type": "uint256"
        }
      ],
      "name": "burn",
      "outputs": [],
      "stateMutability": "nonpayable",
      "type": "function"
    },
    {
      "inputs": [
        {
          "components": [
            {
              "internalType": "uint256",
              "name": "tokenId",
              "type": "uint256"
            },
            {
              "internalType": "address",
              "name": "recipient",
              "type": "address"
            },
            {
              "internalType": "uint128",
              "name": "amount0Max",
              "type": "uint128"
            },
            {
              "internalType": "uint128",
              "name": "amount1Max",
              "type": "uint128"
            }
          ],
          "internalType": "struct INonfungiblePositionManager.CollectParams",
          "name": "params",
          "type": "tuple"
        }
      ],
      "name": "collect",
      "outputs": [
        {
          "internalType": "uint256",
          "name": "amount0",
          "type": "uint256"
        },
        {
          "internalType": "uint256",
          "name": "amount1",
          "type": "uint256"
        }
      ],
      "stateMutability": "nonpayable",
      "type": "function"
    },
    {
      "inputs": [
        {
          "internalType": "address",
          "name": "token0",
          "type": "address"
        },
        {
          "internalType": "address",
          "name": "token1",
          "type": "address"
        },
        {
          "internalType": "uint24",
          "name": "fee",
          "type": "uint24"
        },
        {
          "internalType": "uint160",
          "name": "sqrtPriceX96",
          "type": "uint160"
        }
      ],
      "name": "createAndInitializePoolIfNecessary",
      "outputs": [
        {
          "internalType": "address",
          "name": "pool",
          "type": "address"
        }
      ],
      "stateMutability": "nonpayable",
      "type": "function"
    },
    {
      "inputs": [
        {
          "components": [
            {
              "internalType": "uint256",
              "name": "tokenId",
              "type": "uint256"
            },
            {
              "internalType": "uint128",
              "name": "liquidity",
              "type": "uint128"
            },
            {
              "internalType": "uint256",
              "name": "amount0Min",
              "type": "uint256"
            },
            {
              "internalType": "uint256",
              "name": "amount1Min",
              "type": "uint256"
            },
            {
              "internalType": "uint256",
              "name": "deadline",
              "type": "uint256"
            }
          ],
          "internalType": "struct INonfungiblePositionManager.DecreaseLiquidityParams",
          "name": "params",
          "type": "tuple"
        }
      ],
      "name": "decreaseLiquidity",
      "outputs": [
        {
          "internalType": "uint256",
          "name": "amount0",
          "type": "uint256"
        },
        {
          "internalType": "uint256",
          "name": "amount1",
          "type": "uint256"
        }
      ],
      "stateMutability": "nonpayable",
      "type": "function"
    },
    {
      "inputs": [
        {
          "components": [
            {
              "internalType": "bytes",
              "name": "path",
              "type": "bytes"
            },
            {
              "internalType": "address",
              "name": "recipient",
              "type": "address"
            },
            {
              "internalType": "uint256",
              "name": "amountIn",
              "type": "uint256"
            },
            {
              "internalType": "uint256",
              "name": "amountOutMinimum",
              "type": "uint256"
            }
          ],
          "internalType": "struct IV3SwapRouter.ExactInputParams",
          "name": "params",
          "type": "tuple"
        }
      ],
      "name": "exactInput",
      "outputs": [
        {
          "internalType": "uint256",
          "name": "amountOut",
          "type": "uint256"
        }
      ],
      "stateMutability": "nonpayable",
      "type": "function"
    },
    {
      "inputs": [
        {
          "components": [
            {
              "internalType": "address",
              "name": "tokenIn",
              "type": "address"
            },
            {
              "internalType": "address",
              "name": "tokenOut",
              "type": "address"
            },
            {
              "internalType": "uint24",
              "name": "fee",
              "type": "uint24"
            },
            {
              "internalType": "address",
              "name": "recipient",
              "type": "address"
            },
            {
              "internalType": "uint256",
              "name": "amountIn",
              "type": "uint256"
            },
            {
              "internalType": "uint256",
              "name": "amountOutMinimum",
              "type": "uint256"
            },
            {
              "internalType": "uint160",
              "name": "sqrtPriceLimitX96",
              "type": "uint160"
            }
          ],
          "internalType": "struct IV3SwapRouter.ExactInputSingleParams",
          "name": "params",
          "type": "tuple"
        }
      ],
      "name": "exactInputSingle",
      "outputs": [
        {
          "internalType": "uint256",
          "name": "amountOut",
          "type": "uint256"
        }
      ],
      "stateMutability": "nonpayable",
      "type": "function"
    },
    {
      "inputs": [
        {
          "components": [
            {
              "internalType": "bytes",
              "name": "path",
              "type": "bytes"
            },
            {
              "internalType": "address",
              "name": "recipient",
              "type": "address"
            },
            {
              "internalType": "uint256",
              "name": "amountOut",
              "type": "uint256"
            },
            {
              "internalType": "uint256",
              "name": "amountInMaximum",
              "type": "uint256"
            }
          ],
          "internalType": "struct IV3SwapRouter.ExactOutputParams",
          "name": "params",
          "type": "tuple"
        }
      ],
      "name": "exactOutput",
      "outputs": [
        {
          "internalType": "uint256",
          "name": "amountIn",
          "type": "uint256"
        }
      ],
      "stateMutability": "nonpayable",
      "type": "function"
    },
    {
      "inputs": [
        {
          "components": [
            {
              "internalType": "address",
              "name": "tokenIn",
              "type": "address"
            },
            {
              "internalType": "address",
              "name": "tokenOut",
              "type": "address"
            },
            {
              "internalType": "uint24",
              "name": "fee",
              "type": "uint24"
            },
            {
              "internalType": "address",
              "name": "recipient",
              "type": "address"
            },
            {
              "internalType": "uint256",
              "name": "amountOut",
              "type": "uint256"
            },
            {
              "internalType": "uint256",
              "name": "amountInMaximum",
              "type": "uint256"
            },
            {
              "internalType": "uint160",
              "name": "sqrtPriceLimitX96",
              "type": "uint160"
            }
          ],
          "internalType": "struct IV3SwapRouter.ExactOutputSingleParams",
          "name": "params",
          "type": "tuple"
        }
      ],
      "name": "exactOutputSingle",
      "outputs": [
        {
          "internalType": "uint256",
          "name": "amountIn",
          "type": "uint256"
        }
      ],
      "stateMutability": "nonpayable",
      "type": "function"
    },
    {
      "inputs": [
        {
          "components": [
            {
              "internalType": "uint256",
              "name": "tokenId",
              "type": "uint256"
            },
            {
              "internalType": "uint256",
              "name": "amount0Desired",
              "type": "uint256"
            },
            {
              "internalType": "uint256",
              "name": "amount1Desired",
              "type": "uint256"
            },
            {
              "internalType": "uint256",
              "name": "amount0Min",
              "type": "uint256"
            },
            {
              "internalType": "uint256",
              "name": "amount1Min",
              "type": "uint256"
            },
            {
              "internalType": "uint256",
              "name": "deadline",
              "type": "uint256"
            }
          ],
          "internalType": "struct INonfungiblePositionManager.IncreaseLiquidityParams",
          "name": "params",
          "type": "tuple"
        }
      ],
      "name": "increaseLiquidity",
      "outputs": [
        {
          "internalType": "uint128",
          "name": "liquidity",
          "type": "uint128"
        },
        {
          "internalType": "uint256",
          "name": "amount0",
          "type": "uint256"
        },
        {
          "internalType": "uint256",
          "name": "amount1",
          "type": "uint256"
        }
      ],
      "stateMutability": "nonpayable",
      "type": "function"
    },
    {
      "inputs": [
        {
          "components": [
            {
              "internalType": "address",
              "name": "token0",
              "type": "address"
            },
            {
              "internalType": "address",
              "name": "token1",
              "type": "address"
            },
            {
              "internalType": "uint24",
              "name": "fee",
              "type": "uint24"
            },
            {
              "internalType": "int24",
              "name": "tickLower",
              "type": "int24"
            },
            {
              "internalType": "int24",
              "name": "tickUpper",
              "type": "int24"
            },
            {
              "internalType": "uint256",
              "name": "amount0Desired",
              "type": "uint256"
            },
            {
              "internalType": "uint256",
              "name": "amount1Desired",
              "type": "uint256"
            },
            {
              "internalType": "uint256",
              "name": "amount0Min",
              "type": "uint256"
            },
            {
              "internalType": "uint256",
              "name": "amount1Min",
              "type": "uint256"
            },
            {
              "internalType": "address",
              "name": "recipient",
              "type": "address"
            },
            {
              "internalType": "uint256",
              "name": "deadline",
              "type": "uint256"
            }
          ],
          "internalType": "struct INonfungiblePositionManager.MintParams",
          "name": "params",
          "type": "tuple"
        }
      ],
      "name": "mint",
      "outputs": [
        {
          "internalType": "uint256",
          "name": "tokenId",
          "type": "uint256"
        },
        {
          "internalType": "uint128",
          "name": "liquidity",
          "type": "uint128"
        },
        {
          "internalType": "uint256",
          "name": "amount0",
          "type": "uint256"
        },
        {
          "internalType": "uint256",
          "name": "amount1",
          "type": "uint256"
        }
      ],
      "stateMutability": "nonpayable",
      "type": "function"
    },
    {
      "inputs": [],
      "name": "refundETH",
      "outputs": [],
      "stateMutability": "nonpayable",
      "type": "function"
    },
    {
      "inputs": [
        {
          "internalType": "uint256",
          "name": "amountIn",
          "type": "uint256"
        },
        {
          "internalType": "uint256",
          "name": "amountOutMin",
          "type": "uint256"
        },
        {
          "internalType": "address[]",
          "name": "path",
          "type": "address[]"
        },
        {
          "internalType": "address",
          "name": "to",
          "type": "address"
        }
      ],
      "name": "swapExactTokensForTokens",
      "outputs": [
        {
          "internalType": "uint256",
          "name": "amountOut",
          "type": "uint256"
        }
      ],
      "stateMutability": "nonpayable",
      "type": "function"
    },
    {
      "inputs": [
        {
          "internalType": "uint256",
          "name": "amountOut",
          "type": "uint256"
        },
        {
          "internalType": "uint256",
          "name": "amountInMax",
          "type": "uint256"
        },
        {
          "internalType": "address[]",
          "name": "path",
          "type": "address[]"
        },
        {
          "internalType": "address",
          "name": "to",
          "type": "address"
        }
      ],
      "name": "swapTokensForExactTokens",
      "outputs": [
        {
          "internalType": "uint256",
          "name": "amountIn",
          "type": "uint256"
        }
      ],
      "stateMutability": "nonpayable",
      "type": "function"
    },
    {
      "inputs": [
        {
          "internalType": "address",
          "name": "token",
          "type": "address"
        },
        {
          "internalType": "uint256",
          "name": "amountMinimum",
          "type": "uint256"
        },
        {
          "internalType": "address",
          "name": "recipient",
          "type": "address"
        }
      ],
      "name": "sweepToken",
      "outputs": [],
      "stateMutability": "nonpayable",
      "type": "function"
    },
    {
      "inputs": [
        {
          "internalType": "address",
          "name": "token",
          "type": "address"
        },
        {
          "internalType": "uint256",
          "name": "amountMinimum",
          "type": "uint256"
        }
      ],
      "name": "sweepToken",
      "outputs": [],
      "stateMutability": "nonpayable",
      "type": "function"
    },
    {
      "inputs": [
        {
          "internalType": "address",
          "name": "token",
          "type": "address"
        },
        {
          "internalType": "uint256",
          "name": "amountMinimum",
          "type": "uint256"
        },
        {
          "internalType": "uint256",
          "name": "feeBips",
          "type": "uint256"
        },
        {
          "internalType": "address",
          "name": "feeRecipient",
          "type": "address"
        }
      ],
      "name": "sweepTokenWithFee",
      "outputs": [],
      "stateMutability": "nonpayable",
      "type": "function"
    },
    {
      "inputs": [
        {
          "internalType": "address",
          "name": "token",
          "type": "address"
        },
        {
          "internalType": "uint256",
          "name": "amountMinimum",
          "type": "uint256"
        },
        {
          "internalType": "address",
          "name": "recipient",
          "type": "address"
        },
        {
          "internalType": "uint256",
          "name": "feeBips",
          "type": "uint256"
        },
        {
          "internalType": "address",
          "name": "feeRecipient",
          "type": "address"
        }
      ],
      "name": "sweepTokenWithFee",
      "outputs": [],
      "stateMutability": "nonpayable",
      "type": "function"
    },
    {
      "inputs": [],
      "name": "uniswapRouter02",
      "outputs": [
        {
          "internalType": "address",
          "name": "",
          "type": "address"
        }
      ],
      "stateMutability": "view",
      "type": "function"
    },
    {
      "inputs": [],
      "name": "uniswapv3Npm",
      "outputs": [
        {
          "internalType": "address",
          "name": "",
          "type": "address"
        }
      ],
      "stateMutability": "view",
      "type": "function"
    },
    {
      "inputs": [
        {
          "internalType": "uint256",
          "name": "amountMinimum",
          "type": "uint256"
        },
        {
          "internalType": "address",
          "name": "recipient",
          "type": "address"
        }
      ],
      "name": "unwrapWETH9",
      "outputs": [],
      "stateMutability": "nonpayable",
      "type": "function"
    },
    {
      "inputs": [
        {
          "internalType": "uint256",
          "name": "amountMinimum",
          "type": "uint256"
        }
      ],
      "name": "unwrapWETH9",
      "outputs": [],
      "stateMutability": "nonpayable",
      "type": "function"
    },
    {
      "inputs": [
        {
          "internalType": "uint256",
          "name": "amountMinimum",
          "type": "uint256"
        },
        {
          "internalType": "address",
          "name": "recipient",
          "type": "address"
        },
        {
          "internalType": "uint256",
          "name": "feeBips",
          "type": "uint256"
        },
        {
          "internalType": "address",
          "name": "feeRecipient",
          "type": "address"
        }
      ],
      "name": "unwrapWETH9WithFee",
      "outputs": [],
      "stateMutability": "nonpayable",
      "type": "function"
    },
    {
      "inputs": [
        {
          "internalType": "uint256",
          "name": "amountMinimum",
          "type": "uint256"
        },
        {
          "internalType": "uint256",
          "name": "feeBips",
          "type": "uint256"
        },
        {
          "internalType": "address",
          "name": "feeRecipient",
          "type": "address"
        }
      ],
      "name": "unwrapWETH9WithFee",
      "outputs": [],
      "stateMutability": "nonpayable",
      "type": "function"
    },
    {
      "inputs": [],
      "name": "weth",
      "outputs": [
        {
          "internalType": "address",
          "name": "",
          "type": "address"
        }
      ],
      "stateMutability": "view",
      "type": "function"
    },
    {
      "inputs": [
        {
          "internalType": "uint256",
          "name": "value",
          "type": "uint256"
        }
      ],
      "name": "wrapETH",
      "outputs": [],
      "stateMutability": "nonpayable",
      "type": "function"
    }
  ],
  "transactionHash": "0xbbf1126d087645e1c310ae5a2eaa20a20cec9e6ff7396b19ddb5d46585033851",
  "args": [
    "0x68b3465833fb72A70ecDF485E0e4C7bD8665Fc45"
  ],
  "solcInputHash": "260a482a406623a6d1eb57f718d3c1af",
  "bytecode": "0x60e06040523480156200001157600080fd5b50604051620025bb380380620025bb833981016040819052620000349162000128565b6001600160a01b038116608081905260408051631e46e62f60e21b8152905163791b98bc916004808201926020929091908290030181865afa1580156200007f573d6000803e3d6000fd5b505050506040513d601f19601f82011682018060405250810190620000a5919062000128565b6001600160a01b031660a0819052604080516312a9293f60e21b81529051634aa4a4fc916004808201926020929091908290030181865afa158015620000ef573d6000803e3d6000fd5b505050506040513d601f19601f8201168201806040525081019062000115919062000128565b6001600160a01b031660c052506200015a565b6000602082840312156200013b57600080fd5b81516001600160a01b03811681146200015357600080fd5b9392505050565b60805160a05160c0516123ac6200020f600039600081816102690152818161095201528181610f240152610f870152600081816103640152818161077001528181610899015281816109cf01528181610de20152818161107601526114730152600081816103d70152818161046c0152818161064d01528181610ba001528181610cae01528181610e8e01528181610ff9015281816112360152818161128b0152818161134b015261143f01526123ac6000f3fe608060405234801561001057600080fd5b50600436106101735760003560e01c806349404b7c116100de578063c391b77c11610097578063e0e189a011610071578063e0e189a0146103ac578063e90a182f146103bf578063fb912246146103d2578063fc6f7865146103f957600080fd5b8063c391b77c1461035f578063d4ef38de14610386578063df2ab5bb1461039957600080fd5b806349404b7c146102c457806349616997146102d75780635023b4df146102ea57806388316456146102fd5780639b2c0a3714610338578063b858183f1461034c57600080fd5b8063219f5d1711610130578063219f5d17146102195780633068c554146102515780633fc8cef31461026457806342712a671461028b57806342966c681461029e578063472b43f3146102b157600080fd5b806304e45aaf1461017857806309b813461461019e5780630c49ccbe146101b157806312210e8a146101d957806313ead562146101db5780631c58db4f14610206575b600080fd5b61018b610186366004611850565b61040c565b6040519081526020015b60405180910390f35b61018b6101ac366004611885565b6105cb565b6101c46101bf3660046118c2565b61076b565b60408051928352602083019190915201610195565b005b6101ee6101e9366004611915565b610895565b6040516001600160a01b039091168152602001610195565b6101d9610214366004611971565b61094a565b61022c6102273660046119c2565b6109c8565b604080516001600160801b039094168452602084019290925290820152606001610195565b6101d961025f366004611a4a565b610b9e565b6101ee7f000000000000000000000000000000000000000000000000000000000000000081565b61018b610299366004611a89565b610c38565b6101d96102ac366004611971565b610dc4565b61018b6102bf366004611a89565b610e42565b6101d96102d2366004611b27565b610ef3565b6101d96102e5366004611971565b610f69565b61018b6102f8366004611850565b610fb6565b61031061030b366004611b71565b611052565b604080519485526001600160801b039093166020850152918301526060820152608001610195565b6101d9610346366004611c2b565b50505050565b61018b61035a366004611885565b6111ee565b6101ee7f000000000000000000000000000000000000000000000000000000000000000081565b6101d9610394366004611c6a565b505050565b6101d96103a7366004611ca3565b611289565b6101d96103ba366004611cda565b611349565b6101d96103cd366004611d2b565b611419565b6101ee7f000000000000000000000000000000000000000000000000000000000000000081565b6101c4610407366004611d6c565b61146e565b60006104266104216040840160208501611df6565b611514565b6104456104366020840184611df6565b6001600160a01b03163b151590565b61046a5760405162461bcd60e51b815260040161046190611e13565b60405180910390fd5b7f00000000000000000000000000000000000000000000000000000000000000006104a461049b6020850185611df6565b826000196115d4565b6040805160e081019091526001600160a01b038216906304e45aaf90806104ce6020880188611df6565b6001600160a01b031681526020018660200160208101906104ef9190611df6565b6001600160a01b0316815260200161050d6060880160408901611e5d565b62ffffff168152306020820152608080880135604083015260a088013560608301520161054060e0880160c08901611df6565b6001600160a01b03168152506040518263ffffffff1660e01b81526004016105689190611e7a565b6020604051808303816000875af1158015610587573d6000803e3d6000fd5b505050506040513d601f19601f820116820180604052508101906105ab9190611ed9565b91506105c56105bd6020850185611df6565b8260016115d4565b50919050565b600080806106166105dc8580611ef2565b8080601f01602080910402602001604051908101604052809392919081815260200183838082843760009201919091525061169d92505050565b509150915061062481611514565b6001600160a01b0382163b61064b5760405162461bcd60e51b815260040161046190611e13565b7f000000000000000000000000000000000000000000000000000000000000000061067983826000196115d4565b60408051608081019091526001600160a01b038216906309b8134690806106a08980611ef2565b8080601f016020809104026020016040519081016040528093929190818152602001838380828437600092019190915250505090825250306020820152604089810135818301526060808b0135920191909152516001600160e01b031960e084901b1681526107129190600401611fbf565b6020604051808303816000875af1158015610731573d6000803e3d6000fd5b505050506040513d601f19601f820116820180604052508101906107559190611ed9565b9350610763838260016115d4565b505050919050565b6000807f00000000000000000000000000000000000000000000000000000000000000006001600160a01b0316630c49ccbe6040518060a00160405280866000013581526020018660200160208101906107c59190611fd2565b6001600160801b03168152602001866040013581526020018660600135815260200186608001358152506040518263ffffffff1660e01b81526004016108499190600060a082019050825182526001600160801b03602084015116602083015260408301516040830152606083015160608301526080830151608083015292915050565b60408051808303816000875af1158015610867573d6000803e3d6000fd5b505050506040513d601f19601f8201168201806040525081019061088b9190611fef565b9094909350915050565b60007f00000000000000000000000000000000000000000000000000000000000000006040516309f56ab160e11b81526001600160a01b038781166004830152868116602483015262ffffff86166044830152848116606483015291909116906313ead562906084016020604051808303816000875af115801561091d573d6000803e3d6000fd5b505050506040513d601f19601f82011682018060405250810190610941919061201e565b95945050505050565b80156109c5577f00000000000000000000000000000000000000000000000000000000000000006001600160a01b031663d0e30db0826040518263ffffffff1660e01b81526004016000604051808303818588803b1580156109ab57600080fd5b505af11580156109bf573d6000803e3d6000fd5b50505050505b50565b60008080807f0000000000000000000000000000000000000000000000000000000000000000855160405163133f757160e31b815291925060009182916001600160a01b038516916399fbab8891610a269160040190815260200190565b61018060405180830381865afa158015610a44573d6000803e3d6000fd5b505050506040513d601f19601f82011682018060405250810190610a68919061205c565b5050505050505050935093505050610a7f82611514565b610a8881611514565b610a9582846000196115d4565b610aa281846000196115d4565b6040805160c081018252885181526020808a0151908201908152898301518284019081526060808c01519084019081526080808d015190850190815260a0808e0151908601908152955163219f5d1760e01b8152945160048601529251602485015290516044840152516064830152516084820152905160a48201526001600160a01b0384169063219f5d179060c4016060604051808303816000875af1158015610b51573d6000803e3d6000fd5b505050506040513d601f19601f82011682018060405250810190610b75919061213d565b91975095509350610b88828460016115d4565b610b94818460016115d4565b5050509193909250565b7f0000000000000000000000000000000000000000000000000000000000000000604051630c1a315560e21b81526001600160a01b038681166004830152602482018690526044820185905283811660648301529190911690633068c55490608401600060405180830381600087803b158015610c1a57600080fd5b505af1158015610c2e573d6000803e3d6000fd5b5050505050505050565b6000610c6584846001818110610c5057610c50612174565b90506020020160208101906104219190611df6565b610c9084846000818110610c7b57610c7b612174565b90506020020160208101906104369190611df6565b610cac5760405162461bcd60e51b815260040161046190611e13565b7f0000000000000000000000000000000000000000000000000000000000000000610cf68585600081610ce157610ce1612174565b905060200201602081019061049b9190611df6565b806001600160a01b03166342712a6788888888306001600160a01b0316896001600160a01b031603610d285788610d2a565b305b6040518663ffffffff1660e01b8152600401610d4a95949392919061218a565b6020604051808303816000875af1158015610d69573d6000803e3d6000fd5b505050506040513d601f19601f82011682018060405250810190610d8d9190611ed9565b9150610dba85856000818110610da557610da5612174565b90506020020160208101906105bd9190611df6565b5095945050505050565b604051630852cd8d60e31b8152600481018290526001600160a01b037f000000000000000000000000000000000000000000000000000000000000000016906342966c68906024015b600060405180830381600087803b158015610e2757600080fd5b505af1158015610e3b573d6000803e3d6000fd5b5050505050565b6000610e5a84846001818110610c5057610c50612174565b610e7084846000818110610c7b57610c7b612174565b610e8c5760405162461bcd60e51b815260040161046190611e13565b7f0000000000000000000000000000000000000000000000000000000000000000610ec18585600081610ce157610ce1612174565b806001600160a01b031663472b43f388888888306001600160a01b0316896001600160a01b031603610d285788610d2a565b6001600160a01b0381163014610f065750305b604051632e1a7d4d60e01b8152600481018390526001600160a01b037f00000000000000000000000000000000000000000000000000000000000000001690632e1a7d4d906024015b600060405180830381600087803b1580156109ab57600080fd5b604051632e1a7d4d60e01b8152600481018290526001600160a01b037f00000000000000000000000000000000000000000000000000000000000000001690632e1a7d4d90602401610e0d565b6000610fcb6104216040840160208501611df6565b610fdb6104366020840184611df6565b610ff75760405162461bcd60e51b815260040161046190611e13565b7f000000000000000000000000000000000000000000000000000000000000000061102861049b6020850185611df6565b6040805160e081019091526001600160a01b03821690635023b4df90806104ce6020880188611df6565b6000806000806110658560000151611514565b6110728560200151611514565b84517f0000000000000000000000000000000000000000000000000000000000000000906110a390826000196115d4565b6110b48660200151826000196115d4565b806001600160a01b0316638831645660405180610160016040528089600001516001600160a01b0316815260200189602001516001600160a01b03168152602001896040015162ffffff168152602001896060015160020b8152602001896080015160020b81526020018960a0015181526020018960c0015181526020018960e0015181526020018961010001518152602001306001600160a01b031681526020018961014001518152506040518263ffffffff1660e01b815260040161117b91906121ff565b6080604051808303816000875af115801561119a573d6000803e3d6000fd5b505050506040513d601f19601f820116820180604052508101906111be91906122c3565b8951939850919650945092506111d6908260016115d4565b6111e686602001518260016115d4565b509193509193565b600080806111ff6105dc8580611ef2565b509150915061120d81611514565b6001600160a01b0382163b6112345760405162461bcd60e51b815260040161046190611e13565b7f000000000000000000000000000000000000000000000000000000000000000061126283826000196115d4565b60408051608081019091526001600160a01b0382169063b858183f90806106a08980611ef2565b7f00000000000000000000000000000000000000000000000000000000000000006001600160a01b031663df2ab5bb8484306001600160a01b0316856001600160a01b0316036112d957306112db565b305b60405160e085901b6001600160e01b03191681526001600160a01b03938416600482015260248101929092529091166044820152606401600060405180830381600087803b15801561132c57600080fd5b505af1158015611340573d6000803e3d6000fd5b50505050505050565b7f00000000000000000000000000000000000000000000000000000000000000006001600160a01b031663e0e189a08686306001600160a01b0316876001600160a01b031603611399573061139b565b305b6040516001600160e01b031960e086901b1681526001600160a01b03938416600482015260248101929092528216604482015260648101869052908416608482015260a401600060405180830381600087803b1580156113fa57600080fd5b505af115801561140e573d6000803e3d6000fd5b505050505050505050565b60405163e90a182f60e01b81526001600160a01b038381166004830152602482018390527f0000000000000000000000000000000000000000000000000000000000000000169063e90a182f90604401610f4f565b6000807f000000000000000000000000000000000000000000000000000000000000000060408051608081018252855181523060208201908152868301516001600160801b039081168385019081526060808a01518316908501908152945163fc6f786560e01b81529351600485015291516001600160a01b0390811660248501529151811660448401529251909216606482015291169063fc6f786590608401610849565b60405163559bfa4360e11b81526001600160a01b0382166004820152309063ab37f48690602401602060405180830381865afa158015611558573d6000803e3d6000fd5b505050506040513d601f19601f8201168201806040525081019061157c9190612301565b6109c55760405162461bcd60e51b8152602060048201526024808201527f41554e49535741505f544f4b454e5f4e4f545f57484954454c49535445445f45604482015263292927a960e11b6064820152608401610461565b604080516001600160a01b038481166024830152604480830185905283518084039091018152606490920183526020820180516001600160e01b031663095ea7b360e01b179052915160009286169161162c91612323565b6000604051808303816000865af19150503d8060008114611669576040519150601f19603f3d011682016040523d82523d6000602084013e61166e565b606091505b509150508051600014806116915750808060200190518101906116919190612301565b6103465761034661233f565b600080806116ab84826116d9565b92506116b8846014611793565b90506116d06116c960036014612355565b85906116d9565b91509193909250565b6000816116e7816014612355565b101561172a5760405162461bcd60e51b8152602060048201526012602482015271746f416464726573735f6f766572666c6f7760701b6044820152606401610461565b611735826014612355565b8351101561177d5760405162461bcd60e51b8152602060048201526015602482015274746f416464726573735f6f75744f66426f756e647360581b6044820152606401610461565b5081810160200151600160601b90045b92915050565b6000816117a1816003612355565b10156117e35760405162461bcd60e51b8152602060048201526011602482015270746f55696e7432345f6f766572666c6f7760781b6044820152606401610461565b6117ee826003612355565b835110156118355760405162461bcd60e51b8152602060048201526014602482015273746f55696e7432345f6f75744f66426f756e647360601b6044820152606401610461565b50016003015190565b600060e082840312156105c557600080fd5b600060e0828403121561186257600080fd5b61186c838361183e565b9392505050565b6000608082840312156105c557600080fd5b60006020828403121561189757600080fd5b813567ffffffffffffffff8111156118ae57600080fd5b6118ba84828501611873565b949350505050565b600060a082840312156105c557600080fd5b6001600160a01b03811681146109c557600080fd5b80356118f4816118d4565b919050565b62ffffff811681146109c557600080fd5b80356118f4816118f9565b6000806000806080858703121561192b57600080fd5b8435611936816118d4565b93506020850135611946816118d4565b92506040850135611956816118f9565b91506060850135611966816118d4565b939692955090935050565b60006020828403121561198357600080fd5b5035919050565b604051610160810167ffffffffffffffff811182821017156119bc57634e487b7160e01b600052604160045260246000fd5b60405290565b600060c082840312156119d457600080fd5b60405160c0810181811067ffffffffffffffff82111715611a0557634e487b7160e01b600052604160045260246000fd5b8060405250823581526020830135602082015260408301356040820152606083013560608201526080830135608082015260a083013560a08201528091505092915050565b60008060008060808587031215611a6057600080fd5b8435611a6b816118d4565b935060208501359250604085013591506060850135611966816118d4565b600080600080600060808688031215611aa157600080fd5b8535945060208601359350604086013567ffffffffffffffff80821115611ac757600080fd5b818801915088601f830112611adb57600080fd5b813581811115611aea57600080fd5b8960208260051b8501011115611aff57600080fd5b6020830195508094505050506060860135611b19816118d4565b809150509295509295909350565b60008060408385031215611b3a57600080fd5b823591506020830135611b4c816118d4565b809150509250929050565b8060020b81146109c557600080fd5b80356118f481611b57565b60006101608284031215611b8457600080fd5b611b8c61198a565b611b95836118e9565b8152611ba3602084016118e9565b6020820152611bb46040840161190a565b6040820152611bc560608401611b66565b6060820152611bd660808401611b66565b608082015260a083013560a082015260c083013560c082015260e083013560e0820152610100808401358183015250610120611c138185016118e9565b90820152610140928301359281019290925250919050565b60008060008060808587031215611c4157600080fd5b843593506020850135611c53816118d4565b9250604085013591506060850135611966816118d4565b600080600060608486031215611c7f57600080fd5b83359250602084013591506040840135611c98816118d4565b809150509250925092565b600080600060608486031215611cb857600080fd5b8335611cc3816118d4565b9250602084013591506040840135611c98816118d4565b600080600080600060a08688031215611cf257600080fd5b8535611cfd816118d4565b9450602086013593506040860135611d14816118d4565b9250606086013591506080860135611b19816118d4565b60008060408385031215611d3e57600080fd5b8235611d49816118d4565b946020939093013593505050565b6001600160801b03811681146109c557600080fd5b600060808284031215611d7e57600080fd5b6040516080810181811067ffffffffffffffff82111715611daf57634e487b7160e01b600052604160045260246000fd5b604052823581526020830135611dc4816118d4565b60208201526040830135611dd781611d57565b60408201526060830135611dea81611d57565b60608201529392505050565b600060208284031215611e0857600080fd5b813561186c816118d4565b6020808252602a908201527f41554e49535741505f415050524f56455f5441524745545f4e4f545f434f4e546040820152692920a1aa2fa2a92927a960b11b606082015260800190565b600060208284031215611e6f57600080fd5b813561186c816118f9565b60e0810161178d828480516001600160a01b03908116835260208083015182169084015260408083015162ffffff16908401526060808301518216908401526080808301519084015260a0828101519084015260c09182015116910152565b600060208284031215611eeb57600080fd5b5051919050565b6000808335601e19843603018112611f0957600080fd5b83018035915067ffffffffffffffff821115611f2457600080fd5b602001915036819003821315611f3957600080fd5b9250929050565b60005b83811015611f5b578181015183820152602001611f43565b50506000910152565b60008151608084528051806080860152611f858160a0870160208501611f40565b6020848101516001600160a01b03169086015260408085015190860152606093840151938501939093525050601f01601f19160160a00190565b60208152600061186c6020830184611f64565b600060208284031215611fe457600080fd5b813561186c81611d57565b6000806040838503121561200257600080fd5b505080516020909101519092909150565b80516118f4816118d4565b60006020828403121561203057600080fd5b815161186c816118d4565b80516118f4816118f9565b80516118f481611b57565b80516118f481611d57565b6000806000806000806000806000806000806101808d8f03121561207f57600080fd5b8c516bffffffffffffffffffffffff8116811461209b57600080fd5b9b506120a960208e01612013565b9a506120b760408e01612013565b99506120c560608e01612013565b98506120d360808e0161203b565b97506120e160a08e01612046565b96506120ef60c08e01612046565b95506120fd60e08e01612051565b94506101008d015193506101208d0151925061211c6101408e01612051565b915061212b6101608e01612051565b90509295989b509295989b509295989b565b60008060006060848603121561215257600080fd5b835161215d81611d57565b602085015160409095015190969495509392505050565b634e487b7160e01b600052603260045260246000fd5b85815260208082018690526080604083018190528201849052600090859060a08401835b878110156121dc5783356121c1816118d4565b6001600160a01b0316825292820192908201906001016121ae565b506001600160a01b03959095166060949094019390935250919695505050505050565b81516001600160a01b031681526101608101602083015161222b60208401826001600160a01b03169052565b506040830151612242604084018262ffffff169052565b506060830151612257606084018260020b9052565b50608083015161226c608084018260020b9052565b5060a083015160a083015260c083015160c083015260e083015160e0830152610100808401518184015250610120808401516122b2828501826001600160a01b03169052565b505061014092830151919092015290565b600080600080608085870312156122d957600080fd5b8451935060208501516122eb81611d57565b6040860151606090960151949790965092505050565b60006020828403121561231357600080fd5b8151801515811461186c57600080fd5b60008251612335818460208701611f40565b9190910192915050565b634e487b7160e01b600052600160045260246000fd5b8082018082111561178d57634e487b7160e01b600052601160045260246000fdfea2646970667358221220c2f901482f680292cc0833ea27a1b16ceeed7326e43af4be17fd6d14443886c964736f6c63430008110033",
  "devdoc": {
    "author": "Gabriele Rigo - <gab@rigoblock.com>",
    "kind": "dev",
    "methods": {
      "burn(uint256)": {
        "params": {
          "tokenId": "The ID of the token that is being burned."
        }
      },
      "collect((uint256,address,uint128,uint128))": {
        "params": {
          "params": "tokenId The ID of the NFT for which tokens are being collected, recipient The account that should receive the tokens, amount0Max The maximum amount of token0 to collect, amount1Max The maximum amount of token1 to collect."
        },
        "returns": {
          "amount0": "The amount of fees collected in token0.",
          "amount1": "The amount of fees collected in token1."
        }
      },
      "createAndInitializePoolIfNecessary(address,address,uint24,uint160)": {
        "details": "This method can be bundled with others via IMulticall for the first action (e.g. mint) performed against a pool.",
        "params": {
          "fee": "The fee amount of the v3 pool for the specified token pair.",
          "sqrtPriceX96": "The initial square root price of the pool as a Q64.96 value.",
          "token0": "The contract address of token0 of the pool.",
          "token1": "The contract address of token1 of the pool."
        },
        "returns": {
          "pool": "Returns the pool address based on the pair of tokens and fee, will return the newly created pool address if necessary."
        }
      },
      "decreaseLiquidity((uint256,uint128,uint256,uint256,uint256))": {
        "params": {
          "params": "tokenId The ID of the token for which liquidity is being decreased, amount The amount by which liquidity will be decreased, amount0Min The minimum amount of token0 that should be accounted for the burned liquidity, amount1Min The minimum amount of token1 that should be accounted for the burned liquidity, deadline The time by which the transaction must be included to effect the change."
        },
        "returns": {
          "amount0": "The amount of token0 accounted to the position's tokens owed.",
          "amount1": "The amount of token1 accounted to the position's tokens owed."
        }
      },
      "exactInput((bytes,address,uint256,uint256))": {
        "params": {
          "params": "The parameters necessary for the multi-hop swap, encoded as `ExactInputParams` in memory."
        },
        "returns": {
          "amountOut": "The amount of the received token."
        }
      },
      "exactInputSingle((address,address,uint24,address,uint256,uint256,uint160))": {
        "params": {
          "params": "The parameters necessary for the swap, encoded as `ExactInputSingleParams` in memory."
        },
        "returns": {
          "amountOut": "The amount of the received token."
        }
      },
      "exactOutput((bytes,address,uint256,uint256))": {
        "params": {
          "params": "The parameters necessary for the multi-hop swap, encoded as `ExactOutputParams` in memory."
        },
        "returns": {
          "amountIn": "The amount of the input token."
        }
      },
      "exactOutputSingle((address,address,uint24,address,uint256,uint256,uint160))": {
        "params": {
          "params": "The parameters necessary for the swap, encoded as `ExactOutputSingleParams` in memory."
        },
        "returns": {
          "amountIn": "The amount of the input token."
        }
      },
      "increaseLiquidity((uint256,uint256,uint256,uint256,uint256,uint256))": {
        "params": {
          "params": "tokenId The ID of the token for which liquidity is being increased, amount0Desired The desired amount of token0 to be spent, amount1Desired The desired amount of token1 to be spent, amount0Min The minimum amount of token0 to spend, which serves as a slippage check, amount1Min The minimum amount of token1 to spend, which serves as a slippage check, deadline The time by which the transaction must be included to effect the change."
        },
        "returns": {
          "amount0": "The amount of token0 to acheive resulting liquidity.",
          "amount1": "The amount of token1 to acheive resulting liquidity.",
          "liquidity": "The new liquidity amount as a result of the increase."
        }
      },
      "mint((address,address,uint24,int24,int24,uint256,uint256,uint256,uint256,address,uint256))": {
        "details": "Call this when the pool does exist and is initialized. Note that if the pool is created but not initialized a method does not exist, i.e. the pool is assumed to be initialized.",
        "params": {
          "params": "The params necessary to mint a position, encoded as `MintParams` in calldata."
        },
        "returns": {
          "amount0": "The amount of token0.",
          "amount1": "The amount of token1.",
          "liquidity": "The amount of liquidity for this position.",
          "tokenId": "The ID of the token that represents the minted position."
        }
      },
      "refundETH()": {
        "details": "Declared virtual as we never send ETH to Uniswap router contract."
      },
      "swapExactTokensForTokens(uint256,uint256,address[],address)": {
        "details": "Setting `amountIn` to 0 will cause the contract to look up its own balance, and swap the entire amount, enabling contracts to send tokens before calling this function.",
        "params": {
          "amountIn": "The amount of token to swap.",
          "amountOutMin": "The minimum amount of output that must be received.",
          "path": "The ordered list of tokens to swap through.",
          "to": "The recipient address."
        },
        "returns": {
          "amountOut": "The amount of the received token."
        }
      },
      "swapTokensForExactTokens(uint256,uint256,address[],address)": {
        "params": {
          "amountInMax": "The maximum amount of input that the caller will pay.",
          "amountOut": "The amount of token to swap for.",
          "path": "The ordered list of tokens to swap through.",
          "to": "The recipient address."
        },
        "returns": {
          "amountIn": "The amount of token to pay."
        }
      },
      "sweepToken(address,uint256)": {
        "details": "The amountMinimum parameter prevents malicious contracts from stealing the token from users.",
        "params": {
          "amountMinimum": "The minimum amount of token required for a transfer.",
          "token": "The contract address of the token which will be transferred to `recipient`."
        }
      },
      "sweepToken(address,uint256,address)": {
        "details": "The amountMinimum parameter prevents malicious contracts from stealing the token from users.",
        "params": {
          "amountMinimum": "The minimum amount of token required for a transfer.",
          "recipient": "The destination address of the token.",
          "token": "The contract address of the token which will be transferred to `recipient`."
        }
      },
      "sweepTokenWithFee(address,uint256,address,uint256,address)": {
        "details": "The amountMinimum parameter prevents malicious contracts from stealing the token from users.",
        "params": {
          "amountMinimum": "The minimum amount of token required for a transfer.",
          "feeBips": "The amount of fee in basis points.",
          "feeRecipient": "The destination address of the token.",
          "recipient": "The destination address of the token.",
          "token": "The contract address of the token which will be transferred to `recipient`."
        }
      },
      "sweepTokenWithFee(address,uint256,uint256,address)": {
        "details": "The amountMinimum parameter prevents malicious contracts from stealing the token from users.",
        "params": {
          "amountMinimum": "The minimum amount of token required for a transfer.",
          "feeBips": "The amount of fee in basis points.",
          "feeRecipient": "The destination address of the token.",
          "token": "The contract address of the token which will be transferred to `recipient`."
        }
      },
      "unwrapWETH9(uint256)": {
        "details": "The amountMinimum parameter prevents malicious contracts from stealing WETH9 from users.",
        "params": {
          "amountMinimum": "The minimum amount of WETH9 to unwrap."
        }
      },
      "unwrapWETH9(uint256,address)": {
        "params": {
          "amountMinimum": "The minimum amount of WETH9 to unwrap.",
          "recipient": "The address to keep same uniswap npm selector."
        }
      },
      "unwrapWETH9WithFee(uint256,address,uint256,address)": {
        "details": "The amountMinimum parameter prevents malicious contracts from stealing WETH9 from users.",
        "params": {
          "amountMinimum": "The minimum amount of token required for a transfer.",
          "feeBips": "The amount of fee in basis points.",
          "feeRecipient": "The destination address of the token.",
          "recipient": "The destination address of the token."
        }
      },
      "unwrapWETH9WithFee(uint256,uint256,address)": {
        "details": "The amountMinimum parameter prevents malicious contracts from stealing WETH9 from users.",
        "params": {
          "amountMinimum": "The minimum amount of token required for a transfer.",
          "feeBips": "The amount of fee in basis points.",
          "feeRecipient": "The destination address of the token."
        }
      },
      "wrapETH(uint256)": {
        "details": "Client must wrap if input is native currency.",
        "params": {
          "value": "The ETH amount to be wrapped."
        }
      }
    },
    "stateVariables": {
      "uniswapRouter02": {
        "return": "Address of the uniswap router.",
        "returns": {
          "_0": "Address of the uniswap router."
        }
      },
      "uniswapv3Npm": {
        "return": "Address of the Uniswap NPM contract.",
        "returns": {
          "_0": "Address of the Uniswap NPM contract."
        }
      },
      "weth": {
        "return": "Address of the Weth contract.",
        "returns": {
          "_0": "Address of the Weth contract."
        }
      }
    },
    "title": "AUniswap - Allows interactions with the Uniswap contracts.",
    "version": 1
  },
  "userdoc": {
    "kind": "user",
    "methods": {
      "burn(uint256)": {
        "notice": "Burns a token ID, which deletes it from the NFT contract. The token must have 0 liquidity and all tokens. must be collected first."
      },
      "collect((uint256,address,uint128,uint128))": {
        "notice": "Collects up to a maximum amount of fees owed to a specific position to the recipient."
      },
      "createAndInitializePoolIfNecessary(address,address,uint24,uint160)": {
        "notice": "Creates a new pool if it does not exist, then initializes if not initialized"
      },
      "decreaseLiquidity((uint256,uint128,uint256,uint256,uint256))": {
        "notice": "Decreases the amount of liquidity in a position and accounts it to the position."
      },
      "exactInput((bytes,address,uint256,uint256))": {
        "notice": "Swaps `amountIn` of one token for as much as possible of another along the specified path."
      },
      "exactInputSingle((address,address,uint24,address,uint256,uint256,uint160))": {
        "notice": "Swaps `amountIn` of one token for as much as possible of another token."
      },
      "exactOutput((bytes,address,uint256,uint256))": {
        "notice": "Swaps as little as possible of one token for `amountOut` of another along the specified path (reversed)."
      },
      "exactOutputSingle((address,address,uint24,address,uint256,uint256,uint160))": {
        "notice": "Swaps as little as possible of one token for `amountOut` of another token."
      },
      "increaseLiquidity((uint256,uint256,uint256,uint256,uint256,uint256))": {
        "notice": "Increases the amount of liquidity in a position, with tokens paid by the `msg.sender`."
      },
      "mint((address,address,uint24,int24,int24,uint256,uint256,uint256,uint256,address,uint256))": {
        "notice": "Creates a new position wrapped in a NFT."
      },
      "refundETH()": {
        "notice": "Allows sending pool transactions exactly as Uniswap original transactions."
      },
      "swapExactTokensForTokens(uint256,uint256,address[],address)": {
        "notice": "Swaps `amountIn` of one token for as much as possible of another token."
      },
      "swapTokensForExactTokens(uint256,uint256,address[],address)": {
        "notice": "Swaps as little as possible of one token for an exact amount of another token."
      },
      "sweepToken(address,uint256)": {
        "notice": "Transfers the full amount of a token held by this contract to recipient."
      },
      "sweepToken(address,uint256,address)": {
        "notice": "Transfers the full amount of a token held by this contract to recipient."
      },
      "sweepTokenWithFee(address,uint256,address,uint256,address)": {
        "notice": "Transfers the full amount of a token held by this contract to recipient, with a percentage between 0 (exclusive) and 1 (inclusive) going to feeRecipient."
      },
      "sweepTokenWithFee(address,uint256,uint256,address)": {
        "notice": "Transfers the full amount of a token held by this contract to recipient, with a percentage between 0 (exclusive) and 1 (inclusive) going to feeRecipient."
      },
      "uniswapRouter02()": {
        "notice": "Returns the address of the Uniswap swap router contract."
      },
      "uniswapv3Npm()": {
        "notice": "Returns the address of the Uniswap NPM contract."
      },
      "unwrapWETH9(uint256)": {
        "notice": "Unwraps the contract's WETH9 balance and sends it to recipient as ETH."
      },
      "unwrapWETH9(uint256,address)": {
        "notice": "Unwraps ETH from WETH9."
      },
      "unwrapWETH9WithFee(uint256,address,uint256,address)": {
        "notice": "Unwraps the contract's WETH9 balance and sends it to recipient as ETH, with a percentage between 0 (exclusive), and 1 (inclusive) going to feeRecipient."
      },
      "unwrapWETH9WithFee(uint256,uint256,address)": {
        "notice": "Unwraps the contract's WETH9 balance and sends it to recipient as ETH, with a percentage between 0 (exclusive), and 1 (inclusive) going to feeRecipient."
      },
      "weth()": {
        "notice": "Returns the address of the Weth contract."
      },
      "wrapETH(uint256)": {
        "notice": "Wraps ETH."
      }
    },
    "version": 1
  },
  "storageLayout": {
    "storage": [],
    "types": null
  }
}