{
  "address": "0xB43baD2638696F8bC82247B92bD56B8DF37d89aB",
  "abi": [
    {
      "inputs": [
        {
          "internalType": "address",
          "name": "newAuthority",
          "type": "address"
        }
      ],
      "stateMutability": "nonpayable",
      "type": "constructor"
    },
    {
      "anonymous": false,
      "inputs": [
        {
          "indexed": true,
          "internalType": "address",
          "name": "token",
          "type": "address"
        },
        {
          "indexed": false,
          "internalType": "bool",
          "name": "isWhitelisted",
          "type": "bool"
        }
      ],
      "name": "Whitelisted",
      "type": "event"
    },
    {
      "inputs": [
        {
          "internalType": "address[]",
          "name": "tokens",
          "type": "address[]"
        },
        {
          "internalType": "bool[]",
          "name": "whitelisted",
          "type": "bool[]"
        }
      ],
      "name": "batchUpdateTokens",
      "outputs": [],
      "stateMutability": "nonpayable",
      "type": "function"
    },
    {
      "inputs": [],
      "name": "getAuthority",
      "outputs": [
        {
          "internalType": "address",
          "name": "",
          "type": "address"
        }
      ],
      "stateMutability": "view",
      "type": "function"
    },
    {
      "inputs": [
        {
          "internalType": "address",
          "name": "token",
          "type": "address"
        }
      ],
      "name": "isWhitelistedToken",
      "outputs": [
        {
          "internalType": "bool",
          "name": "",
          "type": "bool"
        }
      ],
      "stateMutability": "view",
      "type": "function"
    },
    {
      "inputs": [
        {
          "internalType": "address",
          "name": "token",
          "type": "address"
        }
      ],
      "name": "removeToken",
      "outputs": [],
      "stateMutability": "nonpayable",
      "type": "function"
    },
    {
      "inputs": [
        {
          "internalType": "address",
          "name": "token",
          "type": "address"
        }
      ],
      "name": "whitelistToken",
      "outputs": [],
      "stateMutability": "nonpayable",
      "type": "function"
    }
  ],
  "args": [
    "0xe35129A1E0BdB913CF6Fd8332E9d3533b5F41472"
  ],
  "solcInputHash": "b558e216ac68bfdc765602d7590789b5",
  "bytecode": "0x60a060405234801561001057600080fd5b5060405161085138038061085183398101604081905261002f91610099565b61005a60017f03de6a299bc35b64db5b38a8b5dbbc4bab6e4b5a493067f0fbe40d83350a61106100c9565b7f03de6a299bc35b64db5b38a8b5dbbc4bab6e4b5a493067f0fbe40d83350a610f14610088576100886100f0565b6001600160a01b0316608052610106565b6000602082840312156100ab57600080fd5b81516001600160a01b03811681146100c257600080fd5b9392505050565b818103818111156100ea57634e487b7160e01b600052601160045260246000fd5b92915050565b634e487b7160e01b600052600160045260246000fd5b60805161072a6101276000396000818160f2015261040b015261072a6000f3fe608060405234801561001057600080fd5b50600436106100575760003560e01c80635fa7b5841461005c5780636247f6f2146100715780636ae9e44914610084578063ab37f48614610097578063e2b178a0146100e5575b600080fd5b61006f61006a3660046104f2565b61011c565b005b61006f61007f3660046104f2565b610210565b61006f610092366004610559565b610368565b6100d06100a53660046104f2565b6001600160a01b031660009081526000805160206106d5833981519152602052604090205460ff1690565b60405190151581526020015b60405180910390f35b6040516001600160a01b037f00000000000000000000000000000000000000000000000000000000000000001681526020016100dc565b610124610409565b6001600160a01b03811660009081526000805160206106d5833981519152602052604090205460ff166101ad5760405162461bcd60e51b815260206004820152602660248201527f4557484954454c4953545f544f4b454e5f414c52454144595f52454d4f5645446044820152652fa2a92927a960d11b60648201526084015b60405180910390fd5b6001600160a01b03811660008181526000805160206106d583398151915260209081526040808320805460ff19169055519182527fa54714518c5d275fdcd3d2a461e4858e4e8cb04fb93cd0bca9d6d34115f2644091015b60405180910390a250565b610218610409565b6001600160a01b0381163b61027b5760405162461bcd60e51b815260206004820152602360248201527f4557484954454c4953545f494e5055545f4e4f545f434f4e54524143545f45526044820152622927a960e91b60648201526084016101a4565b6001600160a01b03811660009081526000805160206106d5833981519152602052604090205460ff16156103045760405162461bcd60e51b815260206004820152602a60248201527f4557484954454c4953545f544f4b454e5f414c52454144595f57484954454c4960448201526929aa22a22fa2a92927a960b11b60648201526084016101a4565b6001600160a01b03811660008181526000805160206106d58339815191526020908152604091829020805460ff1916600190811790915591519182527fa54714518c5d275fdcd3d2a461e4858e4e8cb04fb93cd0bca9d6d34115f264409101610205565b60005b82811015610403578181815181106103855761038561067a565b6020026020010151151560011515146103c7576103c28484838181106103ad576103ad61067a565b905060200201602081019061006a91906104f2565b6103f1565b6103f18484838181106103dc576103dc61067a565b905060200201602081019061007f91906104f2565b806103fb81610690565b91505061036b565b50505050565b7f0000000000000000000000000000000000000000000000000000000000000000604051637d0c269f60e01b81523360048201526001600160a01b039190911690637d0c269f90602401602060405180830381865afa158015610470573d6000803e3d6000fd5b505050506040513d601f19601f8201168201806040525081019061049491906106b7565b6104f05760405162461bcd60e51b815260206004820152602760248201527f4557484954454c4953545f43414c4c45525f4e4f545f57484954454c49535445604482015266292fa2a92927a960c91b60648201526084016101a4565b565b60006020828403121561050457600080fd5b81356001600160a01b038116811461051b57600080fd5b9392505050565b634e487b7160e01b600052604160045260246000fd5b801515811461054657600080fd5b50565b803561055481610538565b919050565b60008060006040848603121561056e57600080fd5b833567ffffffffffffffff8082111561058657600080fd5b818601915086601f83011261059a57600080fd5b8135818111156105a957600080fd5b602088818360051b86010111156105bf57600080fd5b8084019650819550808801359350828411156105da57600080fd5b838801935088601f8501126105ee57600080fd5b833591508282111561060257610602610522565b8160051b604051601f19603f8301168101818110868211171561062757610627610522565b60405292835281830193508481018201928a84111561064557600080fd5b948201945b8386101561066a5761065b86610549565b8552948201949382019361064a565b8096505050505050509250925092565b634e487b7160e01b600052603260045260246000fd5b6000600182016106b057634e487b7160e01b600052601160045260246000fd5b5060010190565b6000602082840312156106c957600080fd5b815161051b8161053856fe03de6a299bc35b64db5b38a8b5dbbc4bab6e4b5a493067f0fbe40d83350a610fa264697066735822122088a8e68fd47d6df0e29aedfc507762ab4aa451622b365f0d4a4f23694a38c93e64736f6c63430008110033",
  "devdoc": {
    "author": "Gabriele Rigo - <gab@rigoblock.com>",
    "kind": "dev",
    "methods": {
      "batchUpdateTokens(address[],bool[])": {
        "params": {
          "tokens": "Address array to tokens.",
          "whitelisted": "Bollean array the token is to be whitelisted or removed."
        }
      },
      "getAuthority()": {
        "returns": {
          "_0": "Address of the authority contract."
        }
      },
      "isWhitelistedToken(address)": {
        "params": {
          "token": "Address of the target token."
        },
        "returns": {
          "_0": "Boolean the token is whitelisted."
        }
      },
      "removeToken(address)": {
        "params": {
          "token": "Address of the target token."
        }
      },
      "whitelistToken(address)": {
        "params": {
          "token": "Address of the target token."
        }
      }
    },
    "title": "EWhitelist - Allows whitelisting of tokens.",
    "version": 1
  },
  "userdoc": {
    "events": {
      "Whitelisted(address,bool)": {
        "notice": "Emitted when a token is whitelisted or removed."
      }
    },
    "kind": "user",
    "methods": {
      "batchUpdateTokens(address[],bool[])": {
        "notice": "Allows a whitelister to whitelist/remove a list of tokens."
      },
      "getAuthority()": {
        "notice": "Returns the address of the authority contract."
      },
      "isWhitelistedToken(address)": {
        "notice": "Returns whether a token has been whitelisted."
      },
      "removeToken(address)": {
        "notice": "Allows a whitelister to remove a token."
      },
      "whitelistToken(address)": {
        "notice": "Allows a whitelister to whitelist a token."
      }
    },
    "notice": "This contract has its own storage, which could potentially clash with pool storage if the allocated slot were already used by the implementation. Warning: careful with upgrades as pool only accesses isWhitelistedToken view method. Other methods are locked and should never be approved by governance.",
    "version": 1
  },
  "storageLayout": {
    "storage": [],
    "types": null
  }
}