{
  "address": "0x1950676fe511d665C35B2E3748B837045FcD638b",
  "abi": [
    {
      "inputs": [
        {
          "internalType": "address",
          "name": "newRigoToken",
          "type": "address"
        },
        {
          "internalType": "address",
          "name": "newStakingProxy",
          "type": "address"
        }
      ],
      "stateMutability": "nonpayable",
      "type": "constructor"
    },
    {
      "inputs": [],
      "name": "epochEnded",
      "outputs": [
        {
          "internalType": "bool",
          "name": "",
          "type": "bool"
        }
      ],
      "stateMutability": "view",
      "type": "function"
    },
    {
      "inputs": [],
      "name": "epochLength",
      "outputs": [
        {
          "internalType": "uint48",
          "name": "",
          "type": "uint48"
        }
      ],
      "stateMutability": "view",
      "type": "function"
    },
    {
      "inputs": [],
      "name": "getEpochInflation",
      "outputs": [
        {
          "internalType": "uint256",
          "name": "",
          "type": "uint256"
        }
      ],
      "stateMutability": "view",
      "type": "function"
    },
    {
      "inputs": [],
      "name": "mintInflation",
      "outputs": [
        {
          "internalType": "uint256",
          "name": "mintedInflation",
          "type": "uint256"
        }
      ],
      "stateMutability": "nonpayable",
      "type": "function"
    },
    {
      "inputs": [],
      "name": "rigoToken",
      "outputs": [
        {
          "internalType": "address",
          "name": "",
          "type": "address"
        }
      ],
      "stateMutability": "view",
      "type": "function"
    },
    {
      "inputs": [],
      "name": "slot",
      "outputs": [
        {
          "internalType": "uint32",
          "name": "",
          "type": "uint32"
        }
      ],
      "stateMutability": "view",
      "type": "function"
    },
    {
      "inputs": [],
      "name": "stakingProxy",
      "outputs": [
        {
          "internalType": "address",
          "name": "",
          "type": "address"
        }
      ],
      "stateMutability": "view",
      "type": "function"
    },
    {
      "inputs": [],
      "name": "timeUntilNextClaim",
      "outputs": [
        {
          "internalType": "uint256",
          "name": "",
          "type": "uint256"
        }
      ],
      "stateMutability": "view",
      "type": "function"
    }
  ],
  "transactionHash": "0xf3560f63d16b2b7965db2018e70f4e9328c5eebefd7163bd55d2746907610f62",
  "args": [
    "0x076C619e7ebaBe40746106B66bFBed731F2c1339",
    "0x6C4594aa0CBcb8315E88EFdb11675c09A7a5f444"
  ],
  "solcInputHash": "656e34d5c2c173c2d18ee1cf3ed6b924",
  "bytecode": "0x60c060405234801561001057600080fd5b5060405161083838038061083883398101604081905261002f91610072565b6001600160a01b039182166080521660a052600080546001600160501b03191690556100a5565b80516001600160a01b038116811461006d57600080fd5b919050565b6000806040838503121561008557600080fd5b61008e83610056565b915061009c60208401610056565b90509250929050565b60805160a05161074c6100ec6000396000818160eb0152818161024001528181610422015261057f015260008181610171015281816103f001526104ad015261074c6000f3fe608060405234801561001057600080fd5b50600436106100885760003560e01c80636dd739441161005b5780636dd739441461014e578063c551a2f914610164578063d6c1aca71461016c578063e9a0bae71461019357600080fd5b8063175db3c41461008d5780631a88bc66146100b757806322f80d11146100e657806357d775f814610125575b600080fd5b600054600160501b900465ffffffffffff1642101560405190151581526020015b60405180910390f35b6000546100d1906601000000000000900463ffffffff1681565b60405163ffffffff90911681526020016100ae565b61010d7f000000000000000000000000000000000000000000000000000000000000000081565b6040516001600160a01b0390911681526020016100ae565b6000546101379065ffffffffffff1681565b60405165ffffffffffff90911681526020016100ae565b61015661019b565b6040519081526020016100ae565b6101566101cc565b61010d7f000000000000000000000000000000000000000000000000000000000000000081565b6101566104a8565b60008054600160501b900465ffffffffffff164281116101bc5760006101c6565b6101c64282610604565b91505090565b60006101d6610574565b600054600160501b900465ffffffffffff1642101561023c5760405162461bcd60e51b815260206004820152601960248201527f494e464c4154494f4e5f45504f43485f454e445f4552524f520000000000000060448201526064015b60405180910390fd5b60007f00000000000000000000000000000000000000000000000000000000000000006001600160a01b0316635e615a6b6040518163ffffffff1660e01b815260040160a060405180830381865afa15801561029c573d6000803e3d6000fd5b505050506040513d601f19601f820116820180604052508101906102c09190610636565b505050509050806102d860005465ffffffffffff1690565b14610359576206978081101580156102f357506276a7008111155b61033f5760405162461bcd60e51b815260206004820152601c60248201527f494e464c4154494f4e5f54494d455f414e4f4d414c595f4552524f52000000006044820152606401610233565b6000805465ffffffffffff191665ffffffffffff83161790555b60006103636104a8565b905061037660005465ffffffffffff1690565b610380904261068d565b6000805465ffffffffffff92909216600160501b0265ffffffffffff60501b1990921691909117808255600191906006906103cd90849063ffffffff6601000000000000909104166106a0565b92506101000a81548163ffffffff021916908363ffffffff1602179055506104127f000000000000000000000000000000000000000000000000000000000000000090565b6001600160a01b03166379c650687f00000000000000000000000000000000000000000000000000000000000000006040516001600160e01b031960e084901b1681526001600160a01b03909116600482015260248101849052604401600060405180830381600087803b15801561048957600080fd5b505af115801561049d573d6000803e3d6000fd5b509294505050505090565b6000807f00000000000000000000000000000000000000000000000000000000000000006001600160a01b03166318160ddd6040518163ffffffff1660e01b8152600401602060405180830381865afa158015610509573d6000803e3d6000fd5b505050506040513d601f19601f8201168201806040525081019061052d91906106c4565b90506301e13380620f42408261054a60005465ffffffffffff1690565b61055690614e206106dd565b61056091906106dd565b61056a91906106f4565b6101c691906106f4565b336001600160a01b037f000000000000000000000000000000000000000000000000000000000000000016146105ec5760405162461bcd60e51b815260206004820152601e60248201527f43414c4c45525f4e4f545f5354414b494e475f50524f58595f4552524f5200006044820152606401610233565b565b634e487b7160e01b600052601160045260246000fd5b81810381811115610617576106176105ee565b92915050565b805163ffffffff8116811461063157600080fd5b919050565b600080600080600060a0868803121561064e57600080fd5b8551945061065e6020870161061d565b9350604086015192506106736060870161061d565b91506106816080870161061d565b90509295509295909350565b80820180821115610617576106176105ee565b63ffffffff8181168382160190808211156106bd576106bd6105ee565b5092915050565b6000602082840312156106d657600080fd5b5051919050565b8082028115828204841417610617576106176105ee565b60008261071157634e487b7160e01b600052601260045260246000fd5b50049056fea26469706673582212209b017f375e20a8e847af6200b585decdb94015a9720e4aac321c02ed3dc8ac9064736f6c63430008110033",
  "devdoc": {
    "author": "Gabriele Rigo - <gab@rigoblock.com>",
    "kind": "dev",
    "methods": {
      "epochEnded()": {
        "returns": {
          "_0": "Bool the epoch has ended."
        }
      },
      "getEpochInflation()": {
        "returns": {
          "_0": "Value of units of GRG minted in an epoch."
        }
      },
      "mintInflation()": {
        "returns": {
          "mintedInflation": "Number of allocated tokens."
        }
      },
      "timeUntilNextClaim()": {
        "returns": {
          "_0": "Number in seconds."
        }
      }
    },
    "stateVariables": {
      "epochLength": {
        "return": "Number of seconds.",
        "returns": {
          "_0": "Number of seconds."
        }
      },
      "rigoToken": {
        "return": "Address of the Rigo token contract.",
        "returns": {
          "_0": "Address of the Rigo token contract."
        }
      },
      "slot": {
        "details": "Increases by one every new epoch.",
        "return": "Number of latest epoch slot.",
        "returns": {
          "_0": "Number of latest epoch slot."
        }
      },
      "stakingProxy": {
        "return": "Address of the proxy contract.",
        "returns": {
          "_0": "Address of the proxy contract."
        }
      }
    },
    "title": "Inflation - Allows ProofOfPerformance to mint tokens.",
    "version": 1
  },
  "userdoc": {
    "kind": "user",
    "methods": {
      "epochEnded()": {
        "notice": "Returns whether an epoch has ended."
      },
      "epochLength()": {
        "notice": "Returns the epoch length in seconds."
      },
      "getEpochInflation()": {
        "notice": "Returns the epoch inflation."
      },
      "mintInflation()": {
        "notice": "Allows staking proxy to mint rewards."
      },
      "rigoToken()": {
        "notice": "Returns the address of the GRG token."
      },
      "slot()": {
        "notice": "Returns epoch slot."
      },
      "stakingProxy()": {
        "notice": "Returns the address of the GRG staking proxy."
      },
      "timeUntilNextClaim()": {
        "notice": "Returns how long until next claim."
      }
    },
    "version": 1
  },
  "storageLayout": {
    "storage": [
      {
        "astId": 7127,
        "contract": "contracts/rigoToken/inflation/Inflation.sol:Inflation",
        "label": "epochLength",
        "offset": 0,
        "slot": "0",
        "type": "t_uint48"
      },
      {
        "astId": 7131,
        "contract": "contracts/rigoToken/inflation/Inflation.sol:Inflation",
        "label": "slot",
        "offset": 6,
        "slot": "0",
        "type": "t_uint32"
      },
      {
        "astId": 7145,
        "contract": "contracts/rigoToken/inflation/Inflation.sol:Inflation",
        "label": "_epochEndTime",
        "offset": 10,
        "slot": "0",
        "type": "t_uint48"
      }
    ],
    "types": {
      "t_uint32": {
        "encoding": "inplace",
        "label": "uint32",
        "numberOfBytes": "4"
      },
      "t_uint48": {
        "encoding": "inplace",
        "label": "uint48",
        "numberOfBytes": "6"
      }
    }
  }
}