{
  "address": "0x9CE56818c01bCF9bbCa533d2db4b19e85e53a000",
  "abi": [
    {
      "inputs": [
        {
          "internalType": "address",
          "name": "stakingProxy",
          "type": "address"
        }
      ],
      "stateMutability": "nonpayable",
      "type": "constructor"
    },
    {
      "inputs": [
        {
          "internalType": "address",
          "name": "targetPool",
          "type": "address"
        }
      ],
      "name": "creditPopRewardToStakingProxy",
      "outputs": [],
      "stateMutability": "nonpayable",
      "type": "function"
    },
    {
      "inputs": [
        {
          "internalType": "address",
          "name": "targetPool",
          "type": "address"
        }
      ],
      "name": "proofOfPerformance",
      "outputs": [
        {
          "internalType": "uint256",
          "name": "",
          "type": "uint256"
        }
      ],
      "stateMutability": "view",
      "type": "function"
    }
  ],
  "transactionHash": "0x2935361b5a26be7855b8a29dbe75499efeae703d5c88612823499042fcce3acc",
  "args": [
    "0x6C4594aa0CBcb8315E88EFdb11675c09A7a5f444"
  ],
  "solcInputHash": "656e34d5c2c173c2d18ee1cf3ed6b924",
  "bytecode": "0x60a060405234801561001057600080fd5b5060405161045738038061045783398101604081905261002f91610040565b6001600160a01b0316608052610070565b60006020828403121561005257600080fd5b81516001600160a01b038116811461006957600080fd5b9392505050565b6080516103c661009160003960008181608f015261012a01526103c66000f3fe608060405234801561001057600080fd5b50600436106100365760003560e01c8063182105231461003b578063d1c7e2fe14610060575b600080fd5b61004e610049366004610283565b610075565b60405190815260200160405180910390f35b61007361006e366004610283565b61011b565b005b6040516344a6958b60e01b81526000906001600160a01b037f000000000000000000000000000000000000000000000000000000000000000016906344a6958b906100c79085906001906004016102b3565b606060405180830381865afa1580156100e4573d6000803e3d6000fd5b505050506040513d601f19601f82011682018060405250810190610108919061030a565b602001516001600160601b031692915050565b6040516344a6958b60e01b81527f0000000000000000000000000000000000000000000000000000000000000000906000906001600160a01b038316906344a6958b9061016f9086906001906004016102b3565b606060405180830381865afa15801561018c573d6000803e3d6000fd5b505050506040513d601f19601f820116820180604052508101906101b0919061030a565b602001516001600160601b031690508061021c5760405162461bcd60e51b8152602060048201526024808201527f504f505f5354414b494e475f504f4f4c5f42414c414e4345535f4e554c4c5f45604482015263292927a960e11b606482015260840160405180910390fd5b604051637660947960e11b81526001600160a01b0384811660048301526024820183905283169063ecc128f290604401600060405180830381600087803b15801561026657600080fd5b505af115801561027a573d6000803e3d6000fd5b50505050505050565b60006020828403121561029557600080fd5b81356001600160a01b03811681146102ac57600080fd5b9392505050565b6001600160a01b038316815260408101600283106102e157634e487b7160e01b600052602160045260246000fd5b8260208301529392505050565b80516001600160601b038116811461030557600080fd5b919050565b60006060828403121561031c57600080fd5b6040516060810167ffffffffffffffff828210818311171561034e57634e487b7160e01b600052604160045260246000fd5b8160405284519150808216821461036457600080fd5b508152610373602084016102ee565b6020820152610384604084016102ee565b6040820152939250505056fea2646970667358221220a030ad663587e4572c3f62a866e60ece849f212d9c6a3fc3ea62a7e3877237e264736f6c63430008110033",
  "devdoc": {
    "author": "Gabriele Rigo - <gab@rigoblock.com>",
    "kind": "dev",
    "methods": {
      "creditPopRewardToStakingProxy(address)": {
        "details": "Credits the pop reward to the Staking Proxy contract.",
        "params": {
          "targetPool": "Address of the pool."
        }
      },
      "proofOfPerformance(address)": {
        "details": "Returns the proof of performance reward for a pool.",
        "params": {
          "targetPool": "Address of the pool."
        },
        "returns": {
          "_0": "Value of the pop reward in Rigo tokens."
        }
      }
    },
    "title": "Proof of Performance - Controls parameters of inflation.",
    "version": 1
  },
  "userdoc": {
    "kind": "user",
    "methods": {},
    "version": 1
  },
  "storageLayout": {
    "storage": [],
    "types": null
  }
}