{
  "address": "0x6C4594aa0CBcb8315E88EFdb11675c09A7a5f444",
  "abi": [
    {
      "inputs": [
        {
          "internalType": "address",
          "name": "stakingImplementation",
          "type": "address"
        },
        {
          "internalType": "address",
          "name": "newOwner",
          "type": "address"
        }
      ],
      "stateMutability": "nonpayable",
      "type": "constructor"
    },
    {
      "anonymous": false,
      "inputs": [
        {
          "indexed": true,
          "internalType": "address",
          "name": "target",
          "type": "address"
        },
        {
          "indexed": true,
          "internalType": "address",
          "name": "caller",
          "type": "address"
        }
      ],
      "name": "AuthorizedAddressAdded",
      "type": "event"
    },
    {
      "anonymous": false,
      "inputs": [
        {
          "indexed": true,
          "internalType": "address",
          "name": "target",
          "type": "address"
        },
        {
          "indexed": true,
          "internalType": "address",
          "name": "caller",
          "type": "address"
        }
      ],
      "name": "AuthorizedAddressRemoved",
      "type": "event"
    },
    {
      "anonymous": false,
      "inputs": [
        {
          "indexed": true,
          "internalType": "address",
          "name": "previousOwner",
          "type": "address"
        },
        {
          "indexed": true,
          "internalType": "address",
          "name": "newOwner",
          "type": "address"
        }
      ],
      "name": "OwnershipTransferred",
      "type": "event"
    },
    {
      "anonymous": false,
      "inputs": [
        {
          "indexed": false,
          "internalType": "address",
          "name": "newStakingContractAddress",
          "type": "address"
        }
      ],
      "name": "StakingContractAttachedToProxy",
      "type": "event"
    },
    {
      "anonymous": false,
      "inputs": [],
      "name": "StakingContractDetachedFromProxy",
      "type": "event"
    },
    {
      "stateMutability": "nonpayable",
      "type": "fallback"
    },
    {
      "inputs": [
        {
          "internalType": "address",
          "name": "target",
          "type": "address"
        }
      ],
      "name": "addAuthorizedAddress",
      "outputs": [],
      "stateMutability": "nonpayable",
      "type": "function"
    },
    {
      "inputs": [
        {
          "internalType": "uint256",
          "name": "",
          "type": "uint256"
        }
      ],
      "name": "aggregatedStatsByEpoch",
      "outputs": [
        {
          "internalType": "uint256",
          "name": "rewardsAvailable",
          "type": "uint256"
        },
        {
          "internalType": "uint256",
          "name": "numPoolsToFinalize",
          "type": "uint256"
        },
        {
          "internalType": "uint256",
          "name": "totalFeesCollected",
          "type": "uint256"
        },
        {
          "internalType": "uint256",
          "name": "totalWeightedStake",
          "type": "uint256"
        },
        {
          "internalType": "uint256",
          "name": "totalRewardsFinalized",
          "type": "uint256"
        }
      ],
      "stateMutability": "view",
      "type": "function"
    },
    {
      "inputs": [],
      "name": "assertValidStorageParams",
      "outputs": [],
      "stateMutability": "view",
      "type": "function"
    },
    {
      "inputs": [
        {
          "internalType": "address",
          "name": "stakingImplementation",
          "type": "address"
        }
      ],
      "name": "attachStakingContract",
      "outputs": [],
      "stateMutability": "nonpayable",
      "type": "function"
    },
    {
      "inputs": [
        {
          "internalType": "uint256",
          "name": "",
          "type": "uint256"
        }
      ],
      "name": "authorities",
      "outputs": [
        {
          "internalType": "address",
          "name": "",
          "type": "address"
        }
      ],
      "stateMutability": "view",
      "type": "function"
    },
    {
      "inputs": [
        {
          "internalType": "address",
          "name": "",
          "type": "address"
        }
      ],
      "name": "authorized",
      "outputs": [
        {
          "internalType": "bool",
          "name": "",
          "type": "bool"
        }
      ],
      "stateMutability": "view",
      "type": "function"
    },
    {
      "inputs": [
        {
          "internalType": "bytes[]",
          "name": "data",
          "type": "bytes[]"
        }
      ],
      "name": "batchExecute",
      "outputs": [
        {
          "internalType": "bytes[]",
          "name": "batchReturnData",
          "type": "bytes[]"
        }
      ],
      "stateMutability": "nonpayable",
      "type": "function"
    },
    {
      "inputs": [],
      "name": "cobbDouglasAlphaDenominator",
      "outputs": [
        {
          "internalType": "uint32",
          "name": "",
          "type": "uint32"
        }
      ],
      "stateMutability": "view",
      "type": "function"
    },
    {
      "inputs": [],
      "name": "cobbDouglasAlphaNumerator",
      "outputs": [
        {
          "internalType": "uint32",
          "name": "",
          "type": "uint32"
        }
      ],
      "stateMutability": "view",
      "type": "function"
    },
    {
      "inputs": [],
      "name": "currentEpoch",
      "outputs": [
        {
          "internalType": "uint256",
          "name": "",
          "type": "uint256"
        }
      ],
      "stateMutability": "view",
      "type": "function"
    },
    {
      "inputs": [],
      "name": "currentEpochStartTimeInSeconds",
      "outputs": [
        {
          "internalType": "uint256",
          "name": "",
          "type": "uint256"
        }
      ],
      "stateMutability": "view",
      "type": "function"
    },
    {
      "inputs": [],
      "name": "detachStakingContract",
      "outputs": [],
      "stateMutability": "nonpayable",
      "type": "function"
    },
    {
      "inputs": [],
      "name": "epochDurationInSeconds",
      "outputs": [
        {
          "internalType": "uint256",
          "name": "",
          "type": "uint256"
        }
      ],
      "stateMutability": "view",
      "type": "function"
    },
    {
      "inputs": [],
      "name": "getAuthorizedAddresses",
      "outputs": [
        {
          "internalType": "address[]",
          "name": "",
          "type": "address[]"
        }
      ],
      "stateMutability": "view",
      "type": "function"
    },
    {
      "inputs": [],
      "name": "grgReservedForPoolRewards",
      "outputs": [
        {
          "internalType": "uint256",
          "name": "",
          "type": "uint256"
        }
      ],
      "stateMutability": "view",
      "type": "function"
    },
    {
      "inputs": [],
      "name": "minimumPoolStake",
      "outputs": [
        {
          "internalType": "uint256",
          "name": "",
          "type": "uint256"
        }
      ],
      "stateMutability": "view",
      "type": "function"
    },
    {
      "inputs": [],
      "name": "owner",
      "outputs": [
        {
          "internalType": "address",
          "name": "",
          "type": "address"
        }
      ],
      "stateMutability": "view",
      "type": "function"
    },
    {
      "inputs": [
        {
          "internalType": "address",
          "name": "",
          "type": "address"
        }
      ],
      "name": "poolIdByRbPoolAccount",
      "outputs": [
        {
          "internalType": "bytes32",
          "name": "",
          "type": "bytes32"
        }
      ],
      "stateMutability": "view",
      "type": "function"
    },
    {
      "inputs": [
        {
          "internalType": "bytes32",
          "name": "",
          "type": "bytes32"
        },
        {
          "internalType": "uint256",
          "name": "",
          "type": "uint256"
        }
      ],
      "name": "poolStatsByEpoch",
      "outputs": [
        {
          "internalType": "uint256",
          "name": "feesCollected",
          "type": "uint256"
        },
        {
          "internalType": "uint256",
          "name": "weightedStake",
          "type": "uint256"
        },
        {
          "internalType": "uint256",
          "name": "membersStake",
          "type": "uint256"
        }
      ],
      "stateMutability": "view",
      "type": "function"
    },
    {
      "inputs": [
        {
          "internalType": "address",
          "name": "target",
          "type": "address"
        }
      ],
      "name": "removeAuthorizedAddress",
      "outputs": [],
      "stateMutability": "nonpayable",
      "type": "function"
    },
    {
      "inputs": [
        {
          "internalType": "address",
          "name": "target",
          "type": "address"
        },
        {
          "internalType": "uint256",
          "name": "index",
          "type": "uint256"
        }
      ],
      "name": "removeAuthorizedAddressAtIndex",
      "outputs": [],
      "stateMutability": "nonpayable",
      "type": "function"
    },
    {
      "inputs": [],
      "name": "rewardDelegatedStakeWeight",
      "outputs": [
        {
          "internalType": "uint32",
          "name": "",
          "type": "uint32"
        }
      ],
      "stateMutability": "view",
      "type": "function"
    },
    {
      "inputs": [
        {
          "internalType": "bytes32",
          "name": "",
          "type": "bytes32"
        }
      ],
      "name": "rewardsByPoolId",
      "outputs": [
        {
          "internalType": "uint256",
          "name": "",
          "type": "uint256"
        }
      ],
      "stateMutability": "view",
      "type": "function"
    },
    {
      "inputs": [],
      "name": "stakingContract",
      "outputs": [
        {
          "internalType": "address",
          "name": "",
          "type": "address"
        }
      ],
      "stateMutability": "view",
      "type": "function"
    },
    {
      "inputs": [
        {
          "internalType": "address",
          "name": "newOwner",
          "type": "address"
        }
      ],
      "name": "transferOwnership",
      "outputs": [],
      "stateMutability": "nonpayable",
      "type": "function"
    },
    {
      "inputs": [
        {
          "internalType": "address",
          "name": "",
          "type": "address"
        }
      ],
      "name": "validPops",
      "outputs": [
        {
          "internalType": "bool",
          "name": "",
          "type": "bool"
        }
      ],
      "stateMutability": "view",
      "type": "function"
    }
  ],
  "transactionHash": "0xf8b3830e98cbc73e02d9b57ca3dde21b9a13e206751310b9e28bdd23feca3685",
  "args": [
    "0x25ACe36b92C163194a812819CE960aF2d25AC81A",
    "0x080f08076e8EAdC66006C3CbFEd28a34918A1fA6"
  ],
  "solcInputHash": "656e34d5c2c173c2d18ee1cf3ed6b924",
  "bytecode": "0x60806040523480156200001157600080fd5b5060405162001bfd38038062001bfd833981016040819052620000349162000760565b600080546001600160a01b0319166001600160a01b0383161790556200005a336200007a565b6200006582620001dd565b62000072336000620002dc565b50506200081d565b6001600160a01b038116620000d65760405162461bcd60e51b815260206004820152601f60248201527f415554484f52495a41424c455f4e554c4c5f414444524553535f4552524f520060448201526064015b60405180910390fd5b6001600160a01b03811660009081526001602052604090205460ff16156200014f5760405162461bcd60e51b815260206004820152602560248201527f415554484f52495a41424c455f414c52454144595f415554484f52495a45445f60448201526422a92927a960d91b6064820152608401620000cd565b6001600160a01b0381166000818152600160208190526040808320805460ff19168317905560028054928301815583527f405787fa12a823e0f2b7631cc41b3ba8828b3321ca811111fa75cd3aa3bb5ace90910180546001600160a01b03191684179055513392917f3147867c59d17e8fa9d522465651d44aae0a9e38f902f3475b97e58072f0ed4c91a350565b600380546001600160a01b0319166001600160a01b0383169081179091556040519081527f048368388f801041f7690185c4e28b6f3505c740c47be8ac104b55df666bfc849060200160405180910390a160035460408051600481526024810182526020810180516001600160e01b03166370e39c9560e11b179052905160009283926001600160a01b039091169162000278919062000798565b600060405180830381855af49150503d8060008114620002b5576040519150601f19603f3d011682016040523d82523d6000602084013e620002ba565b606091505b509150915081620002cd57805160208201fd5b620002d76200055f565b505050565b6001600160a01b03821660009081526001602052604090205460ff16620003585760405162461bcd60e51b815260206004820152602960248201527f415554484f52495a41424c455f414444524553535f4e4f545f415554484f52496044820152682d22a22fa2a92927a960b91b6064820152608401620000cd565b6002548110620003ba5760405162461bcd60e51b815260206004820152602660248201527f415554484f52495a41424c455f494e4445585f4f55545f4f465f424f554e44536044820152652fa2a92927a960d11b6064820152608401620000cd565b816001600160a01b031660028281548110620003da57620003da620007c9565b6000918252602090912001546001600160a01b0316146200044a5760405162461bcd60e51b815260206004820152602360248201527f415554484f52495a41424c455f414444524553535f4d49534d415443485f45526044820152622927a960e91b6064820152608401620000cd565b6001600160a01b0382166000908152600160208190526040909120805460ff191690556002805490916200047e91620007df565b81548110620004915762000491620007c9565b600091825260209091200154600280546001600160a01b039092169183908110620004c057620004c0620007c9565b9060005260206000200160006101000a8154816001600160a01b0302191690836001600160a01b03160217905550600280548062000502576200050262000807565b600082815260208120820160001990810180546001600160a01b031916905590910190915560405133916001600160a01b038516917f1f32c1b084e2de0713b8fb16bd46bb9df710a3dbeae2f3ca93af46e016dcc6b09190a35050565b6010546206978081108015906200057957506276a7008111155b620005da5760405162461bcd60e51b815260206004820152602a60248201527f5354414b494e475f50524f58595f494e56414c49445f45504f43485f445552416044820152692a24a7a72fa2a92927a960b11b6064820152608401620000cd565b60135463ffffffff640100000000820481169116811080159062000603575063ffffffff811615155b620006685760405162461bcd60e51b815260206004820152602e60248201527f5354414b494e475f50524f58595f494e56414c49445f434f42425f444f55474c60448201526d20a9afa0a6282420afa2a92927a960911b6064820152608401620000cd565b601154620f424063ffffffff9091161115620006d85760405162461bcd60e51b815260206004820152602860248201527f5354414b494e475f50524f58595f494e56414c49445f5354414b455f57454947604482015267242a2fa2a92927a960c11b6064820152608401620000cd565b600260125410156200073f5760405162461bcd60e51b815260206004820152602960248201527f5354414b494e475f50524f58595f494e56414c49445f4d494e494d554d5f535460448201526820a5a2afa2a92927a960b91b6064820152608401620000cd565b5050565b80516001600160a01b03811681146200075b57600080fd5b919050565b600080604083850312156200077457600080fd5b6200077f8362000743565b91506200078f6020840162000743565b90509250929050565b6000825160005b81811015620007bb57602081860181015185830152016200079f565b506000920191825250919050565b634e487b7160e01b600052603260045260246000fd5b818103818111156200080157634e487b7160e01b600052601160045260246000fd5b92915050565b634e487b7160e01b600052603160045260246000fd5b6113d0806200082d6000396000f3fe608060405234801561001057600080fd5b506004361061018e5760003560e01c8063856a65eb116100de578063c6f3a42711610097578063e0ee036e11610071578063e0ee036e146104ee578063e8eeb3f8146104fe578063ee99205c14610516578063f2fde38b146105295761018e565b8063c6f3a427146104c8578063d14dc231146104d0578063d39de6e9146104d95761018e565b8063856a65eb146104365780638da5cb5b146104565780639ad2674414610469578063a26171e21461047c578063b918161114610485578063c18c9141146104a85761018e565b8063587da0231161014b578063707129391161012557806370712939146103d557806376671808146103e85780637fa140c7146103f157806381666796146104115761018e565b8063587da023146103a257806363403801146103b957806366615d56146103c25761018e565b80632a94c2791461026a57806337b006a6146102c457806338229d93146102cc57806342f1181e14610331578063494503d414610344578063540c2d531461036f575b6003546001600160a01b0316806101ec5760405162461bcd60e51b815260206004820152601a60248201527f5354414b494e475f414444524553535f4e554c4c5f4552524f5200000000000060448201526064015b60405180910390fd5b600080826001600160a01b031660003660405161020a929190611099565b600060405180830381855af49150503d8060008114610245576040519150601f19603f3d011682016040523d82523d6000602084013e61024a565b606091505b5091509150816000811461026057815182602001f35b815182602001fd5b005b6102a46102783660046110a9565b601460209081526000928352604080842090915290825290208054600182015460029092015490919083565b604080519384526020840192909252908201526060015b60405180910390f35b61026861053c565b6103096102da3660046110cb565b601560205260009081526040902080546001820154600283015460038401546004909401549293919290919085565b604080519586526020860194909452928401919091526060830152608082015260a0016102bb565b61026861033f366004611100565b61057f565b6103576103523660046110cb565b610593565b6040516001600160a01b0390911681526020016102bb565b61039261037d366004611100565b600f6020526000908152604090205460ff1681565b60405190151581526020016102bb565b6103ab600c5481565b6040519081526020016102bb565b6103ab60105481565b6102686103d0366004611100565b6105bd565b6102686103e3366004611100565b6105ce565b6103ab600b5481565b6103ab6103ff366004611100565b60086020526000908152604090205481565b6013546104219063ffffffff1681565b60405163ffffffff90911681526020016102bb565b610449610444366004611122565b61069a565b6040516102bb91906111bb565b600054610357906001600160a01b031681565b610268610477366004611235565b61081f565b6103ab60125481565b610392610493366004611100565b60016020526000908152604090205460ff1681565b6103ab6104b63660046110cb565b600a6020526000908152604090205481565b610268610831565b6103ab60165481565b6104e1610a07565b6040516102bb919061125f565b6011546104219063ffffffff1681565b60135461042190640100000000900463ffffffff1681565b600354610357906001600160a01b031681565b610268610537366004611100565b610a69565b610544610b12565b600380546001600160a01b03191690556040517f6caedcb22a5c22c8ebd0caf751fec1228a6e006e6ee37169321e02d31ecc818390600090a1565b610587610b84565b61059081610bd7565b50565b600281815481106105a357600080fd5b6000918252602090912001546001600160a01b0316905081565b6105c5610b12565b61059081610d32565b6105d6610b84565b6001600160a01b03811660009081526001602052604090205460ff166106365760405162461bcd60e51b815260206004820152601560248201527415105491d15517d393d517d055551213d492569151605a1b60448201526064016101e3565b60005b60025481101561068457816001600160a01b031660028281548110610660576106606112ac565b6000918252602090912001546001600160a01b031603610688576106848282610e2a565b5050565b80610692816112d8565b915050610639565b6060600081838067ffffffffffffffff8111156106b9576106b96112f1565b6040519080825280602002602001820160405280156106ec57816020015b60608152602001906001900390816106d75790505b506003549094506001600160a01b0316806107495760405162461bcd60e51b815260206004820152601a60248201527f5354414b494e475f414444524553535f4e554c4c5f4552524f5200000000000060448201526064016101e3565b60005b82811461081357816001600160a01b031688888381811061076f5761076f6112ac565b90506020028101906107819190611307565b60405161078f929190611099565b600060405180830381855af49150503d80600081146107ca576040519150601f19603f3d011682016040523d82523d6000602084013e6107cf565b606091505b509095509350846107e257835184602001fd5b838682815181106107f5576107f56112ac565b6020026020010181905250808061080b906112d8565b91505061074c565b50505050505b92915050565b610827610b84565b6106848282610e2a565b60105462069780811080159061084a57506276a7008111155b6108a95760405162461bcd60e51b815260206004820152602a60248201527f5354414b494e475f50524f58595f494e56414c49445f45504f43485f445552416044820152692a24a7a72fa2a92927a960b11b60648201526084016101e3565b60135463ffffffff64010000000082048116911681108015906108d1575063ffffffff811615155b6109345760405162461bcd60e51b815260206004820152602e60248201527f5354414b494e475f50524f58595f494e56414c49445f434f42425f444f55474c60448201526d20a9afa0a6282420afa2a92927a960911b60648201526084016101e3565b601154620f424063ffffffff90911611156109a25760405162461bcd60e51b815260206004820152602860248201527f5354414b494e475f50524f58595f494e56414c49445f5354414b455f57454947604482015267242a2fa2a92927a960c11b60648201526084016101e3565b600260125410156106845760405162461bcd60e51b815260206004820152602960248201527f5354414b494e475f50524f58595f494e56414c49445f4d494e494d554d5f535460448201526820a5a2afa2a92927a960b91b60648201526084016101e3565b60606002805480602002602001604051908101604052809291908181526020018280548015610a5f57602002820191906000526020600020905b81546001600160a01b03168152600190910190602001808311610a41575b5050505050905090565b610a71610b84565b6001600160a01b038116610ac75760405162461bcd60e51b815260206004820152601860248201527f494e5055545f414444524553535f4e554c4c5f4552524f52000000000000000060448201526064016101e3565b600080546001600160a01b0319166001600160a01b0383169081178255604051909133917f8be0079c531659141344cd1fd0a4f28419497f9722a3daafe3b4186f6b6457e09190a350565b3360009081526001602052604090205460ff16610b825760405162461bcd60e51b815260206004820152602860248201527f415554484f52495a41424c455f53454e4445525f4e4f545f415554484f52495a60448201526722a22fa2a92927a960c11b60648201526084016101e3565b565b6000546001600160a01b03163314610b825760405162461bcd60e51b815260206004820152601660248201527521a0a62622a92fa727aa2fa7aba722a92fa2a92927a960511b60448201526064016101e3565b6001600160a01b038116610c2d5760405162461bcd60e51b815260206004820152601f60248201527f415554484f52495a41424c455f4e554c4c5f414444524553535f4552524f520060448201526064016101e3565b6001600160a01b03811660009081526001602052604090205460ff1615610ca45760405162461bcd60e51b815260206004820152602560248201527f415554484f52495a41424c455f414c52454144595f415554484f52495a45445f60448201526422a92927a960d91b60648201526084016101e3565b6001600160a01b0381166000818152600160208190526040808320805460ff19168317905560028054928301815583527f405787fa12a823e0f2b7631cc41b3ba8828b3321ca811111fa75cd3aa3bb5ace90910180546001600160a01b03191684179055513392917f3147867c59d17e8fa9d522465651d44aae0a9e38f902f3475b97e58072f0ed4c91a350565b600380546001600160a01b0319166001600160a01b0383169081179091556040519081527f048368388f801041f7690185c4e28b6f3505c740c47be8ac104b55df666bfc849060200160405180910390a160035460408051600481526024810182526020810180516001600160e01b03166370e39c9560e11b179052905160009283926001600160a01b0390911691610dcb9190611355565b600060405180830381855af49150503d8060008114610e06576040519150601f19603f3d011682016040523d82523d6000602084013e610e0b565b606091505b509150915081610e1d57805160208201fd5b610e25610831565b505050565b6001600160a01b03821660009081526001602052604090205460ff16610ea45760405162461bcd60e51b815260206004820152602960248201527f415554484f52495a41424c455f414444524553535f4e4f545f415554484f52496044820152682d22a22fa2a92927a960b91b60648201526084016101e3565b6002548110610f045760405162461bcd60e51b815260206004820152602660248201527f415554484f52495a41424c455f494e4445585f4f55545f4f465f424f554e44536044820152652fa2a92927a960d11b60648201526084016101e3565b816001600160a01b031660028281548110610f2157610f216112ac565b6000918252602090912001546001600160a01b031614610f8f5760405162461bcd60e51b815260206004820152602360248201527f415554484f52495a41424c455f414444524553535f4d49534d415443485f45526044820152622927a960e91b60648201526084016101e3565b6001600160a01b0382166000908152600160208190526040909120805460ff19169055600280549091610fc191611371565b81548110610fd157610fd16112ac565b600091825260209091200154600280546001600160a01b039092169183908110610ffd57610ffd6112ac565b9060005260206000200160006101000a8154816001600160a01b0302191690836001600160a01b03160217905550600280548061103c5761103c611384565b600082815260208120820160001990810180546001600160a01b031916905590910190915560405133916001600160a01b038516917f1f32c1b084e2de0713b8fb16bd46bb9df710a3dbeae2f3ca93af46e016dcc6b09190a35050565b8183823760009101908152919050565b600080604083850312156110bc57600080fd5b50508035926020909101359150565b6000602082840312156110dd57600080fd5b5035919050565b80356001600160a01b03811681146110fb57600080fd5b919050565b60006020828403121561111257600080fd5b61111b826110e4565b9392505050565b6000806020838503121561113557600080fd5b823567ffffffffffffffff8082111561114d57600080fd5b818501915085601f83011261116157600080fd5b81358181111561117057600080fd5b8660208260051b850101111561118557600080fd5b60209290920196919550909350505050565b60005b838110156111b257818101518382015260200161119a565b50506000910152565b6000602080830181845280855180835260408601915060408160051b870101925083870160005b8281101561122857878503603f1901845281518051808752611209818989018a8501611197565b601f01601f1916959095018601945092850192908501906001016111e2565b5092979650505050505050565b6000806040838503121561124857600080fd5b611251836110e4565b946020939093013593505050565b6020808252825182820181905260009190848201906040850190845b818110156112a05783516001600160a01b03168352928401929184019160010161127b565b50909695505050505050565b634e487b7160e01b600052603260045260246000fd5b634e487b7160e01b600052601160045260246000fd5b6000600182016112ea576112ea6112c2565b5060010190565b634e487b7160e01b600052604160045260246000fd5b6000808335601e1984360301811261131e57600080fd5b83018035915067ffffffffffffffff82111561133957600080fd5b60200191503681900382131561134e57600080fd5b9250929050565b60008251611367818460208701611197565b9190910192915050565b81810381811115610819576108196112c2565b634e487b7160e01b600052603160045260246000fdfea26469706673582212200b9feb2e82bdb6b7b78f13eee4bda9c07a6f9f0b6996987aea8025b2303d330a64736f6c63430008110033",
  "devdoc": {
    "kind": "dev",
    "methods": {
      "addAuthorizedAddress(address)": {
        "details": "Authorizes an address.",
        "params": {
          "target": "Address to authorize."
        }
      },
      "assertValidStorageParams()": {
        "details": "Asserts that an epoch is between 5 and 30 days long.Asserts that 0 < cobb douglas alpha value <= 1.Asserts that a stake weight is <= 100%.Asserts that pools allow >= 1 maker.Asserts that all addresses are initialized."
      },
      "attachStakingContract(address)": {
        "details": "Note that this is callable only by an authorized address.",
        "params": {
          "stakingImplementation": "Address of staking contract."
        }
      },
      "batchExecute(bytes[])": {
        "params": {
          "data": "An array of data that encodes a sequence of functions to call in the staking contracts."
        }
      },
      "constructor": {
        "params": {
          "newOwner": "Address of the staking proxy owner.",
          "stakingImplementation": "Address of the staking contract to delegate calls to."
        }
      },
      "detachStakingContract()": {
        "details": "Note that this is callable only by an authorized address."
      },
      "getAuthorizedAddresses()": {
        "details": "Gets all authorized addresses.",
        "returns": {
          "_0": "Array of authorized addresses."
        }
      },
      "removeAuthorizedAddress(address)": {
        "details": "Removes authorizion of an address.",
        "params": {
          "target": "Address to remove authorization from."
        }
      },
      "removeAuthorizedAddressAtIndex(address,uint256)": {
        "details": "Removes authorizion of an address.",
        "params": {
          "index": "Index of target in authorities array.",
          "target": "Address to remove authorization from."
        }
      },
      "transferOwnership(address)": {
        "details": "Change the owner of this contract.",
        "params": {
          "newOwner": "New owner address."
        }
      }
    },
    "version": 1
  },
  "userdoc": {
    "events": {
      "StakingContractAttachedToProxy(address)": {
        "notice": "Emitted by StakingProxy when a staking contract is attached."
      },
      "StakingContractDetachedFromProxy()": {
        "notice": "Emitted by StakingProxy when a staking contract is detached."
      }
    },
    "kind": "user",
    "methods": {
      "aggregatedStatsByEpoch(uint256)": {
        "notice": "Aggregated stats across all pools that generated fees with sufficient stake to earn rewards."
      },
      "assertValidStorageParams()": {
        "notice": "Asserts initialziation parameters are correct."
      },
      "attachStakingContract(address)": {
        "notice": "Attach a staking contract; future calls will be delegated to the staking contract."
      },
      "batchExecute(bytes[])": {
        "notice": "Batch executes a series of calls to the staking contract."
      },
      "cobbDouglasAlphaDenominator()": {
        "notice": "Denominator for cobb douglas alpha factor."
      },
      "cobbDouglasAlphaNumerator()": {
        "notice": "Numerator for cobb douglas alpha factor."
      },
      "constructor": {
        "notice": "Constructor."
      },
      "currentEpoch()": {
        "notice": "The current epoch."
      },
      "currentEpochStartTimeInSeconds()": {
        "notice": "The current epoch start time."
      },
      "detachStakingContract()": {
        "notice": "Detach the current staking contract."
      },
      "epochDurationInSeconds()": {
        "notice": "Minimum seconds between epochs."
      },
      "grgReservedForPoolRewards()": {
        "notice": "The GRG balance of this contract that is reserved for pool reward payouts."
      },
      "minimumPoolStake()": {
        "notice": "Minimum amount of stake required in a pool to collect rewards."
      },
      "poolIdByRbPoolAccount(address)": {
        "notice": "Mapping from RigoBlock pool subaccount to pool Id of rigoblock pool"
      },
      "poolStatsByEpoch(bytes32,uint256)": {
        "notice": "Stats for each pool that generated fees with sufficient stake to earn rewards."
      },
      "rewardsByPoolId(bytes32)": {
        "notice": "mapping from pool ID to reward balance of members"
      },
      "stakingContract()": {
        "notice": "Address of staking contract."
      },
      "validPops(address)": {
        "notice": "Registered RigoBlock Proof_of_Performance contracts, capable of paying protocol fees."
      }
    },
    "notice": "#dev The RigoBlock Staking contract.",
    "version": 1
  },
  "storageLayout": {
    "storage": [
      {
        "astId": 16123,
        "contract": "contracts/staking/StakingProxy.sol:StakingProxy",
        "label": "owner",
        "offset": 0,
        "slot": "0",
        "type": "t_address"
      },
      {
        "astId": 15017,
        "contract": "contracts/staking/StakingProxy.sol:StakingProxy",
        "label": "authorized",
        "offset": 0,
        "slot": "1",
        "type": "t_mapping(t_address,t_bool)"
      },
      {
        "astId": 15021,
        "contract": "contracts/staking/StakingProxy.sol:StakingProxy",
        "label": "authorities",
        "offset": 0,
        "slot": "2",
        "type": "t_array(t_address)dyn_storage"
      },
      {
        "astId": 8494,
        "contract": "contracts/staking/StakingProxy.sol:StakingProxy",
        "label": "stakingContract",
        "offset": 0,
        "slot": "3",
        "type": "t_address"
      },
      {
        "astId": 8499,
        "contract": "contracts/staking/StakingProxy.sol:StakingProxy",
        "label": "_globalStakeByStatus",
        "offset": 0,
        "slot": "4",
        "type": "t_mapping(t_uint8,t_struct(StoredBalance)9242_storage)"
      },
      {
        "astId": 8506,
        "contract": "contracts/staking/StakingProxy.sol:StakingProxy",
        "label": "_ownerStakeByStatus",
        "offset": 0,
        "slot": "5",
        "type": "t_mapping(t_uint8,t_mapping(t_address,t_struct(StoredBalance)9242_storage))"
      },
      {
        "astId": 8513,
        "contract": "contracts/staking/StakingProxy.sol:StakingProxy",
        "label": "_delegatedStakeToPoolByOwner",
        "offset": 0,
        "slot": "6",
        "type": "t_mapping(t_address,t_mapping(t_bytes32,t_struct(StoredBalance)9242_storage))"
      },
      {
        "astId": 8518,
        "contract": "contracts/staking/StakingProxy.sol:StakingProxy",
        "label": "_delegatedStakeByPoolId",
        "offset": 0,
        "slot": "7",
        "type": "t_mapping(t_bytes32,t_struct(StoredBalance)9242_storage)"
      },
      {
        "astId": 8524,
        "contract": "contracts/staking/StakingProxy.sol:StakingProxy",
        "label": "poolIdByRbPoolAccount",
        "offset": 0,
        "slot": "8",
        "type": "t_mapping(t_address,t_bytes32)"
      },
      {
        "astId": 8529,
        "contract": "contracts/staking/StakingProxy.sol:StakingProxy",
        "label": "_poolById",
        "offset": 0,
        "slot": "9",
        "type": "t_mapping(t_bytes32,t_struct(Pool)9265_storage)"
      },
      {
        "astId": 8535,
        "contract": "contracts/staking/StakingProxy.sol:StakingProxy",
        "label": "rewardsByPoolId",
        "offset": 0,
        "slot": "10",
        "type": "t_mapping(t_bytes32,t_uint256)"
      },
      {
        "astId": 8539,
        "contract": "contracts/staking/StakingProxy.sol:StakingProxy",
        "label": "currentEpoch",
        "offset": 0,
        "slot": "11",
        "type": "t_uint256"
      },
      {
        "astId": 8543,
        "contract": "contracts/staking/StakingProxy.sol:StakingProxy",
        "label": "currentEpochStartTimeInSeconds",
        "offset": 0,
        "slot": "12",
        "type": "t_uint256"
      },
      {
        "astId": 8550,
        "contract": "contracts/staking/StakingProxy.sol:StakingProxy",
        "label": "_cumulativeRewardsByPool",
        "offset": 0,
        "slot": "13",
        "type": "t_mapping(t_bytes32,t_mapping(t_uint256,t_struct(Fraction)9256_storage))"
      },
      {
        "astId": 8554,
        "contract": "contracts/staking/StakingProxy.sol:StakingProxy",
        "label": "_cumulativeRewardsByPoolLastStored",
        "offset": 0,
        "slot": "14",
        "type": "t_mapping(t_bytes32,t_uint256)"
      },
      {
        "astId": 8560,
        "contract": "contracts/staking/StakingProxy.sol:StakingProxy",
        "label": "validPops",
        "offset": 0,
        "slot": "15",
        "type": "t_mapping(t_address,t_bool)"
      },
      {
        "astId": 8564,
        "contract": "contracts/staking/StakingProxy.sol:StakingProxy",
        "label": "epochDurationInSeconds",
        "offset": 0,
        "slot": "16",
        "type": "t_uint256"
      },
      {
        "astId": 8568,
        "contract": "contracts/staking/StakingProxy.sol:StakingProxy",
        "label": "rewardDelegatedStakeWeight",
        "offset": 0,
        "slot": "17",
        "type": "t_uint32"
      },
      {
        "astId": 8572,
        "contract": "contracts/staking/StakingProxy.sol:StakingProxy",
        "label": "minimumPoolStake",
        "offset": 0,
        "slot": "18",
        "type": "t_uint256"
      },
      {
        "astId": 8576,
        "contract": "contracts/staking/StakingProxy.sol:StakingProxy",
        "label": "cobbDouglasAlphaNumerator",
        "offset": 0,
        "slot": "19",
        "type": "t_uint32"
      },
      {
        "astId": 8580,
        "contract": "contracts/staking/StakingProxy.sol:StakingProxy",
        "label": "cobbDouglasAlphaDenominator",
        "offset": 4,
        "slot": "19",
        "type": "t_uint32"
      },
      {
        "astId": 8589,
        "contract": "contracts/staking/StakingProxy.sol:StakingProxy",
        "label": "poolStatsByEpoch",
        "offset": 0,
        "slot": "20",
        "type": "t_mapping(t_bytes32,t_mapping(t_uint256,t_struct(PoolStats)9224_storage))"
      },
      {
        "astId": 8595,
        "contract": "contracts/staking/StakingProxy.sol:StakingProxy",
        "label": "aggregatedStatsByEpoch",
        "offset": 0,
        "slot": "21",
        "type": "t_mapping(t_uint256,t_struct(AggregatedStats)9235_storage)"
      },
      {
        "astId": 8598,
        "contract": "contracts/staking/StakingProxy.sol:StakingProxy",
        "label": "grgReservedForPoolRewards",
        "offset": 0,
        "slot": "22",
        "type": "t_uint256"
      }
    ],
    "types": {
      "t_address": {
        "encoding": "inplace",
        "label": "address",
        "numberOfBytes": "20"
      },
      "t_array(t_address)dyn_storage": {
        "base": "t_address",
        "encoding": "dynamic_array",
        "label": "address[]",
        "numberOfBytes": "32"
      },
      "t_bool": {
        "encoding": "inplace",
        "label": "bool",
        "numberOfBytes": "1"
      },
      "t_bytes32": {
        "encoding": "inplace",
        "label": "bytes32",
        "numberOfBytes": "32"
      },
      "t_mapping(t_address,t_bool)": {
        "encoding": "mapping",
        "key": "t_address",
        "label": "mapping(address => bool)",
        "numberOfBytes": "32",
        "value": "t_bool"
      },
      "t_mapping(t_address,t_bytes32)": {
        "encoding": "mapping",
        "key": "t_address",
        "label": "mapping(address => bytes32)",
        "numberOfBytes": "32",
        "value": "t_bytes32"
      },
      "t_mapping(t_address,t_mapping(t_bytes32,t_struct(StoredBalance)9242_storage))": {
        "encoding": "mapping",
        "key": "t_address",
        "label": "mapping(address => mapping(bytes32 => struct IStructs.StoredBalance))",
        "numberOfBytes": "32",
        "value": "t_mapping(t_bytes32,t_struct(StoredBalance)9242_storage)"
      },
      "t_mapping(t_address,t_struct(StoredBalance)9242_storage)": {
        "encoding": "mapping",
        "key": "t_address",
        "label": "mapping(address => struct IStructs.StoredBalance)",
        "numberOfBytes": "32",
        "value": "t_struct(StoredBalance)9242_storage"
      },
      "t_mapping(t_bytes32,t_mapping(t_uint256,t_struct(Fraction)9256_storage))": {
        "encoding": "mapping",
        "key": "t_bytes32",
        "label": "mapping(bytes32 => mapping(uint256 => struct IStructs.Fraction))",
        "numberOfBytes": "32",
        "value": "t_mapping(t_uint256,t_struct(Fraction)9256_storage)"
      },
      "t_mapping(t_bytes32,t_mapping(t_uint256,t_struct(PoolStats)9224_storage))": {
        "encoding": "mapping",
        "key": "t_bytes32",
        "label": "mapping(bytes32 => mapping(uint256 => struct IStructs.PoolStats))",
        "numberOfBytes": "32",
        "value": "t_mapping(t_uint256,t_struct(PoolStats)9224_storage)"
      },
      "t_mapping(t_bytes32,t_struct(Pool)9265_storage)": {
        "encoding": "mapping",
        "key": "t_bytes32",
        "label": "mapping(bytes32 => struct IStructs.Pool)",
        "numberOfBytes": "32",
        "value": "t_struct(Pool)9265_storage"
      },
      "t_mapping(t_bytes32,t_struct(StoredBalance)9242_storage)": {
        "encoding": "mapping",
        "key": "t_bytes32",
        "label": "mapping(bytes32 => struct IStructs.StoredBalance)",
        "numberOfBytes": "32",
        "value": "t_struct(StoredBalance)9242_storage"
      },
      "t_mapping(t_bytes32,t_uint256)": {
        "encoding": "mapping",
        "key": "t_bytes32",
        "label": "mapping(bytes32 => uint256)",
        "numberOfBytes": "32",
        "value": "t_uint256"
      },
      "t_mapping(t_uint256,t_struct(AggregatedStats)9235_storage)": {
        "encoding": "mapping",
        "key": "t_uint256",
        "label": "mapping(uint256 => struct IStructs.AggregatedStats)",
        "numberOfBytes": "32",
        "value": "t_struct(AggregatedStats)9235_storage"
      },
      "t_mapping(t_uint256,t_struct(Fraction)9256_storage)": {
        "encoding": "mapping",
        "key": "t_uint256",
        "label": "mapping(uint256 => struct IStructs.Fraction)",
        "numberOfBytes": "32",
        "value": "t_struct(Fraction)9256_storage"
      },
      "t_mapping(t_uint256,t_struct(PoolStats)9224_storage)": {
        "encoding": "mapping",
        "key": "t_uint256",
        "label": "mapping(uint256 => struct IStructs.PoolStats)",
        "numberOfBytes": "32",
        "value": "t_struct(PoolStats)9224_storage"
      },
      "t_mapping(t_uint8,t_mapping(t_address,t_struct(StoredBalance)9242_storage))": {
        "encoding": "mapping",
        "key": "t_uint8",
        "label": "mapping(uint8 => mapping(address => struct IStructs.StoredBalance))",
        "numberOfBytes": "32",
        "value": "t_mapping(t_address,t_struct(StoredBalance)9242_storage)"
      },
      "t_mapping(t_uint8,t_struct(StoredBalance)9242_storage)": {
        "encoding": "mapping",
        "key": "t_uint8",
        "label": "mapping(uint8 => struct IStructs.StoredBalance)",
        "numberOfBytes": "32",
        "value": "t_struct(StoredBalance)9242_storage"
      },
      "t_struct(AggregatedStats)9235_storage": {
        "encoding": "inplace",
        "label": "struct IStructs.AggregatedStats",
        "members": [
          {
            "astId": 9226,
            "contract": "contracts/staking/StakingProxy.sol:StakingProxy",
            "label": "rewardsAvailable",
            "offset": 0,
            "slot": "0",
            "type": "t_uint256"
          },
          {
            "astId": 9228,
            "contract": "contracts/staking/StakingProxy.sol:StakingProxy",
            "label": "numPoolsToFinalize",
            "offset": 0,
            "slot": "1",
            "type": "t_uint256"
          },
          {
            "astId": 9230,
            "contract": "contracts/staking/StakingProxy.sol:StakingProxy",
            "label": "totalFeesCollected",
            "offset": 0,
            "slot": "2",
            "type": "t_uint256"
          },
          {
            "astId": 9232,
            "contract": "contracts/staking/StakingProxy.sol:StakingProxy",
            "label": "totalWeightedStake",
            "offset": 0,
            "slot": "3",
            "type": "t_uint256"
          },
          {
            "astId": 9234,
            "contract": "contracts/staking/StakingProxy.sol:StakingProxy",
            "label": "totalRewardsFinalized",
            "offset": 0,
            "slot": "4",
            "type": "t_uint256"
          }
        ],
        "numberOfBytes": "160"
      },
      "t_struct(Fraction)9256_storage": {
        "encoding": "inplace",
        "label": "struct IStructs.Fraction",
        "members": [
          {
            "astId": 9253,
            "contract": "contracts/staking/StakingProxy.sol:StakingProxy",
            "label": "numerator",
            "offset": 0,
            "slot": "0",
            "type": "t_uint256"
          },
          {
            "astId": 9255,
            "contract": "contracts/staking/StakingProxy.sol:StakingProxy",
            "label": "denominator",
            "offset": 0,
            "slot": "1",
            "type": "t_uint256"
          }
        ],
        "numberOfBytes": "64"
      },
      "t_struct(Pool)9265_storage": {
        "encoding": "inplace",
        "label": "struct IStructs.Pool",
        "members": [
          {
            "astId": 9258,
            "contract": "contracts/staking/StakingProxy.sol:StakingProxy",
            "label": "operator",
            "offset": 0,
            "slot": "0",
            "type": "t_address"
          },
          {
            "astId": 9260,
            "contract": "contracts/staking/StakingProxy.sol:StakingProxy",
            "label": "stakingPal",
            "offset": 0,
            "slot": "1",
            "type": "t_address"
          },
          {
            "astId": 9262,
            "contract": "contracts/staking/StakingProxy.sol:StakingProxy",
            "label": "operatorShare",
            "offset": 20,
            "slot": "1",
            "type": "t_uint32"
          },
          {
            "astId": 9264,
            "contract": "contracts/staking/StakingProxy.sol:StakingProxy",
            "label": "stakingPalShare",
            "offset": 24,
            "slot": "1",
            "type": "t_uint32"
          }
        ],
        "numberOfBytes": "64"
      },
      "t_struct(PoolStats)9224_storage": {
        "encoding": "inplace",
        "label": "struct IStructs.PoolStats",
        "members": [
          {
            "astId": 9219,
            "contract": "contracts/staking/StakingProxy.sol:StakingProxy",
            "label": "feesCollected",
            "offset": 0,
            "slot": "0",
            "type": "t_uint256"
          },
          {
            "astId": 9221,
            "contract": "contracts/staking/StakingProxy.sol:StakingProxy",
            "label": "weightedStake",
            "offset": 0,
            "slot": "1",
            "type": "t_uint256"
          },
          {
            "astId": 9223,
            "contract": "contracts/staking/StakingProxy.sol:StakingProxy",
            "label": "membersStake",
            "offset": 0,
            "slot": "2",
            "type": "t_uint256"
          }
        ],
        "numberOfBytes": "96"
      },
      "t_struct(StoredBalance)9242_storage": {
        "encoding": "inplace",
        "label": "struct IStructs.StoredBalance",
        "members": [
          {
            "astId": 9237,
            "contract": "contracts/staking/StakingProxy.sol:StakingProxy",
            "label": "currentEpoch",
            "offset": 0,
            "slot": "0",
            "type": "t_uint64"
          },
          {
            "astId": 9239,
            "contract": "contracts/staking/StakingProxy.sol:StakingProxy",
            "label": "currentEpochBalance",
            "offset": 8,
            "slot": "0",
            "type": "t_uint96"
          },
          {
            "astId": 9241,
            "contract": "contracts/staking/StakingProxy.sol:StakingProxy",
            "label": "nextEpochBalance",
            "offset": 20,
            "slot": "0",
            "type": "t_uint96"
          }
        ],
        "numberOfBytes": "32"
      },
      "t_uint256": {
        "encoding": "inplace",
        "label": "uint256",
        "numberOfBytes": "32"
      },
      "t_uint32": {
        "encoding": "inplace",
        "label": "uint32",
        "numberOfBytes": "4"
      },
      "t_uint64": {
        "encoding": "inplace",
        "label": "uint64",
        "numberOfBytes": "8"
      },
      "t_uint8": {
        "encoding": "inplace",
        "label": "uint8",
        "numberOfBytes": "1"
      },
      "t_uint96": {
        "encoding": "inplace",
        "label": "uint96",
        "numberOfBytes": "12"
      }
    }
  }
}