{
  "address": "0xf59E31f738EEF10CA94845B3Be78a0a626f2a4A5",
  "abi": [
    {
      "inputs": [
        {
          "internalType": "address",
          "name": "governance",
          "type": "address"
        }
      ],
      "stateMutability": "nonpayable",
      "type": "constructor"
    },
    {
      "inputs": [
        {
          "internalType": "uint256",
          "name": "proposalId",
          "type": "uint256"
        },
        {
          "internalType": "enum IGovernanceVoting.VoteType",
          "name": "voteType",
          "type": "uint8"
        }
      ],
      "name": "castVote",
      "outputs": [],
      "stateMutability": "nonpayable",
      "type": "function"
    },
    {
      "inputs": [
        {
          "internalType": "uint256",
          "name": "proposalId",
          "type": "uint256"
        }
      ],
      "name": "execute",
      "outputs": [],
      "stateMutability": "nonpayable",
      "type": "function"
    },
    {
      "inputs": [
        {
          "components": [
            {
              "internalType": "address",
              "name": "target",
              "type": "address"
            },
            {
              "internalType": "bytes",
              "name": "data",
              "type": "bytes"
            },
            {
              "internalType": "uint256",
              "name": "value",
              "type": "uint256"
            }
          ],
          "internalType": "struct IGovernanceVoting.ProposedAction[]",
          "name": "actions",
          "type": "tuple[]"
        },
        {
          "internalType": "string",
          "name": "description",
          "type": "string"
        }
      ],
      "name": "propose",
      "outputs": [],
      "stateMutability": "nonpayable",
      "type": "function"
    }
  ],
  "transactionHash": "0x816e11b481c57829bc6bf8bff6010bf3a74a0c116259b32badf725c953ba2e55",
  "args": [
    "0x5F8607739c2D2d0b57a4292868C368AB1809767a"
  ],
  "solcInputHash": "ddaa16d64cc41ec9e7df5c1081b4e1ec",
  "bytecode": "0x60a060405234801561001057600080fd5b506040516106a63803806106a683398101604081905261002f91610040565b6001600160a01b0316608052610070565b60006020828403121561005257600080fd5b81516001600160a01b038116811461006957600080fd5b9392505050565b60805161060e6100986000396000818160980152818161012e01526101b9015261060e6000f3fe608060405234801561001057600080fd5b50600436106100415760003560e01c8063367015bb14610046578063567813881461005b578063fe0d94c11461006e575b600080fd5b610059610054366004610307565b610081565b005b61005961006936600461045e565b610117565b61005961007c366004610492565b61019b565b60405163367015bb60e01b81526001600160a01b037f0000000000000000000000000000000000000000000000000000000000000000169063367015bb906100cf90859085906004016104f1565b6020604051808303816000875af11580156100ee573d6000803e3d6000fd5b505050506040513d601f19601f82011682018060405250810190610112919061058d565b505050565b604051630acf027160e31b81526001600160a01b037f0000000000000000000000000000000000000000000000000000000000000000169063567813889061016590859085906004016105a6565b600060405180830381600087803b15801561017f57600080fd5b505af1158015610193573d6000803e3d6000fd5b505050505050565b60405163fe0d94c160e01b8152600481018290526001600160a01b037f0000000000000000000000000000000000000000000000000000000000000000169063fe0d94c190602401600060405180830381600087803b1580156101fd57600080fd5b505af1158015610211573d6000803e3d6000fd5b5050505050565b634e487b7160e01b600052604160045260246000fd5b6040516060810167ffffffffffffffff8111828210171561025157610251610218565b60405290565b604051601f8201601f1916810167ffffffffffffffff8111828210171561028057610280610218565b604052919050565b600067ffffffffffffffff8311156102a2576102a2610218565b6102b5601f8401601f1916602001610257565b90508281528383830111156102c957600080fd5b828260208301376000602084830101529392505050565b600082601f8301126102f157600080fd5b61030083833560208501610288565b9392505050565b600080604080848603121561031b57600080fd5b833567ffffffffffffffff8082111561033357600080fd5b818601915086601f83011261034757600080fd5b813560208282111561035b5761035b610218565b8160051b61036a828201610257565b928352848101820192828101908b85111561038457600080fd5b83870192505b8483101561042f578235868111156103a157600080fd5b87016060818e03601f190112156103b85760008081fd5b6103c061022e565b818601356001600160a01b03811681146103da5760008081fd5b8152818a0135888111156103ee5760008081fd5b8201603f81018f136104005760008081fd5b6104108f888301358d8401610288565b828801525060609190910135898201528252918301919083019061038a565b985050508701359350508083111561044657600080fd5b5050610454858286016102e0565b9150509250929050565b6000806040838503121561047157600080fd5b8235915060208301356003811061048757600080fd5b809150509250929050565b6000602082840312156104a457600080fd5b5035919050565b6000815180845260005b818110156104d1576020818501810151868301820152016104b5565b506000602082860101526020601f19601f83011685010191505092915050565b60006040808301818452808651808352606092508286019150828160051b8701016020808a0160005b8481101561056d57898403605f19018652815180516001600160a01b0316855283810151848601899052610550898701826104ab565b918a0151958a01959095529583019593509082019060010161051a565b50508782039088015261058081896104ab565b9998505050505050505050565b60006020828403121561059f57600080fd5b5051919050565b82815260408101600383106105cb57634e487b7160e01b600052602160045260246000fd5b826020830152939250505056fea26469706673582212207e06933c5897265d26208ea68b9e1eb0f075d6021ce993cfcb40dac7e6a2288964736f6c63430008110033",
  "devdoc": {
    "author": "Gabriele Rigo - <gab@rigoblock.com>",
    "kind": "dev",
    "methods": {
      "castVote(uint256,uint8)": {
        "params": {
          "proposalId": "Number of the proposal.",
          "voteType": "Enum of the vote type."
        }
      },
      "execute(uint256)": {
        "params": {
          "proposalId": "Number of the proposal."
        }
      },
      "propose((address,bytes,uint256)[],string)": {
        "params": {
          "actions": "Array of tuples of proposed actions.",
          "description": "A human-readable description."
        }
      }
    },
    "title": "Governance adapter - A helper contract for interacting with governance.",
    "version": 1
  },
  "userdoc": {
    "kind": "user",
    "methods": {
      "castVote(uint256,uint8)": {
        "notice": "Allows a pool to vote on a proposal."
      },
      "execute(uint256)": {
        "notice": "Allows a pool to execute a proposal."
      },
      "propose((address,bytes,uint256)[],string)": {
        "notice": "Allows to make a proposal to the Rigoblock governance."
      }
    },
    "version": 1
  },
  "storageLayout": {
    "storage": [],
    "types": null
  }
}