{
  "address": "0x64BcA3673c8990B11225E9f49E6da554180690fc",
  "abi": [
    {
      "inputs": [
        {
          "internalType": "address",
          "name": "factory",
          "type": "address"
        }
      ],
      "stateMutability": "nonpayable",
      "type": "constructor"
    },
    {
      "anonymous": false,
      "inputs": [
        {
          "indexed": true,
          "internalType": "address",
          "name": "implementation",
          "type": "address"
        }
      ],
      "name": "Upgraded",
      "type": "event"
    },
    {
      "inputs": [],
      "name": "getBeacon",
      "outputs": [
        {
          "internalType": "address",
          "name": "",
          "type": "address"
        }
      ],
      "stateMutability": "view",
      "type": "function"
    },
    {
      "inputs": [],
      "name": "upgradeImplementation",
      "outputs": [],
      "stateMutability": "nonpayable",
      "type": "function"
    }
  ],
  "args": [
    "0x8DE8895ddD702d9a216E640966A98e08c9228f24"
  ],
  "solcInputHash": "b558e216ac68bfdc765602d7590789b5",
  "bytecode": "0x60c060405234801561001057600080fd5b506040516103de3803806103de83398101604081905261002f91610044565b306080526001600160a01b031660a052610074565b60006020828403121561005657600080fd5b81516001600160a01b038116811461006d57600080fd5b9392505050565b60805160a05161034061009e60003960008181603d015261010301526000608501526103406000f3fe608060405234801561001057600080fd5b50600436106100365760003560e01c80632d6b3a6b1461003b578063466f3dc314610078575b600080fd5b7f00000000000000000000000000000000000000000000000000000000000000006040516001600160a01b03909116815260200160405180910390f35b610080610082565b005b307f00000000000000000000000000000000000000000000000000000000000000006001600160a01b0316036100ff5760405162461bcd60e51b815260206004820152601a60248201527f45555047524144455f4449524543545f43414c4c5f4552524f5200000000000060448201526064015b60405180910390fd5b60007f00000000000000000000000000000000000000000000000000000000000000006001600160a01b0316635c60da1b6040518163ffffffff1660e01b8152600401602060405180830381865afa15801561015f573d6000803e3d6000fd5b505050506040513d601f19601f82011682018060405250810190610183919061029d565b90507f360894a13ba1a3210667c828492db98dca3e2076cc3735a920a3ca505d382bbc6101d160017f360894a13ba1a3210667c828492db98dca3e2076cc3735a920a3ca505d382bbd6102cd565b81146101df576101df6102f4565b80546001600160a01b039081169083168190036102545760405162461bcd60e51b815260206004820152602d60248201527f45555047524144455f494d504c454d454e544154494f4e5f53414d455f41535f60448201526c21aaa92922a72a2fa2a92927a960991b60648201526084016100f6565b81546001600160a01b0319166001600160a01b03841690811783556040517fbc7cd75a20ee27fd9adebab32041f755214dbc6bffa90cc0225b39da2e5c2d3b90600090a2505050565b6000602082840312156102af57600080fd5b81516001600160a01b03811681146102c657600080fd5b9392505050565b818103818111156102ee57634e487b7160e01b600052601160045260246000fd5b92915050565b634e487b7160e01b600052600160045260246000fdfea264697066735822122099428f946c2faa5ef7e1f8def3847537d35f7f87fda72bb5090aaf25f57754e764736f6c63430008110033",
  "devdoc": {
    "author": "Gabriele Rigo - <gab@rigoblock.com>",
    "kind": "dev",
    "methods": {
      "upgradeImplementation()": {
        "details": "Cannot be called directly and in pool is restricted to pool owner."
      }
    },
    "title": "EUpgrade - Allows upgrading implementation.",
    "version": 1
  },
  "userdoc": {
    "events": {
      "Upgraded(address)": {
        "notice": "Emitted when pool operator upgrades proxy implementation address."
      }
    },
    "kind": "user",
    "methods": {
      "upgradeImplementation()": {
        "notice": "Allows caller to upgrade pool implementation."
      }
    },
    "version": 1
  },
  "storageLayout": {
    "storage": [],
    "types": null
  }
}