{
  "address": "0xe98dD4dB97fDB0e61d3159f296BE8281DEfCf7C0",
  "abi": [
    {
      "inputs": [
        {
          "internalType": "address",
          "name": "stakingProxy",
          "type": "address"
        }
      ],
      "stateMutability": "nonpayable",
      "type": "constructor"
    },
    {
      "inputs": [
        {
          "components": [
            {
              "internalType": "address",
              "name": "implementation",
              "type": "address"
            },
            {
              "internalType": "address",
              "name": "governanceStrategy",
              "type": "address"
            },
            {
              "internalType": "uint256",
              "name": "proposalThreshold",
              "type": "uint256"
            },
            {
              "internalType": "uint256",
              "name": "quorumThreshold",
              "type": "uint256"
            },
            {
              "internalType": "enum IGovernanceState.TimeType",
              "name": "timeType",
              "type": "uint8"
            },
            {
              "internalType": "string",
              "name": "name",
              "type": "string"
            }
          ],
          "internalType": "struct IRigoblockGovernanceFactory.Parameters",
          "name": "params",
          "type": "tuple"
        }
      ],
      "name": "assertValidInitParams",
      "outputs": [],
      "stateMutability": "view",
      "type": "function"
    },
    {
      "inputs": [
        {
          "internalType": "uint256",
          "name": "proposalThreshold",
          "type": "uint256"
        },
        {
          "internalType": "uint256",
          "name": "quorumThreshold",
          "type": "uint256"
        }
      ],
      "name": "assertValidThresholds",
      "outputs": [],
      "stateMutability": "view",
      "type": "function"
    },
    {
      "inputs": [
        {
          "components": [
            {
              "internalType": "uint256",
              "name": "actionsLength",
              "type": "uint256"
            },
            {
              "internalType": "uint256",
              "name": "startBlockOrTime",
              "type": "uint256"
            },
            {
              "internalType": "uint256",
              "name": "endBlockOrTime",
              "type": "uint256"
            },
            {
              "internalType": "uint256",
              "name": "votesFor",
              "type": "uint256"
            },
            {
              "internalType": "uint256",
              "name": "votesAgainst",
              "type": "uint256"
            },
            {
              "internalType": "uint256",
              "name": "votesAbstain",
              "type": "uint256"
            },
            {
              "internalType": "bool",
              "name": "executed",
              "type": "bool"
            }
          ],
          "internalType": "struct IGovernanceState.Proposal",
          "name": "proposal",
          "type": "tuple"
        },
        {
          "internalType": "uint256",
          "name": "minimumQuorum",
          "type": "uint256"
        }
      ],
      "name": "getProposalState",
      "outputs": [
        {
          "internalType": "enum IGovernanceState.ProposalState",
          "name": "",
          "type": "uint8"
        }
      ],
      "stateMutability": "view",
      "type": "function"
    },
    {
      "inputs": [
        {
          "internalType": "address",
          "name": "account",
          "type": "address"
        }
      ],
      "name": "getVotingPower",
      "outputs": [
        {
          "internalType": "uint256",
          "name": "",
          "type": "uint256"
        }
      ],
      "stateMutability": "view",
      "type": "function"
    },
    {
      "inputs": [],
      "name": "votingPeriod",
      "outputs": [
        {
          "internalType": "uint256",
          "name": "",
          "type": "uint256"
        }
      ],
      "stateMutability": "view",
      "type": "function"
    },
    {
      "inputs": [],
      "name": "votingTimestamps",
      "outputs": [
        {
          "internalType": "uint256",
          "name": "startBlockOrTime",
          "type": "uint256"
        },
        {
          "internalType": "uint256",
          "name": "endBlockOrTime",
          "type": "uint256"
        }
      ],
      "stateMutability": "view",
      "type": "function"
    }
  ],
  "transactionHash": "0xaa2b109eb495a8d440b9bc14f83145f95266ae5aa8c4e9513e96a0b5ca5b3d64",
  "args": [
    "0x6C4594aa0CBcb8315E88EFdb11675c09A7a5f444"
  ],
  "solcInputHash": "ddaa16d64cc41ec9e7df5c1081b4e1ec",
  "bytecode": "0x60c060405234801561001057600080fd5b50604051610dd8380380610dd883398101604081905261002f91610047565b6001600160a01b031660805262093a8060a052610077565b60006020828403121561005957600080fd5b81516001600160a01b038116811461007057600080fd5b9392505050565b60805160a051610d136100c56000396000818161018301526101aa01526000818160ff01528181610342015281816103d3015281816104a20152818161055e01526106da0152610d136000f3fe608060405234801561001057600080fd5b50600436106100625760003560e01c806302a251a3146100675780632e1002141461008257806339e0c048146100975780634ca93626146100b7578063bb4d4436146100ca578063c694dc0a146100dd575b600080fd5b61006f6100fa565b6040519081526020015b60405180910390f35b61009561009036600461094b565b6101d6565b005b6100aa6100a5366004610a0b565b610276565b6040516100799190610aa9565b6100956100c5366004610ac3565b610312565b61006f6100d8366004610ae5565b610328565b6100e56103ce565b60408051928352602083019190915201610079565b6000807f00000000000000000000000000000000000000000000000000000000000000006001600160a01b031663634038016040518163ffffffff1660e01b8152600401602060405180830381865afa15801561015b573d6000803e3d6000fd5b505050506040513d601f19601f8201168201806040525081019061017f9190610b02565b90507f000000000000000000000000000000000000000000000000000000000000000081106101ce577f00000000000000000000000000000000000000000000000000000000000000006101d0565b805b91505090565b604051806040016040528060148152602001735269676f626c6f636b20476f7665726e616e636560601b8152506040516020016102139190610b1b565b604051602081830303815290604052805190602001208160a0015160405160200161023e9190610b1b565b604051602081830303815290604052805190602001201461026157610261610b4a565b61027381604001518260600151610312565b50565b60008260200151421161028b5750600061030c565b826040015142111580156102a457506102a48383610488565b156102b15750600361030c565b826040015142116102c45750600161030c565b60808301516102d4906002610b76565b83606001511115806102e95750818360600151105b156102f65750600461030c565b8260c00151156103085750600861030c565b5060055b92915050565b61031b8261055a565b610324816106d6565b5050565b6040516344a6958b60e01b81526000906001600160a01b037f000000000000000000000000000000000000000000000000000000000000000016906344a6958b9061037a908590600190600401610ba1565b606060405180830381865afa158015610397573d6000803e3d6000fd5b505050506040513d601f19601f820116820180604052508101906103bb9190610bda565b602001516001600160601b031692915050565b6000807f00000000000000000000000000000000000000000000000000000000000000006001600160a01b031663b2baa33e6040518163ffffffff1660e01b8152600401602060405180830381865afa15801561042f573d6000803e3d6000fd5b505050506040513d601f19601f820116820180604052508101906104539190610b02565b915081421015610463578161046e565b61046e426001610c52565b91506104786100fa565b6104829083610c52565b90509091565b604051633a01342960e21b81526000906001600160a01b037f0000000000000000000000000000000000000000000000000000000000000000169063e804d0a4906104d890600190600401610c65565b606060405180830381865afa1580156104f5573d6000803e3d6000fd5b505050506040513d601f19601f820116820180604052508101906105199190610bda565b60200151610528906002610c73565b6001600160601b0316836060015160036105429190610b76565b118015610553575081836060015110155b9392505050565b60007f00000000000000000000000000000000000000000000000000000000000000006001600160a01b031663ef4ba6806040518163ffffffff1660e01b8152600401602060405180830381865afa1580156105ba573d6000803e3d6000fd5b505050506040513d601f19601f820116820180604052508101906105de9190610c9e565b6001600160a01b03166318160ddd6040518163ffffffff1660e01b8152600401602060405180830381865afa15801561061b573d6000803e3d6000fd5b505050506040513d601f19601f8201168201806040525081019061063f9190610b02565b905046600061064f606484610cbb565b9050600061065e603285610cbb565b9050826001146106b35769043c33c1937564800000821061067f578161068b565b69043c33c19375648000005b915069152d02c7e14af680000081106106a457806106b0565b69152d02c7e14af68000005b90505b8185101580156106c35750808511155b6106cf576106cf610b4a565b5050505050565b60007f00000000000000000000000000000000000000000000000000000000000000006001600160a01b031663ef4ba6806040518163ffffffff1660e01b8152600401602060405180830381865afa158015610736573d6000803e3d6000fd5b505050506040513d601f19601f8201168201806040525081019061075a9190610c9e565b6001600160a01b03166318160ddd6040518163ffffffff1660e01b8152600401602060405180830381865afa158015610797573d6000803e3d6000fd5b505050506040513d601f19601f820116820180604052508101906107bb9190610b02565b90504660006107cb601984610cbb565b905060006107da600a85610cbb565b9050826001146106b35769152d02c7e14af680000082106107fb5781610807565b69152d02c7e14af68000005b91506954b40b1f852bda000000811061082057806106b0565b506954b40b1f852bda0000008185108015906106c35750808511156106cf576106cf610b4a565b634e487b7160e01b600052604160045260246000fd5b60405160c0810167ffffffffffffffff8111828210171561088057610880610847565b60405290565b60405160e0810167ffffffffffffffff8111828210171561088057610880610847565b6001600160a01b038116811461027357600080fd5b600082601f8301126108cf57600080fd5b813567ffffffffffffffff808211156108ea576108ea610847565b604051601f8301601f19908116603f0116810190828211818310171561091257610912610847565b8160405283815286602085880101111561092b57600080fd5b836020870160208301376000602085830101528094505050505092915050565b60006020828403121561095d57600080fd5b813567ffffffffffffffff8082111561097557600080fd5b9083019060c0828603121561098957600080fd5b61099161085d565b823561099c816108a9565b815260208301356109ac816108a9565b8060208301525060408301356040820152606083013560608201526080830135600281106109d957600080fd5b608082015260a0830135828111156109f057600080fd5b6109fc878286016108be565b60a08301525095945050505050565b600080828403610100811215610a2057600080fd5b60e0811215610a2e57600080fd5b50610a37610886565b833581526020840135602082015260408401356040820152606084013560608201526080840135608082015260a084013560a082015260c08401358015158114610a8057600080fd5b60c08201529460e0939093013593505050565b634e487b7160e01b600052602160045260246000fd5b6020810160098310610abd57610abd610a93565b91905290565b60008060408385031215610ad657600080fd5b50508035926020909101359150565b600060208284031215610af757600080fd5b8135610553816108a9565b600060208284031215610b1457600080fd5b5051919050565b6000825160005b81811015610b3c5760208186018101518583015201610b22565b506000920191825250919050565b634e487b7160e01b600052600160045260246000fd5b634e487b7160e01b600052601160045260246000fd5b808202811582820484141761030c5761030c610b60565b60028110610b9d57610b9d610a93565b9052565b6001600160a01b0383168152604081016105536020830184610b8d565b80516001600160601b0381168114610bd557600080fd5b919050565b600060608284031215610bec57600080fd5b6040516060810167ffffffffffffffff8282108183111715610c1057610c10610847565b81604052845191508082168214610c2657600080fd5b508152610c3560208401610bbe565b6020820152610c4660408401610bbe565b60408201529392505050565b8082018082111561030c5761030c610b60565b6020810161030c8284610b8d565b6001600160601b03818116838216028082169190828114610c9657610c96610b60565b505092915050565b600060208284031215610cb057600080fd5b8151610553816108a9565b600082610cd857634e487b7160e01b600052601260045260246000fd5b50049056fea2646970667358221220b0acf3a4a43390a84de6462b6e09e48e7fc87103c3e98dd2714b3d3ece1648ee64736f6c63430008110033",
  "devdoc": {
    "kind": "dev",
    "methods": {
      "assertValidInitParams((address,address,uint256,uint256,uint8,string))": {
        "details": "Only used at initialization, as params deleted from factory storage after setup.",
        "params": {
          "params": "Tuple of factory parameters."
        }
      },
      "assertValidThresholds(uint256,uint256)": {
        "params": {
          "proposalThreshold": "Number of votes required to make a proposal.",
          "quorumThreshold": "Number of votes required for a proposal to succeed."
        }
      },
      "getProposalState((uint256,uint256,uint256,uint256,uint256,uint256,bool),uint256)": {
        "params": {
          "minimumQuorum": "Number of votes required for a proposal to pass.",
          "proposal": "Tuple of the proposal."
        },
        "returns": {
          "_0": "Tuple of the proposal state."
        }
      },
      "getVotingPower(address)": {
        "params": {
          "account": "Address to check votes for."
        }
      },
      "votingPeriod()": {
        "returns": {
          "_0": "Number of seconds of period duration."
        }
      },
      "votingTimestamps()": {
        "returns": {
          "endBlockOrTime": "Timestamp when voting ends.",
          "startBlockOrTime": "Timestamp when proposal starts."
        }
      }
    },
    "version": 1
  },
  "userdoc": {
    "kind": "user",
    "methods": {
      "assertValidInitParams((address,address,uint256,uint256,uint8,string))": {
        "notice": "Reverts if initialization paramters are incorrect."
      },
      "assertValidThresholds(uint256,uint256)": {
        "notice": "Reverts if thresholds are incorrect."
      },
      "getProposalState((uint256,uint256,uint256,uint256,uint256,uint256,bool),uint256)": {
        "notice": "Returns the state of a proposal for a required quorum."
      },
      "getVotingPower(address)": {
        "notice": "Return a user's voting power."
      },
      "votingPeriod()": {
        "notice": "Return the voting period."
      },
      "votingTimestamps()": {
        "notice": "Returns the voting timestamps."
      }
    },
    "version": 1
  },
  "storageLayout": {
    "storage": [],
    "types": null
  }
}