{
  "address": "0x06767e8090bA5c4Eca89ED00C3A719909D503ED6",
  "abi": [
    {
      "inputs": [
        {
          "internalType": "address",
          "name": "newAuthority",
          "type": "address"
        },
        {
          "internalType": "address",
          "name": "newRigoblockDao",
          "type": "address"
        }
      ],
      "stateMutability": "nonpayable",
      "type": "constructor"
    },
    {
      "anonymous": false,
      "inputs": [
        {
          "indexed": true,
          "internalType": "address",
          "name": "authority",
          "type": "address"
        }
      ],
      "name": "AuthorityChanged",
      "type": "event"
    },
    {
      "anonymous": false,
      "inputs": [
        {
          "indexed": true,
          "internalType": "address",
          "name": "pool",
          "type": "address"
        },
        {
          "indexed": true,
          "internalType": "bytes32",
          "name": "key",
          "type": "bytes32"
        },
        {
          "indexed": false,
          "internalType": "bytes32",
          "name": "value",
          "type": "bytes32"
        }
      ],
      "name": "MetaChanged",
      "type": "event"
    },
    {
      "anonymous": false,
      "inputs": [
        {
          "indexed": true,
          "internalType": "address",
          "name": "group",
          "type": "address"
        },
        {
          "indexed": false,
          "internalType": "address",
          "name": "pool",
          "type": "address"
        },
        {
          "indexed": true,
          "internalType": "bytes32",
          "name": "name",
          "type": "bytes32"
        },
        {
          "indexed": true,
          "internalType": "bytes32",
          "name": "symbol",
          "type": "bytes32"
        },
        {
          "indexed": false,
          "internalType": "bytes32",
          "name": "id",
          "type": "bytes32"
        }
      ],
      "name": "Registered",
      "type": "event"
    },
    {
      "anonymous": false,
      "inputs": [
        {
          "indexed": true,
          "internalType": "address",
          "name": "rigoblockDao",
          "type": "address"
        }
      ],
      "name": "RigoblockDaoChanged",
      "type": "event"
    },
    {
      "inputs": [],
      "name": "authority",
      "outputs": [
        {
          "internalType": "address",
          "name": "",
          "type": "address"
        }
      ],
      "stateMutability": "view",
      "type": "function"
    },
    {
      "inputs": [
        {
          "internalType": "address",
          "name": "pool",
          "type": "address"
        },
        {
          "internalType": "bytes32",
          "name": "key",
          "type": "bytes32"
        }
      ],
      "name": "getMeta",
      "outputs": [
        {
          "internalType": "bytes32",
          "name": "poolMeta",
          "type": "bytes32"
        }
      ],
      "stateMutability": "view",
      "type": "function"
    },
    {
      "inputs": [
        {
          "internalType": "address",
          "name": "pool",
          "type": "address"
        }
      ],
      "name": "getPoolIdFromAddress",
      "outputs": [
        {
          "internalType": "bytes32",
          "name": "poolId",
          "type": "bytes32"
        }
      ],
      "stateMutability": "view",
      "type": "function"
    },
    {
      "inputs": [
        {
          "internalType": "address",
          "name": "pool",
          "type": "address"
        },
        {
          "internalType": "string",
          "name": "name",
          "type": "string"
        },
        {
          "internalType": "string",
          "name": "symbol",
          "type": "string"
        },
        {
          "internalType": "bytes32",
          "name": "poolId",
          "type": "bytes32"
        }
      ],
      "name": "register",
      "outputs": [],
      "stateMutability": "nonpayable",
      "type": "function"
    },
    {
      "inputs": [],
      "name": "rigoblockDao",
      "outputs": [
        {
          "internalType": "address",
          "name": "",
          "type": "address"
        }
      ],
      "stateMutability": "view",
      "type": "function"
    },
    {
      "inputs": [
        {
          "internalType": "address",
          "name": "newAuthority",
          "type": "address"
        }
      ],
      "name": "setAuthority",
      "outputs": [],
      "stateMutability": "nonpayable",
      "type": "function"
    },
    {
      "inputs": [
        {
          "internalType": "address",
          "name": "pool",
          "type": "address"
        },
        {
          "internalType": "bytes32",
          "name": "key",
          "type": "bytes32"
        },
        {
          "internalType": "bytes32",
          "name": "value",
          "type": "bytes32"
        }
      ],
      "name": "setMeta",
      "outputs": [],
      "stateMutability": "nonpayable",
      "type": "function"
    },
    {
      "inputs": [
        {
          "internalType": "address",
          "name": "newRigoblockDao",
          "type": "address"
        }
      ],
      "name": "setRigoblockDao",
      "outputs": [],
      "stateMutability": "nonpayable",
      "type": "function"
    }
  ],
  "transactionHash": "0x9b5a5c48eb1d21c0700f6b81ee6805a1db5b4f9d0ed5af0f2cac2f25d9280e00",
  "args": [
    "0xe35129A1E0BdB913CF6Fd8332E9d3533b5F41472",
    "0x080f08076e8EAdC66006C3CbFEd28a34918A1fA6"
  ],
  "solcInputHash": "d4b54f99081d42612f5f3a501b8bf888",
  "bytecode": "0x608060405234801561001057600080fd5b50604051610fb5380380610fb583398101604081905261002f9161007c565b600080546001600160a01b039384166001600160a01b031991821617909155600180549290931691161790556100af565b80516001600160a01b038116811461007757600080fd5b919050565b6000806040838503121561008f57600080fd5b61009883610060565b91506100a660208401610060565b90509250929050565b610ef7806100be6000396000f3fe608060405234801561001057600080fd5b50600436106100885760003560e01c806356d002c41161005b57806356d002c41461011c5780637a9e5e4b1461012f578063b516e6e114610142578063bf7e214f1461015557600080fd5b80632cee21911461008d578063386f5adf146100c95780633edd80c3146100dc5780633f47734b14610107575b600080fd5b6100b661009b366004610c72565b6001600160a01b031660009081526002602052604090205490565b6040519081526020015b60405180910390f35b6100b66100d7366004610c96565b610168565b6001546100ef906001600160a01b031681565b6040516001600160a01b0390911681526020016100c0565b61011a610115366004610d0b565b610193565b005b61011a61012a366004610d96565b6103c2565b61011a61013d366004610c72565b61056b565b61011a610150366004610c72565b6106a4565b6000546100ef906001600160a01b031681565b6001600160a01b03821660009081526003602090815260408083208484529091529020545b92915050565b6000546040516306e5bd1f60e51b81523360048201526001600160a01b039091169063dcb7a3e090602401602060405180830381865afa1580156101db573d6000803e3d6000fd5b505050506040513d601f19601f820116820180604052508101906101ff9190610dcb565b61025f5760405162461bcd60e51b815260206004820152602660248201527f52454749535452595f464143544f52595f4e4f545f57484954454c49535445446044820152652fa2a92927a960d11b60648201526084015b60405180910390fd5b6001600160a01b0386166000908152600260205260409020548690156102d35760405162461bcd60e51b8152602060048201526024808201527f52454749535452595f414444524553535f414c52454144595f54414b454e5f45604482015263292927a960e11b6064820152608401610256565b61034686868080601f01602080910402602001604051908101604052809392919081815260200183838082843760009201919091525050604080516020601f8a0181900481028201810190925288815292508891508790819084018382808284376000920191909152506107d992505050565b6001600160a01b038716600090815260026020526040902082905561036b8385610ded565b6103758688610ded565b604080516001600160a01b038b1681526020810186905233917ff9e59440b5a9b7c83d67d07a5a61a2c6c07cfdd82854d9f08624b1fd5e1c01a8910160405180910390a450505050505050565b82336001600160a01b0316816001600160a01b0316638da5cb5b6040518163ffffffff1660e01b8152600401602060405180830381865afa15801561040b573d6000803e3d6000fd5b505050506040513d601f19601f8201168201806040525081019061042f9190610e0b565b6001600160a01b0316146104955760405162461bcd60e51b815260206004820152602760248201527f52454749535452595f43414c4c45525f49535f4e4f545f504f4f4c5f4f574e45604482015266292fa2a92927a960c91b6064820152608401610256565b6001600160a01b038416600090815260026020526040902054849061050a5760405162461bcd60e51b815260206004820152602560248201527f52454749535452595f414444524553535f4e4f545f524547495354455245445f60448201526422a92927a960d91b6064820152608401610256565b6001600160a01b038516600081815260036020908152604080832088845282529182902086905590518581528692917f908d4c229ad1504da754a04d079d71924a9696007407c0e6dc2d88dc18962547910160405180910390a35050505050565b6001546001600160a01b031633146105c55760405162461bcd60e51b815260206004820152601d60248201527f52454749535452595f43414c4c45525f4e4f545f44414f5f4552524f520000006044820152606401610256565b6000546001600160a01b03908116908216036105f35760405162461bcd60e51b815260040161025690610e28565b6001600160a01b0381163b61065c5760405162461bcd60e51b815260206004820152602960248201527f52454749535452595f4e45575f415554484f524954595f4e4f545f434f4e545260448201526820a1aa2fa2a92927a960b91b6064820152608401610256565b600080546001600160a01b0319166001600160a01b038316908117825560405190917f3430ad8dbed7c32bf49006f0d79d2ab70785ea13ebd4ef7d1b87e487ef08928c91a250565b6001546001600160a01b031633146106fe5760405162461bcd60e51b815260206004820152601d60248201527f52454749535452595f43414c4c45525f4e4f545f44414f5f4552524f520000006044820152606401610256565b6001546001600160a01b039081169082160361072c5760405162461bcd60e51b815260040161025690610e28565b6001600160a01b0381163b61078f5760405162461bcd60e51b815260206004820152602360248201527f52454749535452595f4e45575f44414f5f4e4f545f434f4e54524143545f45526044820152622927a960e91b6064820152608401610256565b600180546001600160a01b0319166001600160a01b0383169081179091556040517fed96973ae9959b9cf32518c616176e97e08e78f72ffaba2003327315a3c5bfa390600090a250565b8151600481108015906107ed5750601f8111155b6108395760405162461bcd60e51b815260206004820152601a60248201527f52454749535452595f4e414d455f4c454e4754485f4552524f520000000000006044820152606401610256565b81516003811080159061084d575060058111155b6108995760405162461bcd60e51b815260206004820152601c60248201527f52454749535452595f53594d424f4c5f4c454e4754485f4552524f52000000006044820152606401610256565b6108a2846108ba565b6108ab836108ba565b6108b483610b80565b50505050565b80518190600160fd1b826000836108d3576108d3610e69565b01602001516001600160f81b0319160361093b5760405162461bcd60e51b8152602060048201526024808201527f4c494253414e4954495a455f53504143455f41545f424547494e4e494e475f45604482015263292927a960e11b6064820152608401610256565b600160fd1b8261094c600184610e95565b8151811061095c5761095c610e69565b01602001516001600160f81b031916036109b85760405162461bcd60e51b815260206004820152601e60248201527f4c494253414e4954495a455f53504143455f41545f454e445f4552524f5200006044820152606401610256565b60005b818110156108b4578251600360fc1b908490839081106109dd576109dd610e69565b01602001516001600160f81b0319161080610a1e57508251603d60f91b90849083908110610a0d57610a0d610e69565b01602001516001600160f81b031916115b80610a8057508251603960f81b90849083908110610a3e57610a3e610e69565b01602001516001600160f81b031916118015610a8057508251604160f81b90849083908110610a6f57610a6f610e69565b01602001516001600160f81b031916105b80610ae257508251602d60f91b90849083908110610aa057610aa0610e69565b01602001516001600160f81b031916118015610ae257508251606160f81b90849083908110610ad157610ad1610e69565b01602001516001600160f81b031916105b8015610b1557508251600160fd1b90849083908110610b0357610b03610e69565b01602001516001600160f81b03191614155b15610b6e5760405162461bcd60e51b815260206004820152602360248201527f4c494253414e4954495a455f5350454349414c5f4348415241435445525f45526044820152622927a960e91b6064820152608401610256565b80610b7881610ea8565b9150506109bb565b8051819060005b818110156108b4578251606160f81b90849083908110610ba957610ba9610e69565b01602001516001600160f81b03191610801590610bed57508251603d60f91b90849083908110610bdb57610bdb610e69565b01602001516001600160f81b03191611155b15610c485760405162461bcd60e51b815260206004820152602560248201527f4c494253414e4954495a455f5550504552434153455f4348415241435445525f60448201526422a92927a960d91b6064820152608401610256565b80610c5281610ea8565b915050610b87565b6001600160a01b0381168114610c6f57600080fd5b50565b600060208284031215610c8457600080fd5b8135610c8f81610c5a565b9392505050565b60008060408385031215610ca957600080fd5b8235610cb481610c5a565b946020939093013593505050565b60008083601f840112610cd457600080fd5b50813567ffffffffffffffff811115610cec57600080fd5b602083019150836020828501011115610d0457600080fd5b9250929050565b60008060008060008060808789031215610d2457600080fd5b8635610d2f81610c5a565b9550602087013567ffffffffffffffff80821115610d4c57600080fd5b610d588a838b01610cc2565b90975095506040890135915080821115610d7157600080fd5b50610d7e89828a01610cc2565b979a9699509497949695606090950135949350505050565b600080600060608486031215610dab57600080fd5b8335610db681610c5a565b95602085013595506040909401359392505050565b600060208284031215610ddd57600080fd5b81518015158114610c8f57600080fd5b8035602083101561018d57600019602084900360031b1b1692915050565b600060208284031215610e1d57600080fd5b8151610c8f81610c5a565b60208082526021908201527f52454749535452595f53414d455f494e5055545f414444524553535f4552524f6040820152602960f91b606082015260800190565b634e487b7160e01b600052603260045260246000fd5b634e487b7160e01b600052601160045260246000fd5b8181038181111561018d5761018d610e7f565b600060018201610eba57610eba610e7f565b506001019056fea264697066735822122073e75ac3b8c1adf691f488a40c982626b75f2de75e2da12a95537a887a930a1d64736f6c63430008110033",
  "devdoc": {
    "author": "Gabriele Rigo - <gab@rigoblock.com>",
    "kind": "dev",
    "methods": {
      "getMeta(address,bytes32)": {
        "params": {
          "key": "Bytes32 key.",
          "pool": "Address of the pool."
        },
        "returns": {
          "poolMeta": "Meta by key."
        }
      },
      "getPoolIdFromAddress(address)": {
        "params": {
          "pool": "Address of the pool."
        },
        "returns": {
          "poolId": "bytes32 id of the pool."
        }
      },
      "register(address,string,string,bytes32)": {
        "params": {
          "name": "String name of the pool (31 characters/bytes or less).",
          "pool": "Address of the pool.",
          "poolId": "Bytes32 of the pool id.",
          "symbol": "String symbol of the pool (3 to 5 characters/bytes)."
        }
      },
      "setAuthority(address)": {
        "params": {
          "authority": "Address of the authority contract."
        }
      },
      "setMeta(address,bytes32,bytes32)": {
        "params": {
          "key": "Bytes32 of the key.",
          "pool": "Address of the pool.",
          "value": "Bytes32 of the value."
        }
      },
      "setRigoblockDao(address)": {
        "details": "Creates internal record.",
        "params": {
          "newRigoblockDao": "Address of the Rigoblock Dao."
        }
      }
    },
    "stateVariables": {
      "authority": {
        "return": "Address of the authority contract.",
        "returns": {
          "_0": "Address of the authority contract."
        }
      },
      "rigoblockDao": {
        "return": "Address of the Rigoblock Dao.",
        "returns": {
          "_0": "Address of the Rigoblock Dao."
        }
      }
    },
    "title": "Pool Registry - Allows registration of pools.",
    "version": 1
  },
  "userdoc": {
    "events": {
      "AuthorityChanged(address)": {
        "notice": "Emitted when Rigoblock Dao updates authority address."
      },
      "MetaChanged(address,bytes32,bytes32)": {
        "notice": "Emitted when pool owner updates meta data for its pool."
      },
      "Registered(address,address,bytes32,bytes32,bytes32)": {
        "notice": "Emitted when a new pool is registered in registry."
      },
      "RigoblockDaoChanged(address)": {
        "notice": "Emitted when rigoblock Dao address is updated."
      }
    },
    "kind": "user",
    "methods": {
      "authority()": {
        "notice": "Returns the address of the Rigoblock authority contract."
      },
      "getMeta(address,bytes32)": {
        "notice": "Returns metadata for a given pool."
      },
      "getPoolIdFromAddress(address)": {
        "notice": "Returns the id of a pool from its address."
      },
      "register(address,string,string,bytes32)": {
        "notice": "Allows a factory which is an authority to register a pool."
      },
      "rigoblockDao()": {
        "notice": "Returns the address of the Rigoblock Dao."
      },
      "setAuthority(address)": {
        "notice": "Allows Rigoblock governance to update authority."
      },
      "setMeta(address,bytes32,bytes32)": {
        "notice": "Allows pool owner to set metadata for a pool."
      },
      "setRigoblockDao(address)": {
        "notice": "Allows Rigoblock Dao to update its address."
      }
    },
    "version": 1
  },
  "storageLayout": {
    "storage": [
      {
        "astId": 2854,
        "contract": "contracts/protocol/deps/PoolRegistry.sol:PoolRegistry",
        "label": "authority",
        "offset": 0,
        "slot": "0",
        "type": "t_address"
      },
      {
        "astId": 2858,
        "contract": "contracts/protocol/deps/PoolRegistry.sol:PoolRegistry",
        "label": "rigoblockDao",
        "offset": 0,
        "slot": "1",
        "type": "t_address"
      },
      {
        "astId": 2862,
        "contract": "contracts/protocol/deps/PoolRegistry.sol:PoolRegistry",
        "label": "_mapIdByAddress",
        "offset": 0,
        "slot": "2",
        "type": "t_mapping(t_address,t_bytes32)"
      },
      {
        "astId": 2867,
        "contract": "contracts/protocol/deps/PoolRegistry.sol:PoolRegistry",
        "label": "_poolMetaByAddress",
        "offset": 0,
        "slot": "3",
        "type": "t_mapping(t_address,t_struct(PoolMeta)6080_storage)"
      }
    ],
    "types": {
      "t_address": {
        "encoding": "inplace",
        "label": "address",
        "numberOfBytes": "20"
      },
      "t_bytes32": {
        "encoding": "inplace",
        "label": "bytes32",
        "numberOfBytes": "32"
      },
      "t_mapping(t_address,t_bytes32)": {
        "encoding": "mapping",
        "key": "t_address",
        "label": "mapping(address => bytes32)",
        "numberOfBytes": "32",
        "value": "t_bytes32"
      },
      "t_mapping(t_address,t_struct(PoolMeta)6080_storage)": {
        "encoding": "mapping",
        "key": "t_address",
        "label": "mapping(address => struct IPoolRegistry.PoolMeta)",
        "numberOfBytes": "32",
        "value": "t_struct(PoolMeta)6080_storage"
      },
      "t_mapping(t_bytes32,t_bytes32)": {
        "encoding": "mapping",
        "key": "t_bytes32",
        "label": "mapping(bytes32 => bytes32)",
        "numberOfBytes": "32",
        "value": "t_bytes32"
      },
      "t_struct(PoolMeta)6080_storage": {
        "encoding": "inplace",
        "label": "struct IPoolRegistry.PoolMeta",
        "members": [
          {
            "astId": 6079,
            "contract": "contracts/protocol/deps/PoolRegistry.sol:PoolRegistry",
            "label": "meta",
            "offset": 0,
            "slot": "0",
            "type": "t_mapping(t_bytes32,t_bytes32)"
          }
        ],
        "numberOfBytes": "32"
      }
    }
  }
}