{
  "address": "0xeb0c08Ad44af89BcBB5Ed6dD28caD452311B8516",
  "abi": [
    {
      "inputs": [
        {
          "internalType": "address",
          "name": "authority",
          "type": "address"
        }
      ],
      "stateMutability": "nonpayable",
      "type": "constructor"
    },
    {
      "anonymous": false,
      "inputs": [
        {
          "indexed": true,
          "internalType": "address",
          "name": "owner",
          "type": "address"
        },
        {
          "indexed": true,
          "internalType": "address",
          "name": "spender",
          "type": "address"
        },
        {
          "indexed": false,
          "internalType": "uint256",
          "name": "value",
          "type": "uint256"
        }
      ],
      "name": "Approval",
      "type": "event"
    },
    {
      "anonymous": false,
      "inputs": [
        {
          "indexed": true,
          "internalType": "address",
          "name": "pool",
          "type": "address"
        },
        {
          "indexed": true,
          "internalType": "address",
          "name": "kycProvider",
          "type": "address"
        }
      ],
      "name": "KycProviderSet",
      "type": "event"
    },
    {
      "anonymous": false,
      "inputs": [
        {
          "indexed": true,
          "internalType": "address",
          "name": "pool",
          "type": "address"
        },
        {
          "indexed": false,
          "internalType": "uint48",
          "name": "minimumPeriod",
          "type": "uint48"
        }
      ],
      "name": "MinimumPeriodChanged",
      "type": "event"
    },
    {
      "anonymous": false,
      "inputs": [
        {
          "indexed": true,
          "internalType": "address",
          "name": "pool",
          "type": "address"
        },
        {
          "indexed": true,
          "internalType": "address",
          "name": "who",
          "type": "address"
        },
        {
          "indexed": false,
          "internalType": "address",
          "name": "feeCollector",
          "type": "address"
        }
      ],
      "name": "NewCollector",
      "type": "event"
    },
    {
      "anonymous": false,
      "inputs": [
        {
          "indexed": true,
          "internalType": "address",
          "name": "pool",
          "type": "address"
        },
        {
          "indexed": true,
          "internalType": "address",
          "name": "who",
          "type": "address"
        },
        {
          "indexed": false,
          "internalType": "uint16",
          "name": "transactionFee",
          "type": "uint16"
        }
      ],
      "name": "NewFee",
      "type": "event"
    },
    {
      "anonymous": false,
      "inputs": [
        {
          "indexed": true,
          "internalType": "address",
          "name": "poolOperator",
          "type": "address"
        },
        {
          "indexed": true,
          "internalType": "address",
          "name": "pool",
          "type": "address"
        },
        {
          "indexed": false,
          "internalType": "uint256",
          "name": "unitaryValue",
          "type": "uint256"
        }
      ],
      "name": "NewNav",
      "type": "event"
    },
    {
      "anonymous": false,
      "inputs": [
        {
          "indexed": true,
          "internalType": "address",
          "name": "old",
          "type": "address"
        },
        {
          "indexed": true,
          "internalType": "address",
          "name": "current",
          "type": "address"
        }
      ],
      "name": "NewOwner",
      "type": "event"
    },
    {
      "anonymous": false,
      "inputs": [
        {
          "indexed": true,
          "internalType": "address",
          "name": "group",
          "type": "address"
        },
        {
          "indexed": true,
          "internalType": "address",
          "name": "owner",
          "type": "address"
        },
        {
          "indexed": true,
          "internalType": "address",
          "name": "baseToken",
          "type": "address"
        },
        {
          "indexed": false,
          "internalType": "string",
          "name": "name",
          "type": "string"
        },
        {
          "indexed": false,
          "internalType": "bytes8",
          "name": "symbol",
          "type": "bytes8"
        }
      ],
      "name": "PoolInitialized",
      "type": "event"
    },
    {
      "anonymous": false,
      "inputs": [
        {
          "indexed": true,
          "internalType": "address",
          "name": "pool",
          "type": "address"
        },
        {
          "indexed": false,
          "internalType": "uint16",
          "name": "spread",
          "type": "uint16"
        }
      ],
      "name": "SpreadChanged",
      "type": "event"
    },
    {
      "anonymous": false,
      "inputs": [
        {
          "indexed": true,
          "internalType": "address",
          "name": "from",
          "type": "address"
        },
        {
          "indexed": true,
          "internalType": "address",
          "name": "to",
          "type": "address"
        },
        {
          "indexed": false,
          "internalType": "uint256",
          "name": "value",
          "type": "uint256"
        }
      ],
      "name": "Transfer",
      "type": "event"
    },
    {
      "stateMutability": "payable",
      "type": "fallback"
    },
    {
      "inputs": [],
      "name": "VERSION",
      "outputs": [
        {
          "internalType": "string",
          "name": "",
          "type": "string"
        }
      ],
      "stateMutability": "view",
      "type": "function"
    },
    {
      "inputs": [
        {
          "internalType": "address",
          "name": "owner",
          "type": "address"
        },
        {
          "internalType": "address",
          "name": "spender",
          "type": "address"
        }
      ],
      "name": "allowance",
      "outputs": [
        {
          "internalType": "uint256",
          "name": "",
          "type": "uint256"
        }
      ],
      "stateMutability": "view",
      "type": "function"
    },
    {
      "inputs": [
        {
          "internalType": "address",
          "name": "spender",
          "type": "address"
        },
        {
          "internalType": "uint256",
          "name": "value",
          "type": "uint256"
        }
      ],
      "name": "approve",
      "outputs": [
        {
          "internalType": "bool",
          "name": "success",
          "type": "bool"
        }
      ],
      "stateMutability": "nonpayable",
      "type": "function"
    },
    {
      "inputs": [],
      "name": "authority",
      "outputs": [
        {
          "internalType": "address",
          "name": "",
          "type": "address"
        }
      ],
      "stateMutability": "view",
      "type": "function"
    },
    {
      "inputs": [
        {
          "internalType": "address",
          "name": "who",
          "type": "address"
        }
      ],
      "name": "balanceOf",
      "outputs": [
        {
          "internalType": "uint256",
          "name": "",
          "type": "uint256"
        }
      ],
      "stateMutability": "view",
      "type": "function"
    },
    {
      "inputs": [
        {
          "internalType": "uint256",
          "name": "amountIn",
          "type": "uint256"
        },
        {
          "internalType": "uint256",
          "name": "amountOutMin",
          "type": "uint256"
        }
      ],
      "name": "burn",
      "outputs": [
        {
          "internalType": "uint256",
          "name": "netRevenue",
          "type": "uint256"
        }
      ],
      "stateMutability": "nonpayable",
      "type": "function"
    },
    {
      "inputs": [
        {
          "internalType": "address",
          "name": "feeCollector",
          "type": "address"
        }
      ],
      "name": "changeFeeCollector",
      "outputs": [],
      "stateMutability": "nonpayable",
      "type": "function"
    },
    {
      "inputs": [
        {
          "internalType": "uint48",
          "name": "minPeriod",
          "type": "uint48"
        }
      ],
      "name": "changeMinPeriod",
      "outputs": [],
      "stateMutability": "nonpayable",
      "type": "function"
    },
    {
      "inputs": [
        {
          "internalType": "uint16",
          "name": "newSpread",
          "type": "uint16"
        }
      ],
      "name": "changeSpread",
      "outputs": [],
      "stateMutability": "nonpayable",
      "type": "function"
    },
    {
      "inputs": [],
      "name": "decimals",
      "outputs": [
        {
          "internalType": "uint8",
          "name": "",
          "type": "uint8"
        }
      ],
      "stateMutability": "view",
      "type": "function"
    },
    {
      "inputs": [],
      "name": "getPool",
      "outputs": [
        {
          "components": [
            {
              "internalType": "string",
              "name": "name",
              "type": "string"
            },
            {
              "internalType": "string",
              "name": "symbol",
              "type": "string"
            },
            {
              "internalType": "uint8",
              "name": "decimals",
              "type": "uint8"
            },
            {
              "internalType": "address",
              "name": "owner",
              "type": "address"
            },
            {
              "internalType": "address",
              "name": "baseToken",
              "type": "address"
            }
          ],
          "internalType": "struct IRigoblockV3PoolState.ReturnedPool",
          "name": "",
          "type": "tuple"
        }
      ],
      "stateMutability": "view",
      "type": "function"
    },
    {
      "inputs": [],
      "name": "getPoolParams",
      "outputs": [
        {
          "components": [
            {
              "internalType": "uint48",
              "name": "minPeriod",
              "type": "uint48"
            },
            {
              "internalType": "uint16",
              "name": "spread",
              "type": "uint16"
            },
            {
              "internalType": "uint16",
              "name": "transactionFee",
              "type": "uint16"
            },
            {
              "internalType": "address",
              "name": "feeCollector",
              "type": "address"
            },
            {
              "internalType": "address",
              "name": "kycProvider",
              "type": "address"
            }
          ],
          "internalType": "struct IRigoblockV3PoolState.PoolParams",
          "name": "",
          "type": "tuple"
        }
      ],
      "stateMutability": "view",
      "type": "function"
    },
    {
      "inputs": [],
      "name": "getPoolStorage",
      "outputs": [
        {
          "components": [
            {
              "internalType": "string",
              "name": "name",
              "type": "string"
            },
            {
              "internalType": "string",
              "name": "symbol",
              "type": "string"
            },
            {
              "internalType": "uint8",
              "name": "decimals",
              "type": "uint8"
            },
            {
              "internalType": "address",
              "name": "owner",
              "type": "address"
            },
            {
              "internalType": "address",
              "name": "baseToken",
              "type": "address"
            }
          ],
          "internalType": "struct IRigoblockV3PoolState.ReturnedPool",
          "name": "poolInitParams",
          "type": "tuple"
        },
        {
          "components": [
            {
              "internalType": "uint48",
              "name": "minPeriod",
              "type": "uint48"
            },
            {
              "internalType": "uint16",
              "name": "spread",
              "type": "uint16"
            },
            {
              "internalType": "uint16",
              "name": "transactionFee",
              "type": "uint16"
            },
            {
              "internalType": "address",
              "name": "feeCollector",
              "type": "address"
            },
            {
              "internalType": "address",
              "name": "kycProvider",
              "type": "address"
            }
          ],
          "internalType": "struct IRigoblockV3PoolState.PoolParams",
          "name": "poolVariables",
          "type": "tuple"
        },
        {
          "components": [
            {
              "internalType": "uint256",
              "name": "unitaryValue",
              "type": "uint256"
            },
            {
              "internalType": "uint256",
              "name": "totalSupply",
              "type": "uint256"
            }
          ],
          "internalType": "struct IRigoblockV3PoolState.PoolTokens",
          "name": "poolTokensInfo",
          "type": "tuple"
        }
      ],
      "stateMutability": "view",
      "type": "function"
    },
    {
      "inputs": [],
      "name": "getPoolTokens",
      "outputs": [
        {
          "components": [
            {
              "internalType": "uint256",
              "name": "unitaryValue",
              "type": "uint256"
            },
            {
              "internalType": "uint256",
              "name": "totalSupply",
              "type": "uint256"
            }
          ],
          "internalType": "struct IRigoblockV3PoolState.PoolTokens",
          "name": "",
          "type": "tuple"
        }
      ],
      "stateMutability": "view",
      "type": "function"
    },
    {
      "inputs": [
        {
          "internalType": "uint256",
          "name": "offset",
          "type": "uint256"
        },
        {
          "internalType": "uint256",
          "name": "length",
          "type": "uint256"
        }
      ],
      "name": "getStorageAt",
      "outputs": [
        {
          "internalType": "bytes",
          "name": "",
          "type": "bytes"
        }
      ],
      "stateMutability": "view",
      "type": "function"
    },
    {
      "inputs": [
        {
          "internalType": "uint256[]",
          "name": "slots",
          "type": "uint256[]"
        }
      ],
      "name": "getStorageSlotsAt",
      "outputs": [
        {
          "internalType": "bytes",
          "name": "",
          "type": "bytes"
        }
      ],
      "stateMutability": "view",
      "type": "function"
    },
    {
      "inputs": [
        {
          "internalType": "address",
          "name": "who",
          "type": "address"
        }
      ],
      "name": "getUserAccount",
      "outputs": [
        {
          "components": [
            {
              "internalType": "uint208",
              "name": "userBalance",
              "type": "uint208"
            },
            {
              "internalType": "uint48",
              "name": "activation",
              "type": "uint48"
            }
          ],
          "internalType": "struct IRigoblockV3PoolState.UserAccount",
          "name": "",
          "type": "tuple"
        }
      ],
      "stateMutability": "view",
      "type": "function"
    },
    {
      "inputs": [],
      "name": "initializePool",
      "outputs": [],
      "stateMutability": "nonpayable",
      "type": "function"
    },
    {
      "inputs": [
        {
          "internalType": "address",
          "name": "recipient",
          "type": "address"
        },
        {
          "internalType": "uint256",
          "name": "amountIn",
          "type": "uint256"
        },
        {
          "internalType": "uint256",
          "name": "amountOutMin",
          "type": "uint256"
        }
      ],
      "name": "mint",
      "outputs": [
        {
          "internalType": "uint256",
          "name": "recipientAmount",
          "type": "uint256"
        }
      ],
      "stateMutability": "payable",
      "type": "function"
    },
    {
      "inputs": [],
      "name": "name",
      "outputs": [
        {
          "internalType": "string",
          "name": "",
          "type": "string"
        }
      ],
      "stateMutability": "view",
      "type": "function"
    },
    {
      "inputs": [],
      "name": "owner",
      "outputs": [
        {
          "internalType": "address",
          "name": "",
          "type": "address"
        }
      ],
      "stateMutability": "view",
      "type": "function"
    },
    {
      "inputs": [
        {
          "internalType": "address",
          "name": "kycProvider",
          "type": "address"
        }
      ],
      "name": "setKycProvider",
      "outputs": [],
      "stateMutability": "nonpayable",
      "type": "function"
    },
    {
      "inputs": [
        {
          "internalType": "address",
          "name": "newOwner",
          "type": "address"
        }
      ],
      "name": "setOwner",
      "outputs": [],
      "stateMutability": "nonpayable",
      "type": "function"
    },
    {
      "inputs": [
        {
          "internalType": "uint16",
          "name": "transactionFee",
          "type": "uint16"
        }
      ],
      "name": "setTransactionFee",
      "outputs": [],
      "stateMutability": "nonpayable",
      "type": "function"
    },
    {
      "inputs": [
        {
          "internalType": "uint256",
          "name": "unitaryValue",
          "type": "uint256"
        }
      ],
      "name": "setUnitaryValue",
      "outputs": [],
      "stateMutability": "nonpayable",
      "type": "function"
    },
    {
      "inputs": [],
      "name": "symbol",
      "outputs": [
        {
          "internalType": "string",
          "name": "",
          "type": "string"
        }
      ],
      "stateMutability": "view",
      "type": "function"
    },
    {
      "inputs": [],
      "name": "totalSupply",
      "outputs": [
        {
          "internalType": "uint256",
          "name": "",
          "type": "uint256"
        }
      ],
      "stateMutability": "view",
      "type": "function"
    },
    {
      "inputs": [
        {
          "internalType": "address",
          "name": "to",
          "type": "address"
        },
        {
          "internalType": "uint256",
          "name": "value",
          "type": "uint256"
        }
      ],
      "name": "transfer",
      "outputs": [
        {
          "internalType": "bool",
          "name": "success",
          "type": "bool"
        }
      ],
      "stateMutability": "nonpayable",
      "type": "function"
    },
    {
      "inputs": [
        {
          "internalType": "address",
          "name": "from",
          "type": "address"
        },
        {
          "internalType": "address",
          "name": "to",
          "type": "address"
        },
        {
          "internalType": "uint256",
          "name": "value",
          "type": "uint256"
        }
      ],
      "name": "transferFrom",
      "outputs": [
        {
          "internalType": "bool",
          "name": "success",
          "type": "bool"
        }
      ],
      "stateMutability": "nonpayable",
      "type": "function"
    },
    {
      "stateMutability": "payable",
      "type": "receive"
    }
  ],
  "transactionHash": "0x3fb4984c16f9f9d24db72f55e422dd60fbe3c23654fe54e98c332b7f81bf5a11",
  "args": [
    "0xe35129A1E0BdB913CF6Fd8332E9d3533b5F41472"
  ],
  "solcInputHash": "d4b54f99081d42612f5f3a501b8bf888",
  "bytecode": "0x60c06040523480156200001157600080fd5b5060405162003622380380620036228339810160408190526200003491620001d4565b6001600160a01b0381166080523060a0526200006160016000805160206200360283398151915262000206565b7fe48b9bb119adfc3bccddcc581484cc6725fe8d292ebfcec7d67b1f93138d8bd8146200009257620000926200022e565b620000bf60017fe3ed9e7d534645c345f2d15f0c405f8de0227b60eb37bbeb25b26db462415ded62000206565b7fe3ed9e7d534645c345f2d15f0c405f8de0227b60eb37bbeb25b26db462415dec14620000f057620000f06200022e565b6200011d60017ff46fb7ff9ff9a406787c810524417c818e45ab2f1997f38c2555c845d23bb9f762000206565b7ff46fb7ff9ff9a406787c810524417c818e45ab2f1997f38c2555c845d23bb9f6146200014e576200014e6200022e565b6200017b60017ffd7547127f88410746fb7969b9adb4f9e9d8d2436aa2d2277b1103542deb7b8f62000206565b7ffd7547127f88410746fb7969b9adb4f9e9d8d2436aa2d2277b1103542deb7b8e14620001ac57620001ac6200022e565b50600080516020620036028339815191528054600160481b600160e81b031916905562000244565b600060208284031215620001e757600080fd5b81516001600160a01b0381168114620001ff57600080fd5b9392505050565b818103818111156200022857634e487b7160e01b600052601160045260246000fd5b92915050565b634e487b7160e01b600052600160045260246000fd5b60805160a05161339162000271600039600061074a0152600081816105a101526107f601526133916000f3fe6080604052600436106101c65760003560e01c80639245290d116100f7578063bf7e214f11610095578063ed4fd3cc11610064578063ed4fd3cc1461061e578063ed9e681c1461063e578063fb47e0161461065e578063ffa1ad741461070c576101d5565b8063bf7e214f1461058f578063d36ed298146105c3578063dd62ed3e146105e3578063df0795aa146105fe576101d5565b80639d604df6116100d15780639d604df61461052f578063a9059cbb14610303578063b390c0ab1461054f578063b45940f21461056f576101d5565b80639245290d146104d657806395d89b41146104f657806395f71b161461050b576101d5565b8063250e6de0116101645780635624b25b1161013e5780635624b25b1461041b57806370a082311461043b57806389c06568146104875780638da5cb5b146104a9576101d5565b8063250e6de0146103bd578063313ce567146103d257806342377107146103f9576101d5565b806313af4035116101a057806313af403514610336578063156e29f61461035657806318160ddd1461037757806323b872dd14610399576101d5565b8063026b1d5f146102b657806306fdde03146102e1578063095ea7b314610303576101d5565b366101d5576101d3610740565b005b60006101ec6000356001600160e01b0319166107d4565b90506001600160a01b0381166102495760405162461bcd60e51b815260206004820152601d60248201527f504f4f4c5f4d4554484f445f4e4f545f414c4c4f5745445f4552524f5200000060448201526064015b60405180910390fd5b600061025361086f565b60010154600160481b90046001600160a01b031690503660008037600081330361029657600080366000865af490503d6000803e80610291573d6000fd5b3d6000f35b600080366000865afa90503d6000803e806102b0573d6000fd5b503d6000f35b3480156102c257600080fd5b506102cb610893565b6040516102d891906129ca565b60405180910390f35b3480156102ed57600080fd5b506102f6610a1f565b6040516102d891906129dd565b34801561030f57600080fd5b5061032661031e366004612a05565b600092915050565b60405190151581526020016102d8565b34801561034257600080fd5b506101d3610351366004612a31565b610ab7565b610369610364366004612a4e565b610bdf565b6040519081526020016102d8565b34801561038357600080fd5b5060008051602061331c83398151915254610369565b3480156103a557600080fd5b506103266103b4366004612a83565b60009392505050565b3480156103c957600080fd5b506101d3610ecb565b3480156103de57600080fd5b506103e761118d565b60405160ff90911681526020016102d8565b34801561040557600080fd5b5061040e6111aa565b6040516102d89190612b14565b34801561042757600080fd5b506102f6610436366004612b22565b61125f565b34801561044757600080fd5b50610369610456366004612a31565b6001600160a01b031660009081526000805160206132fc83398151915260205260409020546001600160d01b031690565b34801561049357600080fd5b5061049c6112e5565b6040516102d89190612b44565b3480156104b557600080fd5b506104be611329565b6040516001600160a01b0390911681526020016102d8565b3480156104e257600080fd5b506101d36104f1366004612a31565b61134c565b34801561050257600080fd5b506102f661140b565b34801561051757600080fd5b50610520611555565b6040516102d893929190612b5b565b34801561053b57600080fd5b506101d361054a366004612b98565b6115d8565b34801561055b57600080fd5b5061036961056a366004612b22565b6116f1565b34801561057b57600080fd5b506101d361058a366004612bc0565b611a12565b34801561059b57600080fd5b506104be7f000000000000000000000000000000000000000000000000000000000000000081565b3480156105cf57600080fd5b506102f66105de366004612c54565b611b14565b3480156105ef57600080fd5b5061036961031e366004612cfa565b34801561060a57600080fd5b506101d3610619366004612a31565b611bbe565b34801561062a57600080fd5b506101d3610639366004612bc0565b611cba565b34801561064a57600080fd5b506101d3610659366004612d33565b611dfa565b34801561066a57600080fd5b506106e0610679366004612a31565b604080518082018252600080825260209182018190526001600160a01b039390931683526000805160206132fc8339815191528152918190208151808301909252546001600160d01b0381168252600160d01b900465ffffffffffff169181019190915290565b6040805182516001600160d01b0316815260209283015165ffffffffffff1692810192909252016102d8565b34801561071857600080fd5b506102f660405180604001604052806008815260200167484620332e312e3160c01b81525081565b6001600160a01b037f00000000000000000000000000000000000000000000000000000000000000001630036107d25760405162461bcd60e51b815260206004820152603160248201527f504f4f4c5f494d504c454d454e544154494f4e5f4449524543545f43414c4c5f6044820152702727aa2fa0a62627aba2a22fa2a92927a960791b6064820152608401610240565b565b60405163c348fa1960e01b81526001600160e01b0319821660048201526000907f00000000000000000000000000000000000000000000000000000000000000006001600160a01b03169063c348fa1990602401602060405180830381865afa158015610845573d6000803e3d6000fd5b505050506040513d601f19601f820116820180604052508101906108699190612d5c565b92915050565b7fe48b9bb119adfc3bccddcc581484cc6725fe8d292ebfcec7d67b1f93138d8bd890565b6040805160a0810182526060808252602082018190526000928201839052810182905260808101829052906108c661086f565b6040518060c00160405290816000820180546108e190612d79565b80601f016020809104026020016040519081016040528092919081815260200182805461090d90612d79565b801561095a5780601f1061092f5761010080835404028352916020019161095a565b820191906000526020600020905b81548152906001019060200180831161093d57829003601f168201915b505050918352505060018201546001600160c01b031960c082901b1660208084019190915260ff600160401b830481166040808601919091526001600160a01b03600160481b850481166060870152600160e81b9094049091161515608085015260029094015490911660a09283015282519182019092528251815291925081016109e361140b565b8152602001826040015160ff16815260200182606001516001600160a01b031681526020018260a001516001600160a01b031681525091505090565b6060610a2961086f565b8054610a3490612d79565b80601f0160208091040260200160405190810160405280929190818152602001828054610a6090612d79565b8015610aad5780601f10610a8257610100808354040283529160200191610aad565b820191906000526020600020905b815481529060010190602001808311610a9057829003601f168201915b5050505050905090565b610abf61086f565b60010154600160481b90046001600160a01b03163314610af15760405162461bcd60e51b815260040161024090612db3565b6001600160a01b038116610b475760405162461bcd60e51b815260206004820152601b60248201527f504f4f4c5f4e554c4c5f4f574e45525f494e5055545f4552524f5200000000006044820152606401610240565b6000610b5161086f565b60010154600160481b90046001600160a01b0316905081610b7061086f565b60010180547fffffff0000000000000000000000000000000000000000ffffffffffffffffff16600160481b6001600160a01b0393841602179055604051838216918316907f70aea8d848e8a90fb7661b227dc522eb6395c3dac71b63cb59edd5c9899b236490600090a35050565b600080610bea61086f565b6001810154909150600160e81b900460ff16610c3d5760405162461bcd60e51b8152602060048201526012602482015271149151539514905390d657d253131151d05360721b6044820152606401610240565b60018101805460ff60e81b191690557fe3ed9e7d534645c345f2d15f0c405f8de0227b60eb37bbeb25b26db462415ded546001600160a01b03168015610d3d57604051636c46138f60e11b81526001600160a01b03878116600483015282169063d88c271e90602401602060405180830381865afa158015610cc3573d6000803e3d6000fd5b505050506040513d601f19601f82011682018060405250810190610ce79190612dea565b610d3d5760405162461bcd60e51b815260206004820152602160248201527f504f4f4c5f43414c4c45525f4e4f545f57484954454c49535445445f4552524f6044820152602960f91b6064820152608401610240565b610d46856120e2565b6000610d5061086f565b600201546001600160a01b031603610db657843414610db15760405162461bcd60e51b815260206004820152601960248201527f504f4f4c5f4d494e545f414d4f554e54494e5f4552524f522c000000000000006044820152606401610240565b610dc1565b610dc1333087612163565b6000612710610dce6122bf565b610ddc9061ffff1688612e22565b610de69190612e39565b9050610df28187612e5b565b95506000610dfe6122f7565b610e0661118d565b610e1190600a612f52565b610e1b9089612e22565b610e259190612e39565b9050858111610e765760405162461bcd60e51b815260206004820152601d60248201527f504f4f4c5f4d494e545f4f55545055545f414d4f554e545f4552524f520000006044820152606401610240565b806000805160206132978339815191526001016000828254610e989190612f61565b90915550610ea890508882612337565b600194909401805460ff60e81b1916600160e81b17905550919695505050505050565b30803b8015610f1c5760405162461bcd60e51b815260206004820152601e60248201527f504f4f4c5f414c52454144595f494e495449414c495a45445f4552524f5200006044820152606401610240565b6000601290506000336001600160a01b031663890357306040518163ffffffff1660e01b8152600401600060405180830381865afa158015610f62573d6000803e3d6000fd5b505050506040513d6000823e601f3d908101601f19168201604052610f8a9190810190612f8c565b60608101519091506001600160a01b0316156110095780606001516001600160a01b031663313ce5676040518163ffffffff1660e01b8152600401602060405180830381865afa158015610fe2573d6000803e3d6000fd5b505050506040513d601f19601f82011682018060405250810190611006919061307c565b91505b60068260ff16101561101d5761101d61309f565b6040805160c081018252825181526020808401516001600160c01b0319169082015260ff841681830152908201516001600160a01b03908116606080840191909152600160808401528301511660a082015261107761086f565b815181906110859082613104565b5060208281015160018301805460408087015160608089015160808a015160c09790971c68ffffffffffffffffff1990951694909417600160401b60ff90931692909202919091177fffff000000000000000000000000000000000000000000ffffffffffffffffff16600160481b6001600160a01b039485160260ff60e81b191617600160e81b951515959095029490941790925560a090950151600290940180546001600160a01b0319169486169490941790935584015184830151855192860151935191851694169233927f3a2fbe8bd0946e97170fefca19055b7212080a9a7415726569908565a102f5749261117f92906131c4565b60405180910390a450505050565b600061119761086f565b60010154600160401b900460ff16919050565b6040805160a0810182526000808252602082018190529181018290526060810182905260808101919091526040518060a001604052806111e8612533565b65ffffffffffff1681526020016111fd6122bf565b61ffff1681526020016000805160206132dc83398151915254600160401b900461ffff16815260200161122e61255c565b6001600160a01b031681526020016000805160206132dc833981519152600101546001600160a01b03169052919050565b6060600061126e836020612e22565b67ffffffffffffffff81111561128657611286612be4565b6040519080825280601f01601f1916602001820160405280156112b0576020820181803683370190505b50905060005b838110156112dd5784810154602080830284010152806112d5816131f3565b9150506112b6565b509392505050565b6040805180820190915260008082526020820152604051806040016040528061130c6122f7565b815260008051602061331c83398151915254602090910152919050565b600061133361086f565b60010154600160481b90046001600160a01b0316919050565b61135461086f565b60010154600160481b90046001600160a01b031633146113865760405162461bcd60e51b815260040161024090612db3565b806000805160206132dc83398151915280547fffff0000000000000000000000000000000000000000ffffffffffffffffffff16600160501b6001600160a01b03938416021790556040519082168152309033907fe0f5eb53a7506b986f120aada1efae98697a4d8af5d520a2b826beec9b73e31c906020015b60405180910390a350565b6060600061141761086f565b6001015460c01b905060005b60088160ff161080156114575750818160ff16600881106114465761144661320c565b1a60f81b6001600160f81b03191615155b1561146e578061146681613222565b915050611423565b60008160ff1667ffffffffffffffff81111561148c5761148c612be4565b6040519080825280601f01601f1916602001820160405280156114b6576020820181803683370190505b509050600091505b60088260ff161080156114f25750828260ff16600881106114e1576114e161320c565b1a60f81b6001600160f81b03191615155b1561154e57828260ff166008811061150c5761150c61320c565b1a60f81b818360ff16815181106115255761152561320c565b60200101906001600160f81b031916908160001a9053508161154681613222565b9250506114be565b9392505050565b6040805160a08082018352606080835260208084018290526000848601819052828501819052608080860182905286519485018752818552848301829052848701829052928401819052918301829052845180860190955281855284015290916115bd610893565b6115c56111aa565b6115cd6112e5565b925092509250909192565b6115e061086f565b60010154600160481b90046001600160a01b031633146116125760405162461bcd60e51b815260040161024090612db3565b600265ffffffffffff821610801590611636575062278d0065ffffffffffff821611155b61168e5760405162461bcd60e51b815260206004820152602360248201527f504f4f4c5f4348414e47455f4d494e5f4c4f434b55505f504552494f445f45526044820152622927a960e91b6064820152608401610240565b806000805160206132dc833981519152805465ffffffffffff191665ffffffffffff928316179055604051908216815230907f65abe17b1ab4c20dc5e52c5b9476b5898c128ee188e0ecc71e0b18c7498e06b5906020015b60405180910390a250565b6000806116fc61086f565b6001810154909150600160e81b900460ff1661174f5760405162461bcd60e51b8152602060048201526012602482015271149151539514905390d657d253131151d05360721b6044820152606401610240565b60018101805460ff60e81b19169055836117ab5760405162461bcd60e51b815260206004820152601b60248201527f504f4f4c5f4255524e5f4e554c4c5f414d4f554e545f4552524f5200000000006044820152606401610240565b60006000805160206132fc83398151915233600090815260209182526040908190208151808301909252546001600160d01b038116808352600160d01b90910465ffffffffffff1692820192909252915085111561184b5760405162461bcd60e51b815260206004820152601a60248201527f504f4f4c5f4255524e5f4e4f545f454e4f5547485f4552524f520000000000006044820152606401610240565b806020015165ffffffffffff164210156118b35760405162461bcd60e51b8152602060048201526024808201527f504f4f4c5f4d494e494d554d5f504552494f445f4e4f545f454e4f5547485f45604482015263292927a960e11b6064820152608401610240565b60006118be866125a5565b90508060008051602061329783398151915260010160008282546118e29190612e5b565b90915550600090506127106118f56122bf565b6119039061ffff1684612e22565b61190d9190612e39565b90506119198183612e5b565b915061192361118d565b61192e90600a612f52565b6119366122f7565b6119409084612e22565b61194a9190612e39565b94508585101561199c5760405162461bcd60e51b815260206004820152601d60248201527f504f4f4c5f4255524e5f4f55545055545f414d4f554e545f4552524f520000006044820152606401610240565b60006119a661086f565b600201546001600160a01b0316036119eb57604051339086156108fc029087906000818181858888f193505050501580156119e5573d6000803e3d6000fd5b506119f5565b6119f533866127bc565b505050600101805460ff60e81b1916600160e81b17905592915050565b611a1a61086f565b60010154600160481b90046001600160a01b03163314611a4c5760405162461bcd60e51b815260040161024090612db3565b606461ffff82161115611ab05760405162461bcd60e51b815260206004820152602660248201527f504f4f4c5f4645455f4849474845525f5448414e5f4f4e455f50455243454e546044820152652fa2a92927a960d11b6064820152608401610240565b806000805160206132dc833981519152805469ffff00000000000000001916600160401b61ffff938416021790556040519082168152309033907f898ff9e005b9e94b9d353956416e9cd2a7f6c2e09cfb8357b17978aa18ba8f7490602001611400565b6060600082516020611b269190612e22565b67ffffffffffffffff811115611b3e57611b3e612be4565b6040519080825280601f01601f191660200182016040528015611b68576020820181803683370190505b50905060005b8351811015611bb7576000848281518110611b8b57611b8b61320c565b602002602001015190508054806020840260208601015250508080611baf906131f3565b915050611b6e565b5092915050565b611bc661086f565b60010154600160481b90046001600160a01b03163314611bf85760405162461bcd60e51b815260040161024090612db3565b6001600160a01b0381163b611c4f5760405162461bcd60e51b815260206004820152601d60248201527f504f4f4c5f494e5055545f4e4f545f434f4e54524143545f4552524f520000006044820152606401610240565b7fe3ed9e7d534645c345f2d15f0c405f8de0227b60eb37bbeb25b26db462415ded80546001600160a01b0319166001600160a01b03831690811790915560405130907f173da1498f2256abc1e3ecd01e05f37e663bbd61a3d38e44448faf6105df01f290600090a350565b611cc261086f565b60010154600160481b90046001600160a01b03163314611cf45760405162461bcd60e51b815260040161024090612db3565b60008161ffff1611611d415760405162461bcd60e51b81526020600482015260166024820152752827a7a62fa9a82922a0a22fa72aa6262fa2a92927a960511b6044820152606401610240565b6103e861ffff82161115611d975760405162461bcd60e51b815260206004820152601a60248201527f504f4f4c5f5350524541445f544f4f5f484947485f4552524f520000000000006044820152606401610240565b806000805160206132dc833981519152805467ffff0000000000001916660100000000000061ffff93841602179055604051908216815230907ff56e6a717bc79dc6398f1af61c9c98f532f4697315891b2b23cac09aca95dd2a906020016116e6565b611e0261086f565b60010154600160481b90046001600160a01b03163314611e345760405162461bcd60e51b815260040161024090612db3565b80611e3d6122f7565b611e48906005612e22565b81108015611e6857506005611e5b6122f7565b611e659190612e39565b81115b611ead5760405162461bcd60e51b81526020600482015260166024820152752827a7a62fa4a7282aaa2fab20a62aa2afa2a92927a960511b6044820152606401610240565b60008051602061331c83398151915254611f025760405162461bcd60e51b81526020600482015260166024820152752827a7a62fa9aaa828262cafa72aa6262fa2a92927a960511b6044820152606401610240565b60006064611f0e61118d565b611f1990600a612f52565b60008051602061331c83398151915254611f339086612e22565b611f3d9190612e39565b611f479190612e39565b611f52906003612e22565b90506000611f5e61086f565b600201546001600160a01b031603611fd15780471015611fcc5760405162461bcd60e51b815260206004820152602360248201527f504f4f4c5f43555252454e43595f42414c414e43455f544f4f5f4c4f575f45526044820152622927a960e91b6064820152608401610240565b612095565b80611fda61086f565b600201546040516370a0823160e01b81523060048201526001600160a01b03909116906370a0823190602401602060405180830381865afa158015612023573d6000803e3d6000fd5b505050506040513d601f19601f820116820180604052508101906120479190613241565b10156120955760405162461bcd60e51b815260206004820181905260248201527f504f4f4c5f544f4b454e5f42414c414e43455f544f4f5f4c4f575f4552524f526044820152606401610240565b8260008051602061329783398151915255604051838152309033907f2cddeba55c7c26241fb3a9428659ae9ecd59df0f2895a705f074f17473009c539060200160405180910390a3505050565b6103e86120ed61118d565b6120f890600a612f52565b6121029190612e39565b8110156121605760405162461bcd60e51b815260206004820152602660248201527f504f4f4c5f414d4f554e545f534d414c4c45525f5448414e5f4d494e494d554d6044820152652fa2a92927a960d11b6064820152608401610240565b50565b60008061216e61086f565b60020154604080516060810190915260258082526001600160a01b03909216916132b7602083013980516020909101206040516001600160a01b038089166024830152871660448201526064810186905260840160408051601f198184030181529181526020820180516001600160e01b03166001600160e01b0319909416939093179092529051612200919061325a565b6000604051808303816000865af19150503d806000811461223d576040519150601f19603f3d011682016040523d82523d6000602084013e612242565b606091505b509150915081801561226c57508051158061226c57508080602001905181019061226c9190612dea565b6122b85760405162461bcd60e51b815260206004820152601f60248201527f504f4f4c5f5452414e534645525f46524f4d5f4641494c45445f4552524f52006044820152606401610240565b5050505050565b6000805160206132dc833981519152546000906601000000000000900461ffff168082036122ef576101f46122f1565b805b91505090565b600080516020613297833981519152546000908082036122ef5761231961086f565b6001015461233290600160401b900460ff16600a612f52565b6122f1565b6001600160a01b03821660009081526000805160206132fc8339815191526020819052604082205483926001600160d01b0390911690612375612533565b4201905060006000805160206132dc83398151915254600160401b900461ffff16905080156124a75760006123a861255c565b9050876001600160a01b0316816001600160a01b0316036123cc57928501926124a1565b6001600160a01b0381166000908152602086905260408120546001600160d01b03169061271061240061ffff86168b612e22565b61240a9190612e39565b90506124168189612e5b565b6040805180820182526001600160d01b03948401858116825265ffffffffffff808a1660208085019182526001600160a01b038a166000818152918f905286822095519251909316600160d01b0291909816179092559151929a50978a01979093909160008051602061333c833981519152906124969085815260200190565b60405180910390a350505b506124ac565b918401915b6040805180820182526001600160d01b03808616825265ffffffffffff80861660208085019182526001600160a01b038d166000818152918b905286822095519251909316600160d01b029190931617909255915190919060008051602061333c833981519152906125219089815260200190565b60405180910390a35050505092915050565b6000805160206132dc8339815191525460009065ffffffffffff168082036122ef5760026122f1565b6000805160206132dc83398151915254600090600160501b90046001600160a01b0316806122ef5761258c61086f565b60010154600160481b90046001600160a01b03166122f1565b3360009081526000805160206132fc83398151915260208190526040909120546000805160206132dc833981519152548392916001600160d01b031690600160401b900461ffff16156127335760006125fc61255c565b90506001600160a01b038116330361261f576126188483613276565b915061272d565b60006127106000805160206132dc8339815191525461264990600160401b900461ffff1688612e22565b6126539190612e39565b905061265f8186612e5b565b945061266b8584613276565b6001600160a01b038316600090815260208681526040918290205482518084019093526001600160d01b039081168501908116835292955042600181810193928301916126b791612f61565b65ffffffffffff9081169091526001600160a01b038616600081815260208a815260409182902085519590910151909316600160d01b026001600160d01b03909416939093179091559051339060008051602061333c833981519152906127219087815260200190565b60405180910390a35050505b50612740565b61273d8382613276565b90505b806001600160d01b0316600003612766573360009081526020839052604081205561278f565b33600090815260208390526040902080546001600160d01b0319166001600160d01b0383161790555b604051838152600090339060008051602061333c8339815191529060200160405180910390a35050919050565b6000806127c761086f565b60020154604080518082018252601981527f7472616e7366657228616464726573732c75696e74323536290000000000000060209182015281516001600160a01b0388811660248301526044808301899052845180840390910181526064909201845291810180516001600160e01b031663a9059cbb60e01b1790529151921691612852919061325a565b6000604051808303816000865af19150503d806000811461288f576040519150601f19603f3d011682016040523d82523d6000602084013e612894565b606091505b50915091508180156128be5750805115806128be5750808060200190518101906128be9190612dea565b61290a5760405162461bcd60e51b815260206004820152601a60248201527f504f4f4c5f5452414e534645525f4641494c45445f4552524f520000000000006044820152606401610240565b50505050565b60005b8381101561292b578181015183820152602001612913565b50506000910152565b6000815180845261294c816020860160208601612910565b601f01601f19169290920160200192915050565b6000815160a0845261297560a0850182612934565b90506020830151848203602086015261298e8282612934565b60408581015160ff16908701526060808601516001600160a01b0390811691880191909152608095860151169490950193909352509192915050565b60208152600061154e6020830184612960565b60208152600061154e6020830184612934565b6001600160a01b038116811461216057600080fd5b60008060408385031215612a1857600080fd5b8235612a23816129f0565b946020939093013593505050565b600060208284031215612a4357600080fd5b813561154e816129f0565b600080600060608486031215612a6357600080fd5b8335612a6e816129f0565b95602085013595506040909401359392505050565b600080600060608486031215612a9857600080fd5b8335612aa3816129f0565b92506020840135612ab3816129f0565b929592945050506040919091013590565b805165ffffffffffff16825260208082015161ffff90811691840191909152604080830151909116908301526060808201516001600160a01b039081169184019190915260809182015116910152565b60a081016108698284612ac4565b60008060408385031215612b3557600080fd5b50508035926020909101359150565b815181526020808301519082015260408101610869565b6000610100808352612b6f81840187612960565b915050612b7f6020830185612ac4565b825160c0830152602083015160e0830152949350505050565b600060208284031215612baa57600080fd5b813565ffffffffffff8116811461154e57600080fd5b600060208284031215612bd257600080fd5b813561ffff8116811461154e57600080fd5b634e487b7160e01b600052604160045260246000fd5b6040516080810167ffffffffffffffff81118282101715612c1d57612c1d612be4565b60405290565b604051601f8201601f1916810167ffffffffffffffff81118282101715612c4c57612c4c612be4565b604052919050565b60006020808385031215612c6757600080fd5b823567ffffffffffffffff80821115612c7f57600080fd5b818501915085601f830112612c9357600080fd5b813581811115612ca557612ca5612be4565b8060051b9150612cb6848301612c23565b8181529183018401918481019088841115612cd057600080fd5b938501935b83851015612cee57843582529385019390850190612cd5565b98975050505050505050565b60008060408385031215612d0d57600080fd5b8235612d18816129f0565b91506020830135612d28816129f0565b809150509250929050565b600060208284031215612d4557600080fd5b5035919050565b8051612d57816129f0565b919050565b600060208284031215612d6e57600080fd5b815161154e816129f0565b600181811c90821680612d8d57607f821691505b602082108103612dad57634e487b7160e01b600052602260045260246000fd5b50919050565b6020808252601e908201527f504f4f4c5f43414c4c45525f49535f4e4f545f4f574e45525f4552524f520000604082015260600190565b600060208284031215612dfc57600080fd5b8151801515811461154e57600080fd5b634e487b7160e01b600052601160045260246000fd5b808202811582820484141761086957610869612e0c565b600082612e5657634e487b7160e01b600052601260045260246000fd5b500490565b8181038181111561086957610869612e0c565b600181815b80851115612ea9578160001904821115612e8f57612e8f612e0c565b80851615612e9c57918102915b93841c9390800290612e73565b509250929050565b600082612ec057506001610869565b81612ecd57506000610869565b8160018114612ee35760028114612eed57612f09565b6001915050610869565b60ff841115612efe57612efe612e0c565b50506001821b610869565b5060208310610133831016604e8410600b8410161715612f2c575081810a610869565b612f368383612e6e565b8060001904821115612f4a57612f4a612e0c565b029392505050565b600061154e60ff841683612eb1565b8082018082111561086957610869612e0c565b80516001600160c01b031981168114612d5757600080fd5b60006020808385031215612f9f57600080fd5b825167ffffffffffffffff80821115612fb757600080fd5b9084019060808287031215612fcb57600080fd5b612fd3612bfa565b825182811115612fe257600080fd5b8301601f81018813612ff357600080fd5b80518381111561300557613005612be4565b613017601f8201601f19168701612c23565b9350808452888682840101111561302d57600080fd5b61303c81878601888501612910565b505081815261304c848401612f74565b8482015261305c60408401612d4c565b604082015261306d60608401612d4c565b60608201529695505050505050565b60006020828403121561308e57600080fd5b815160ff8116811461154e57600080fd5b634e487b7160e01b600052600160045260246000fd5b601f8211156130ff57600081815260208120601f850160051c810160208610156130dc5750805b601f850160051c820191505b818110156130fb578281556001016130e8565b5050505b505050565b815167ffffffffffffffff81111561311e5761311e612be4565b6131328161312c8454612d79565b846130b5565b602080601f831160018114613167576000841561314f5750858301515b600019600386901b1c1916600185901b1785556130fb565b600085815260208120601f198616915b8281101561319657888601518255948401946001909101908401613177565b50858210156131b45787850151600019600388901b60f8161c191681555b5050505050600190811b01905550565b6040815260006131d76040830185612934565b905067ffffffffffffffff60c01b831660208301529392505050565b60006001820161320557613205612e0c565b5060010190565b634e487b7160e01b600052603260045260246000fd5b600060ff821660ff810361323857613238612e0c565b60010192915050565b60006020828403121561325357600080fd5b5051919050565b6000825161326c818460208701612910565b9190910192915050565b6001600160d01b03828116828216039080821115611bb757611bb7612e0c56fef46fb7ff9ff9a406787c810524417c818e45ab2f1997f38c2555c845d23bb9f67472616e7366657246726f6d28616464726573732c616464726573732c75696e7432353629e3ed9e7d534645c345f2d15f0c405f8de0227b60eb37bbeb25b26db462415decfd7547127f88410746fb7969b9adb4f9e9d8d2436aa2d2277b1103542deb7b8ef46fb7ff9ff9a406787c810524417c818e45ab2f1997f38c2555c845d23bb9f7ddf252ad1be2c89b69c2b068fc378daa952ba7f163c4a11628f55a4df523b3efa26469706673582212208119bf31da7d540dfbeeb6695498dd4e856931bd1089885509f5c7686b5763f364736f6c63430008110033e48b9bb119adfc3bccddcc581484cc6725fe8d292ebfcec7d67b1f93138d8bd9",
  "devdoc": {
    "author": "Gabriele Rigo - <gab@rigoblock.com>",
    "kind": "dev",
    "methods": {
      "allowance(address,address)": {
        "details": "Non-implemented ERC20 method."
      },
      "approve(address,uint256)": {
        "details": "Non-implemented ERC20 method."
      },
      "balanceOf(address)": {
        "details": "Returns how many pool tokens a user holds.",
        "params": {
          "who": "Address of the target account."
        },
        "returns": {
          "_0": "Number of pool."
        }
      },
      "burn(uint256,uint256)": {
        "params": {
          "amountIn": "Number of tokens to burn.",
          "amountOutMin": "Minimum amount to be received, prevents pool operator frontrunning."
        },
        "returns": {
          "netRevenue": "Net amount of burnt pool tokens."
        }
      },
      "changeFeeCollector(address)": {
        "params": {
          "feeCollector": "Address of the fee receiver."
        }
      },
      "changeMinPeriod(uint48)": {
        "params": {
          "minPeriod": "Time in seconds."
        }
      },
      "changeSpread(uint16)": {
        "params": {
          "newSpread": "Number between 0 and 1000, in basis points."
        }
      },
      "decimals()": {
        "returns": {
          "_0": "Number of decimals."
        }
      },
      "getPool()": {
        "details": "Symbol is stored as bytes8 but returned as string in the returned struct, unlocked is omitted as alwasy true.",
        "returns": {
          "_0": "ReturnedPool struct."
        }
      },
      "getPoolParams()": {
        "returns": {
          "_0": "PoolParams struct."
        }
      },
      "getPoolStorage()": {
        "returns": {
          "poolInitParams": "The pool's initialization parameters.",
          "poolTokensInfo": "The pool's tokens info.",
          "poolVariables": "The pool's variables."
        }
      },
      "getPoolTokens()": {
        "returns": {
          "_0": "PoolTokens struct."
        }
      },
      "getStorageAt(uint256,uint256)": {
        "params": {
          "length": "- the number of words (32 bytes) of data to read.",
          "offset": "- the offset in the current contract's storage in words to start reading from."
        },
        "returns": {
          "_0": "Bytes string of the bytes that were read."
        }
      },
      "getStorageSlotsAt(uint256[])": {
        "details": "Returns a string with values regarless of where they are stored, i.e. variable, mapping or struct.",
        "params": {
          "slots": "The array of storage slots to query into."
        },
        "returns": {
          "_0": "Bytes string composite of different storage locations' value."
        }
      },
      "initializePool()": {
        "details": "Pool can only be initialized at creation, meaning this method cannot be called directly to implementation."
      },
      "mint(address,uint256,uint256)": {
        "params": {
          "amountIn": "Amount of base tokens.",
          "amountOutMin": "Minimum amount to be received, prevents pool operator frontrunning.",
          "recipient": "Address receiving the tokens."
        },
        "returns": {
          "recipientAmount": "Number of tokens minted to recipient."
        }
      },
      "name()": {
        "details": "Name maximum length 31 bytes.",
        "returns": {
          "_0": "String of the name."
        }
      },
      "owner()": {
        "returns": {
          "_0": "Address of the owner."
        }
      },
      "setKycProvider(address)": {
        "details": "Kyc provider can be set to null, removing user whitelist requirement.",
        "params": {
          "kycProvider": "Address if the kyc provider."
        }
      },
      "setOwner(address)": {
        "details": "Method restricted to owner.",
        "params": {
          "newOwner": "Address of the new owner."
        }
      },
      "setTransactionFee(uint16)": {
        "params": {
          "transactionFee": "Value of the transaction fee in basis points."
        }
      },
      "setUnitaryValue(uint256)": {
        "params": {
          "unitaryValue": "Value of 1 token in wei units."
        }
      },
      "symbol()": {
        "returns": {
          "_0": "String of the symbol."
        }
      },
      "totalSupply()": {
        "returns": {
          "_0": "Number of total issued tokens."
        }
      },
      "transfer(address,uint256)": {
        "details": "Non-implemented ERC20 method."
      },
      "transferFrom(address,address,uint256)": {
        "details": "Non-implemented ERC20 method."
      }
    },
    "title": "RigoblockV3Pool - A set of rules for Rigoblock pools.",
    "version": 1
  },
  "userdoc": {
    "events": {
      "Approval(address,address,uint256)": {
        "notice": "Emitted when a token holder sets and approval."
      },
      "KycProviderSet(address,address)": {
        "notice": "Emitted when pool operator sets a kyc provider."
      },
      "MinimumPeriodChanged(address,uint48)": {
        "notice": "Emitted when pool operator updates minimum holding period."
      },
      "NewCollector(address,address,address)": {
        "notice": "Emitted when pool operator updates fee collector address."
      },
      "NewFee(address,address,uint16)": {
        "notice": "Emitted when pool operator sets new mint fee."
      },
      "NewNav(address,address,uint256)": {
        "notice": "Emitted when pool operator updates NAV."
      },
      "NewOwner(address,address)": {
        "notice": "Emitted when new owner is set."
      },
      "PoolInitialized(address,address,address,string,bytes8)": {
        "notice": "Emitted when a new pool is initialized."
      },
      "SpreadChanged(address,uint16)": {
        "notice": "Emitted when pool operator updates the mint/burn spread."
      },
      "Transfer(address,address,uint256)": {
        "notice": "Emitted when a token is transferred."
      }
    },
    "kind": "user",
    "methods": {
      "VERSION()": {
        "notice": "Returns a string of the pool version."
      },
      "authority()": {
        "notice": "Returns the address of the authority contract."
      },
      "burn(uint256,uint256)": {
        "notice": "Allows a pool holder to burn pool tokens."
      },
      "changeFeeCollector(address)": {
        "notice": "Allows owner to decide where to receive the fee."
      },
      "changeMinPeriod(uint48)": {
        "notice": "Allows pool owner to change the minimum holding period."
      },
      "changeSpread(uint16)": {
        "notice": "Allows pool owner to change the mint/burn spread."
      },
      "constructor": {
        "notice": "Owner is initialized to 0 to lock owner actions in this implementation.Kyc provider set as will effectively lock direct mint/burn actions."
      },
      "decimals()": {
        "notice": "Decimals are initialized at proxy creation."
      },
      "getPool()": {
        "notice": "Returns the struct containing pool initialization parameters."
      },
      "getPoolParams()": {
        "notice": "Returns the struct compaining pool parameters."
      },
      "getPoolStorage()": {
        "notice": "Returns the aggregate pool generic storage."
      },
      "getPoolTokens()": {
        "notice": "Returns the struct containing pool tokens info."
      },
      "getStorageAt(uint256,uint256)": {
        "notice": "Reads `length` bytes of storage in the currents contract."
      },
      "getStorageSlotsAt(uint256[])": {
        "notice": "Reads bytes of storage at different storage locations."
      },
      "initializePool()": {
        "notice": "Initializes to pool storage."
      },
      "mint(address,uint256,uint256)": {
        "notice": "Allows a user to mint pool tokens on behalf of an address."
      },
      "name()": {
        "notice": "Returns a string of the pool name."
      },
      "owner()": {
        "notice": "Returns the address of the owner."
      },
      "setKycProvider(address)": {
        "notice": "Allows pool owner to set/update the user whitelist contract."
      },
      "setOwner(address)": {
        "notice": "Allows pool owner to set a new owner address."
      },
      "setTransactionFee(uint16)": {
        "notice": "Allows pool owner to set the transaction fee."
      },
      "setUnitaryValue(uint256)": {
        "notice": "Allows pool owner to set the pool price."
      },
      "symbol()": {
        "notice": "Returns a string of the pool symbol."
      },
      "totalSupply()": {
        "notice": "Returns the total amount of issued tokens for this pool."
      }
    },
    "version": 1
  },
  "storageLayout": {
    "storage": [],
    "types": null
  }
}