{
  "address": "0x919e73912510Ee303A52C6A7ddAEbB4ffE2376a1",
  "abi": [
    {
      "inputs": [
        {
          "internalType": "address",
          "name": "newGrgVault",
          "type": "address"
        },
        {
          "internalType": "address",
          "name": "newStakingProxy",
          "type": "address"
        }
      ],
      "stateMutability": "nonpayable",
      "type": "constructor"
    },
    {
      "anonymous": false,
      "inputs": [
        {
          "indexed": true,
          "internalType": "address",
          "name": "from",
          "type": "address"
        },
        {
          "indexed": true,
          "internalType": "address",
          "name": "to",
          "type": "address"
        },
        {
          "indexed": true,
          "internalType": "address",
          "name": "token",
          "type": "address"
        },
        {
          "indexed": false,
          "internalType": "uint256",
          "name": "amount",
          "type": "uint256"
        }
      ],
      "name": "SelfCustodyTransfer",
      "type": "event"
    },
    {
      "inputs": [],
      "name": "grgVault",
      "outputs": [
        {
          "internalType": "address",
          "name": "",
          "type": "address"
        }
      ],
      "stateMutability": "view",
      "type": "function"
    },
    {
      "inputs": [
        {
          "internalType": "address",
          "name": "targetPool",
          "type": "address"
        }
      ],
      "name": "poolGrgShortfall",
      "outputs": [
        {
          "internalType": "uint256",
          "name": "",
          "type": "uint256"
        }
      ],
      "stateMutability": "view",
      "type": "function"
    },
    {
      "inputs": [
        {
          "internalType": "address payable",
          "name": "selfCustodyAccount",
          "type": "address"
        },
        {
          "internalType": "address",
          "name": "token",
          "type": "address"
        },
        {
          "internalType": "uint256",
          "name": "amount",
          "type": "uint256"
        }
      ],
      "name": "transferToSelfCustody",
      "outputs": [
        {
          "internalType": "uint256",
          "name": "shortfall",
          "type": "uint256"
        }
      ],
      "stateMutability": "nonpayable",
      "type": "function"
    }
  ],
  "transactionHash": "0xceae94af2b93fdc1416d348e23d405ff7fe47b17589f09cc00efe976f2f7b8fc",
  "args": [
    "0x58b5FBe3e8F86a3f22BB9e47129a9FDE4702c221",
    "0x6C4594aa0CBcb8315E88EFdb11675c09A7a5f444"
  ],
  "solcInputHash": "656e34d5c2c173c2d18ee1cf3ed6b924",
  "bytecode": "0x60e060405234801561001057600080fd5b506040516108dd3803806108dd83398101604081905261002f91610066565b6001600160a01b039182166080521660a0523060c052610099565b80516001600160a01b038116811461006157600080fd5b919050565b6000806040838503121561007957600080fd5b6100828361004a565b91506100906020840161004a565b90509250929050565b60805160a05160c0516108106100cd600039600060c3015260006102c2015260008181607101526103f501526108106000f3fe608060405234801561001057600080fd5b50600436106100415760003560e01c8063318698a7146100465780634f8554da1461006c5780636d6b09e9146100ab575b600080fd5b610059610054366004610655565b6100be565b6040519081526020015b60405180910390f35b6100937f000000000000000000000000000000000000000000000000000000000000000081565b6040516001600160a01b039091168152602001610063565b6100596100b9366004610696565b6102bd565b6000307f00000000000000000000000000000000000000000000000000000000000000006001600160a01b0316036100f8576100f86106b3565b8160000361014d5760405162461bcd60e51b815260206004820152601e60248201527f4153454c46435553544f44595f4e554c4c5f414d4f554e545f4552524f52000060448201526064015b60405180910390fd5b610156306102bd565b90508060000361026e576001600160a01b038316610207578147116101cb5760405162461bcd60e51b815260206004820152602560248201527f4153454c46435553544f44595f42414c414e43455f4e4f545f454e4f5547485f60448201526422a92927a960d91b6064820152608401610144565b6040516001600160a01b0385169083156108fc029084906000818181858888f19350505050158015610201573d6000803e3d6000fd5b50610212565b6102128385846104e7565b826001600160a01b0316846001600160a01b0316306001600160a01b03167f88ae8ade7cac5f1fe6c316af2f87a2546b48305ead5fb83994e495375ffc8d4c8560405161026191815260200190565b60405180910390a46102b6565b60405162461bcd60e51b815260206004820152601e60248201527f4153454c46435553544f44595f4d494e494d554d5f4752475f4552524f5200006044820152606401610144565b9392505050565b6000807f0000000000000000000000000000000000000000000000000000000000000000604051637fa140c760e01b81526001600160a01b038581166004830152919250600091831690637fa140c790602401602060405180830381865afa15801561032d573d6000803e3d6000fd5b505050506040513d601f19601f8201168201806040525081019061035191906106c9565b604051631f256b9960e11b8152600481018290529091506000906001600160a01b03841690633e4ad73290602401606060405180830381865afa15801561039c573d6000803e3d6000fd5b505050506040513d601f19601f820116820180604052508101906103c09190610703565b602001516040516370a0823160e01b81526001600160a01b0387811660048301526bffffffffffffffffffffffff90921692507f0000000000000000000000000000000000000000000000000000000000000000909116906370a0823190602401602060405180830381865afa15801561043e573d6000803e3d6000fd5b505050506040513d601f19601f8201168201806040525081019061046291906106c9565b81146104c05760405162461bcd60e51b815260206004820152602760248201527f4153454c46435553544f44595f4752475f42414c414e43455f4d49534d415443604482015266242fa2a92927a960c91b6064820152608401610144565b69152d02c7e14af68000008082106104de5750600095945050505050565b03949350505050565b604080518082018252601981527f7472616e7366657228616464726573732c75696e74323536290000000000000060209182015281516001600160a01b0385811660248301526044808301869052845180840390910181526064909201845291810180516001600160e01b031663a9059cbb60e01b179052915160009283928716916105739190610789565b6000604051808303816000865af19150503d80600081146105b0576040519150601f19603f3d011682016040523d82523d6000602084013e6105b5565b606091505b50915091508180156105df5750805115806105df5750808060200190518101906105df91906107b8565b6106365760405162461bcd60e51b815260206004820152602260248201527f4153454c46435553544f44595f5452414e534645525f4641494c45445f45525260448201526127a960f11b6064820152608401610144565b5050505050565b6001600160a01b038116811461065257600080fd5b50565b60008060006060848603121561066a57600080fd5b83356106758161063d565b925060208401356106858161063d565b929592945050506040919091013590565b6000602082840312156106a857600080fd5b81356102b68161063d565b634e487b7160e01b600052600160045260246000fd5b6000602082840312156106db57600080fd5b5051919050565b80516bffffffffffffffffffffffff811681146106fe57600080fd5b919050565b60006060828403121561071557600080fd5b6040516060810167ffffffffffffffff828210818311171561074757634e487b7160e01b600052604160045260246000fd5b8160405284519150808216821461075d57600080fd5b50815261076c602084016106e2565b602082015261077d604084016106e2565b60408201529392505050565b6000825160005b818110156107aa5760208186018101518583015201610790565b506000920191825250919050565b6000602082840312156107ca57600080fd5b815180151581146102b657600080fdfea264697066735822122031a75bf1ba32ebca39c2e64c0ee6656dd1bff5c85160e208cc5fe7eb533fe3a064736f6c63430008110033",
  "devdoc": {
    "author": "Gabriele Rigo - <gab@rigoblock.com>",
    "kind": "dev",
    "methods": {
      "poolGrgShortfall(address)": {
        "params": {
          "poolAddress": "Address of the pool to assert shortfall for."
        },
        "returns": {
          "_0": "Number of GRG pool operator shortfall."
        }
      },
      "transferToSelfCustody(address,address,uint256)": {
        "params": {
          "amount": "Number of tokens.",
          "selfCustodyAccount": "Address of the target account.",
          "token": "Address of the target token."
        },
        "returns": {
          "shortfall": "Number of GRG pool operator shortfall."
        }
      }
    },
    "stateVariables": {
      "grgVault": {
        "return": "Address of the GRG vault contract.",
        "returns": {
          "_0": "Address of the GRG vault contract."
        }
      }
    },
    "title": "Self Custody adapter - A helper contract for self custody.",
    "version": 1
  },
  "userdoc": {
    "events": {
      "SelfCustodyTransfer(address,address,address,uint256)": {
        "notice": "Emitted when tokens are transferred to self custody."
      }
    },
    "kind": "user",
    "methods": {
      "grgVault()": {
        "notice": "Returns the address of the GRG vault contract."
      },
      "poolGrgShortfall(address)": {
        "notice": "external check if minimum pool GRG amount requirement satisfied."
      },
      "transferToSelfCustody(address,address,uint256)": {
        "notice": "transfers ETH or tokens to self custody."
      }
    },
    "version": 1
  },
  "storageLayout": {
    "storage": [],
    "types": null
  }
}