{
  "address": "0xE5D8204f8335e9786ea7Ce382771B865fE73a304",
  "abi": [
    {
      "inputs": [],
      "stateMutability": "nonpayable",
      "type": "constructor"
    },
    {
      "anonymous": false,
      "inputs": [
        {
          "indexed": false,
          "internalType": "address",
          "name": "proposer",
          "type": "address"
        },
        {
          "indexed": false,
          "internalType": "uint256",
          "name": "proposalId",
          "type": "uint256"
        },
        {
          "components": [
            {
              "internalType": "address",
              "name": "target",
              "type": "address"
            },
            {
              "internalType": "bytes",
              "name": "data",
              "type": "bytes"
            },
            {
              "internalType": "uint256",
              "name": "value",
              "type": "uint256"
            }
          ],
          "indexed": false,
          "internalType": "struct IGovernanceVoting.ProposedAction[]",
          "name": "actions",
          "type": "tuple[]"
        },
        {
          "indexed": false,
          "internalType": "uint256",
          "name": "startBlockOrTime",
          "type": "uint256"
        },
        {
          "indexed": false,
          "internalType": "uint256",
          "name": "endBlockOrTime",
          "type": "uint256"
        },
        {
          "indexed": false,
          "internalType": "string",
          "name": "description",
          "type": "string"
        }
      ],
      "name": "ProposalCreated",
      "type": "event"
    },
    {
      "anonymous": false,
      "inputs": [
        {
          "indexed": false,
          "internalType": "uint256",
          "name": "proposalId",
          "type": "uint256"
        }
      ],
      "name": "ProposalExecuted",
      "type": "event"
    },
    {
      "anonymous": false,
      "inputs": [
        {
          "indexed": false,
          "internalType": "address",
          "name": "newStrategy",
          "type": "address"
        }
      ],
      "name": "StrategyUpgraded",
      "type": "event"
    },
    {
      "anonymous": false,
      "inputs": [
        {
          "indexed": false,
          "internalType": "uint256",
          "name": "proposalThreshold",
          "type": "uint256"
        },
        {
          "indexed": false,
          "internalType": "uint256",
          "name": "quorumThreshold",
          "type": "uint256"
        }
      ],
      "name": "ThresholdsUpdated",
      "type": "event"
    },
    {
      "anonymous": false,
      "inputs": [
        {
          "indexed": true,
          "internalType": "address",
          "name": "newImplementation",
          "type": "address"
        }
      ],
      "name": "Upgraded",
      "type": "event"
    },
    {
      "anonymous": false,
      "inputs": [
        {
          "indexed": false,
          "internalType": "address",
          "name": "voter",
          "type": "address"
        },
        {
          "indexed": false,
          "internalType": "uint256",
          "name": "proposalId",
          "type": "uint256"
        },
        {
          "indexed": false,
          "internalType": "enum IGovernanceVoting.VoteType",
          "name": "voteType",
          "type": "uint8"
        },
        {
          "indexed": false,
          "internalType": "uint256",
          "name": "votingPower",
          "type": "uint256"
        }
      ],
      "name": "VoteCast",
      "type": "event"
    },
    {
      "inputs": [
        {
          "internalType": "uint256",
          "name": "proposalId",
          "type": "uint256"
        },
        {
          "internalType": "enum IGovernanceVoting.VoteType",
          "name": "voteType",
          "type": "uint8"
        }
      ],
      "name": "castVote",
      "outputs": [],
      "stateMutability": "nonpayable",
      "type": "function"
    },
    {
      "inputs": [
        {
          "internalType": "uint256",
          "name": "proposalId",
          "type": "uint256"
        },
        {
          "internalType": "enum IGovernanceVoting.VoteType",
          "name": "voteType",
          "type": "uint8"
        },
        {
          "internalType": "uint8",
          "name": "v",
          "type": "uint8"
        },
        {
          "internalType": "bytes32",
          "name": "r",
          "type": "bytes32"
        },
        {
          "internalType": "bytes32",
          "name": "s",
          "type": "bytes32"
        }
      ],
      "name": "castVoteBySignature",
      "outputs": [],
      "stateMutability": "nonpayable",
      "type": "function"
    },
    {
      "inputs": [
        {
          "internalType": "uint256",
          "name": "proposalId",
          "type": "uint256"
        }
      ],
      "name": "execute",
      "outputs": [],
      "stateMutability": "payable",
      "type": "function"
    },
    {
      "inputs": [
        {
          "internalType": "uint256",
          "name": "proposalId",
          "type": "uint256"
        }
      ],
      "name": "getActions",
      "outputs": [
        {
          "components": [
            {
              "internalType": "address",
              "name": "target",
              "type": "address"
            },
            {
              "internalType": "bytes",
              "name": "data",
              "type": "bytes"
            },
            {
              "internalType": "uint256",
              "name": "value",
              "type": "uint256"
            }
          ],
          "internalType": "struct IGovernanceVoting.ProposedAction[]",
          "name": "proposedActions",
          "type": "tuple[]"
        }
      ],
      "stateMutability": "view",
      "type": "function"
    },
    {
      "inputs": [
        {
          "internalType": "uint256",
          "name": "proposalId",
          "type": "uint256"
        }
      ],
      "name": "getProposalById",
      "outputs": [
        {
          "components": [
            {
              "components": [
                {
                  "internalType": "uint256",
                  "name": "actionsLength",
                  "type": "uint256"
                },
                {
                  "internalType": "uint256",
                  "name": "startBlockOrTime",
                  "type": "uint256"
                },
                {
                  "internalType": "uint256",
                  "name": "endBlockOrTime",
                  "type": "uint256"
                },
                {
                  "internalType": "uint256",
                  "name": "votesFor",
                  "type": "uint256"
                },
                {
                  "internalType": "uint256",
                  "name": "votesAgainst",
                  "type": "uint256"
                },
                {
                  "internalType": "uint256",
                  "name": "votesAbstain",
                  "type": "uint256"
                },
                {
                  "internalType": "bool",
                  "name": "executed",
                  "type": "bool"
                }
              ],
              "internalType": "struct IGovernanceState.Proposal",
              "name": "proposal",
              "type": "tuple"
            },
            {
              "components": [
                {
                  "internalType": "address",
                  "name": "target",
                  "type": "address"
                },
                {
                  "internalType": "bytes",
                  "name": "data",
                  "type": "bytes"
                },
                {
                  "internalType": "uint256",
                  "name": "value",
                  "type": "uint256"
                }
              ],
              "internalType": "struct IGovernanceVoting.ProposedAction[]",
              "name": "proposedAction",
              "type": "tuple[]"
            }
          ],
          "internalType": "struct IGovernanceState.ProposalWrapper",
          "name": "proposalWrapper",
          "type": "tuple"
        }
      ],
      "stateMutability": "view",
      "type": "function"
    },
    {
      "inputs": [
        {
          "internalType": "uint256",
          "name": "proposalId",
          "type": "uint256"
        }
      ],
      "name": "getProposalState",
      "outputs": [
        {
          "internalType": "enum IGovernanceState.ProposalState",
          "name": "",
          "type": "uint8"
        }
      ],
      "stateMutability": "view",
      "type": "function"
    },
    {
      "inputs": [
        {
          "internalType": "uint256",
          "name": "proposalId",
          "type": "uint256"
        },
        {
          "internalType": "address",
          "name": "voter",
          "type": "address"
        }
      ],
      "name": "getReceipt",
      "outputs": [
        {
          "components": [
            {
              "internalType": "bool",
              "name": "hasVoted",
              "type": "bool"
            },
            {
              "internalType": "uint96",
              "name": "votes",
              "type": "uint96"
            },
            {
              "internalType": "enum IGovernanceVoting.VoteType",
              "name": "voteType",
              "type": "uint8"
            }
          ],
          "internalType": "struct IGovernanceState.Receipt",
          "name": "",
          "type": "tuple"
        }
      ],
      "stateMutability": "view",
      "type": "function"
    },
    {
      "inputs": [
        {
          "internalType": "address",
          "name": "account",
          "type": "address"
        }
      ],
      "name": "getVotingPower",
      "outputs": [
        {
          "internalType": "uint256",
          "name": "",
          "type": "uint256"
        }
      ],
      "stateMutability": "view",
      "type": "function"
    },
    {
      "inputs": [],
      "name": "governanceParameters",
      "outputs": [
        {
          "components": [
            {
              "components": [
                {
                  "internalType": "address",
                  "name": "strategy",
                  "type": "address"
                },
                {
                  "internalType": "uint256",
                  "name": "proposalThreshold",
                  "type": "uint256"
                },
                {
                  "internalType": "uint256",
                  "name": "quorumThreshold",
                  "type": "uint256"
                },
                {
                  "internalType": "enum IGovernanceState.TimeType",
                  "name": "timeType",
                  "type": "uint8"
                }
              ],
              "internalType": "struct IGovernanceState.GovernanceParameters",
              "name": "params",
              "type": "tuple"
            },
            {
              "internalType": "string",
              "name": "name",
              "type": "string"
            },
            {
              "internalType": "string",
              "name": "version",
              "type": "string"
            }
          ],
          "internalType": "struct IGovernanceState.EnhancedParams",
          "name": "",
          "type": "tuple"
        }
      ],
      "stateMutability": "view",
      "type": "function"
    },
    {
      "inputs": [],
      "name": "initializeGovernance",
      "outputs": [],
      "stateMutability": "nonpayable",
      "type": "function"
    },
    {
      "inputs": [],
      "name": "name",
      "outputs": [
        {
          "internalType": "string",
          "name": "",
          "type": "string"
        }
      ],
      "stateMutability": "view",
      "type": "function"
    },
    {
      "inputs": [],
      "name": "proposalCount",
      "outputs": [
        {
          "internalType": "uint256",
          "name": "count",
          "type": "uint256"
        }
      ],
      "stateMutability": "view",
      "type": "function"
    },
    {
      "inputs": [],
      "name": "proposals",
      "outputs": [
        {
          "components": [
            {
              "components": [
                {
                  "internalType": "uint256",
                  "name": "actionsLength",
                  "type": "uint256"
                },
                {
                  "internalType": "uint256",
                  "name": "startBlockOrTime",
                  "type": "uint256"
                },
                {
                  "internalType": "uint256",
                  "name": "endBlockOrTime",
                  "type": "uint256"
                },
                {
                  "internalType": "uint256",
                  "name": "votesFor",
                  "type": "uint256"
                },
                {
                  "internalType": "uint256",
                  "name": "votesAgainst",
                  "type": "uint256"
                },
                {
                  "internalType": "uint256",
                  "name": "votesAbstain",
                  "type": "uint256"
                },
                {
                  "internalType": "bool",
                  "name": "executed",
                  "type": "bool"
                }
              ],
              "internalType": "struct IGovernanceState.Proposal",
              "name": "proposal",
              "type": "tuple"
            },
            {
              "components": [
                {
                  "internalType": "address",
                  "name": "target",
                  "type": "address"
                },
                {
                  "internalType": "bytes",
                  "name": "data",
                  "type": "bytes"
                },
                {
                  "internalType": "uint256",
                  "name": "value",
                  "type": "uint256"
                }
              ],
              "internalType": "struct IGovernanceVoting.ProposedAction[]",
              "name": "proposedAction",
              "type": "tuple[]"
            }
          ],
          "internalType": "struct IGovernanceState.ProposalWrapper[]",
          "name": "proposalWrapper",
          "type": "tuple[]"
        }
      ],
      "stateMutability": "view",
      "type": "function"
    },
    {
      "inputs": [
        {
          "components": [
            {
              "internalType": "address",
              "name": "target",
              "type": "address"
            },
            {
              "internalType": "bytes",
              "name": "data",
              "type": "bytes"
            },
            {
              "internalType": "uint256",
              "name": "value",
              "type": "uint256"
            }
          ],
          "internalType": "struct IGovernanceVoting.ProposedAction[]",
          "name": "actions",
          "type": "tuple[]"
        },
        {
          "internalType": "string",
          "name": "description",
          "type": "string"
        }
      ],
      "name": "propose",
      "outputs": [
        {
          "internalType": "uint256",
          "name": "proposalId",
          "type": "uint256"
        }
      ],
      "stateMutability": "nonpayable",
      "type": "function"
    },
    {
      "inputs": [
        {
          "internalType": "uint256",
          "name": "newProposalThreshold",
          "type": "uint256"
        },
        {
          "internalType": "uint256",
          "name": "newQuorumThreshold",
          "type": "uint256"
        }
      ],
      "name": "updateThresholds",
      "outputs": [],
      "stateMutability": "nonpayable",
      "type": "function"
    },
    {
      "inputs": [
        {
          "internalType": "address",
          "name": "newImplementation",
          "type": "address"
        }
      ],
      "name": "upgradeImplementation",
      "outputs": [],
      "stateMutability": "nonpayable",
      "type": "function"
    },
    {
      "inputs": [
        {
          "internalType": "address",
          "name": "newStrategy",
          "type": "address"
        }
      ],
      "name": "upgradeStrategy",
      "outputs": [],
      "stateMutability": "nonpayable",
      "type": "function"
    },
    {
      "inputs": [],
      "name": "votingPeriod",
      "outputs": [
        {
          "internalType": "uint256",
          "name": "",
          "type": "uint256"
        }
      ],
      "stateMutability": "view",
      "type": "function"
    }
  ],
  "transactionHash": "0x042959ab49a01c2e9bc6e6a8449fa600cc5862f13e7c362c59949d661119c9f1",
  "args": [],
  "solcInputHash": "ddaa16d64cc41ec9e7df5c1081b4e1ec",
  "bytecode": "0x60806040523480156200001157600080fd5b506200003f60017f360894a13ba1a3210667c828492db98dca3e2076cc3735a920a3ca505d382bbd62000334565b7f360894a13ba1a3210667c828492db98dca3e2076cc3735a920a3ca505d382bbc146200007057620000706200035c565b6200008c600160008051602062002f8783398151915262000334565b60008051602062002f6783398151915214620000ac57620000ac6200035c565b620000d960017f553222b140782d4f4112160b374e6b1dc38e2837c7dcbf3ef473031724ed3bd562000334565b7f553222b140782d4f4112160b374e6b1dc38e2837c7dcbf3ef473031724ed3bd4146200010a576200010a6200035c565b6200013760017f5a7421539532aa5504e4251551519aa0a06f7c2a3b40bbade5235843e09ad5ff62000334565b7f5a7421539532aa5504e4251551519aa0a06f7c2a3b40bbade5235843e09ad5fe146200016857620001686200035c565b6200019560017f52dbe777b6bf9bbaf43befe2c8e8af61027e6a0a8901def318a34b207514b5bd62000334565b7f52dbe777b6bf9bbaf43befe2c8e8af61027e6a0a8901def318a34b207514b5bc14620001c657620001c66200035c565b620001f360017f7d19d505a441201fb38442238c5f65c45e6231c74b35aed1c92ad842019eaba062000334565b7f7d19d505a441201fb38442238c5f65c45e6231c74b35aed1c92ad842019eab9f146200022457620002246200035c565b6200025160017fe4ff3d203d0a873fb9ffd3a1bbd07943574a73114c5affe6aa0217c743adeb0762000334565b7fe4ff3d203d0a873fb9ffd3a1bbd07943574a73114c5affe6aa0217c743adeb06146200028257620002826200035c565b604080516080810182526000808252600019602083018190529282018190526001606090920182905260008051602062002f6783398151915280546001600160a01b031916905560008051602062002f87833981519152929092557f0116feaee435dceaf94f40403a5223724fba6d709cb4ce4aea5becab48feb143919091557f0116feaee435dceaf94f40403a5223724fba6d709cb4ce4aea5becab48feb144805460ff1916909117905562000372565b818103818111156200035657634e487b7160e01b600052601160045260246000fd5b92915050565b634e487b7160e01b600052600160045260246000fd5b612be580620003826000396000f3fe6080604052600436106101095760003560e01c806383f94db711610095578063c14b8e9c11610064578063c14b8e9c146102e5578063da35c66414610305578063e23a9a521461031a578063e913490314610347578063fe0d94c11461035c57600080fd5b806383f94db7146102565780639080936f14610276578063a221b74a146102a3578063bb4d4436146102c557600080fd5b8063367015bb116100dc578063367015bb146101b25780633f4360a5146101d257806355ef20e6146101f4578063567813881461021657806373883ca81461023657600080fd5b806302a251a31461010e57806306fdde0314610136578063328dd982146101585780633656de2114610185575b600080fd5b34801561011a57600080fd5b5061012361036f565b6040519081526020015b60405180910390f35b34801561014257600080fd5b5061014b6103ef565b60405161012d9190611fb9565b34801561016457600080fd5b50610178610173366004611fcc565b61048e565b60405161012d9190612069565b34801561019157600080fd5b506101a56101a0366004611fcc565b61069e565b60405161012d91906120f2565b3480156101be57600080fd5b506101236101cd366004612236565b6108b7565b3480156101de57600080fd5b506101f26101ed366004612380565b610c18565b005b34801561020057600080fd5b50610209610d2f565b60405161012d919061239d565b34801561022257600080fd5b506101f2610231366004612413565b610dee565b34801561024257600080fd5b506101f261025136600461243f565b610dfd565b34801561026257600080fd5b506101f2610271366004612380565b611006565b34801561028257600080fd5b50610296610291366004611fcc565b611135565b60405161012d91906124ab565b3480156102af57600080fd5b506102b8611146565b60405161012d91906124d9565b3480156102d157600080fd5b506101236102e0366004612380565b6112d3565b3480156102f157600080fd5b506101f261030036600461254f565b6112de565b34801561031157600080fd5b5061012361140c565b34801561032657600080fd5b5061033a610335366004612571565b611424565b60405161012d91906125b1565b34801561035357600080fd5b506101f26114eb565b6101f261036a366004611fcc565b61173a565b600080516020612b9083398151915254604080516302a251a360e01b815290516000926001600160a01b0316916302a251a39160048083019260209291908290030181865afa1580156103c6573d6000803e3d6000fd5b505050506040513d601f19601f820116820180604052508101906103ea91906125eb565b905090565b6060600080516020612b10833981519152805461040b90612604565b80601f016020809104026020016040519081016040528092919081815260200182805461043790612604565b80156104845780601f1061045957610100808354040283529160200191610484565b820191906000526020600020905b81548152906001019060200180831161046757829003601f168201915b5050505050905090565b60606000600080516020612b3083398151915260008481526020918252604090819020815160e08101835281548082526001830154948201949094526002820154928101929092526003810154606083015260048101546080830152600581015460a08301526006015460ff16151560c082015291508067ffffffffffffffff81111561051d5761051d612105565b60405190808252806020026020018201604052801561057b57816020015b610568604051806060016040528060006001600160a01b0316815260200160608152602001600081525090565b81526020019060019003908161053b5790505b50925060005b81811015610696576000858152600080516020612b708339815191526020908152604080832084845282529182902082516060810190935280546001600160a01b0316835260018101805491928401916105da90612604565b80601f016020809104026020016040519081016040528092919081815260200182805461060690612604565b80156106535780601f1061062857610100808354040283529160200191610653565b820191906000526020600020905b81548152906001019060200180831161063657829003601f168201915b505050505081526020016002820154815250508482815181106106785761067861263e565b6020026020010181905250808061068e9061266a565b915050610581565b505050919050565b6106a6611f0f565b6000828152600080516020612b3083398151915260209081526040808320815160e081018352815481526001820154938101939093526002810154918301919091526003810154606083015260048101546080830152600581015460a08301526006015460ff16151560c082015280835251908167ffffffffffffffff81111561073257610732612105565b60405190808252806020026020018201604052801561079057816020015b61077d604051806060016040528060006001600160a01b0316815260200160608152602001600081525090565b8152602001906001900390816107505790505b50905060005b828110156108ab576000858152600080516020612b708339815191526020908152604080832084845282529182902082516060810190935280546001600160a01b0316835260018101805491928401916107ef90612604565b80601f016020809104026020016040519081016040528092919081815260200182805461081b90612604565b80156108685780601f1061083d57610100808354040283529160200191610868565b820191906000526020600020905b81548152906001019060200180831161084b57829003601f168201915b5050505050815260200160028201548152505082828151811061088d5761088d61263e565b602002602001018190525080806108a39061266a565b915050610796565b50602083015250919050565b81517f0116feaee435dceaf94f40403a5223724fba6d709cb4ce4aea5becab48feb14254600091906108e833611930565b10156109325760405162461bcd60e51b815260206004820152601460248201527323a7ab2fa627abafab27aa24a723afa827aba2a960611b60448201526064015b60405180910390fd5b600081116109795760405162461bcd60e51b815260206004820152601460248201527323a7ab2fa727afa0a1aa24a7a729afa2a92927a960611b6044820152606401610929565b600a8111156109ca5760405162461bcd60e51b815260206004820152601a60248201527f474f565f544f4f5f4d414e595f414354494f4e535f4552524f520000000000006044820152606401610929565b600080600080516020612b90833981519152546040805163634a6e0560e11b815281516001600160a01b039093169263c694dc0a926004808401939192918290030181865afa158015610a21573d6000803e3d6000fd5b505050506040513d601f19601f82011682018060405250810190610a459190612683565b91509150610a5e600080516020612b5083398151915290565b8054906000610a6c8361266a565b9091555050600080516020612b5083398151915254935060006040518060e0016040528085815260200184815260200183815260200160008152602001600081526020016000815260200160001515815250905060005b84811015610b5f57878181518110610add57610add61263e565b6020026020010151610afa600080516020612b7083398151915290565b60008881526020918252604080822085835283529020825181546001600160a01b0319166001600160a01b03909116178155908201516001820190610b3f90826126f6565b506040919091015160029091015580610b578161266a565b915050610ac3565b5080600080516020612b308339815191526000878152602091825260409081902083518155918301516001830155828101516002830155606083015160038301556080830151600483015560a0830151600583015560c0909201516006909101805460ff1916911515919091179055517fbe2344d5b2190a430dda812967fe00e418e58f64a3965102ed35682ae826b44f90610c0690339088908b90889088908d906127b6565b60405180910390a15050505092915050565b333014610c375760405162461bcd60e51b815260040161092990612808565b600080516020612b90833981519152546001600160a01b03908116908216819003610c745760405162461bcd60e51b81526004016109299061283f565b6001600160a01b0382163b610ccb5760405162461bcd60e51b815260206004820152601a60248201527f555047524144455f4e4f545f434f4e54524143545f4552524f520000000000006044820152606401610929565b81600080516020612b9083398151915280546001600160a01b0319166001600160a01b0392831617905560405190831681527f19d107b44ef29656fce96f2be3de1866fc4c72c9924b29236d55955902803bb4906020015b60405180910390a15050565b60606000610d49600080516020612b508339815191525490565b90508067ffffffffffffffff811115610d6457610d64612105565b604051908082528060200260200182016040528015610d9d57816020015b610d8a611f0f565b815260200190600190039081610d825790505b50915060005b81811015610de957610db96101a0826001612876565b838281518110610dcb57610dcb61263e565b60200260200101819052508080610de19061266a565b915050610da3565b505090565b610df93383836119ad565b5050565b60007f8b73c3c69bb8fe3d512ecc4cf759cc79239f7b179b0ffacaa9a75d522b39400f600080516020612b10833981519152604051610e3c9190612889565b60408051918290038220828201825260058352640312e302e360dc1b6020938401528151928301939093528101919091527f06c015bd22b4c69690933c1058878ebdfef31f9aaae40bbe86d8a09fe1b2972c60608201524660808201523060a082015260c00160405160208183030381529060405280519060200120905060007fa45b617db0aeb0f3041dab171c7191c3aa5d9b52a5c6038c12c3ddd989787a188787604051602001610ef1939291906128ff565b60405160208183030381529060405280519060200120905060008282604051602001610f3492919061190160f01b81526002810192909252602282015260420190565b60408051601f198184030181528282528051602091820120600080855291840180845281905260ff8a169284019290925260608301889052608083018790529092509060019060a0016020604051602081039080840390855afa158015610f9f573d6000803e3d6000fd5b5050604051601f1901519150506001600160a01b03811615801590610fe457507f7fffffffffffffffffffffffffffffff5d576e7357a4501ddfe92f46681b20a08511155b610ff057610ff0612922565b610ffb818a8a6119ad565b505050505050505050565b3330146110255760405162461bcd60e51b815260040161092990612808565b7f360894a13ba1a3210667c828492db98dca3e2076cc3735a920a3ca505d382bbc546001600160a01b039081169082168190036110745760405162461bcd60e51b81526004016109299061283f565b6001600160a01b0382163b6110cb5760405162461bcd60e51b815260206004820152601a60248201527f555047524144455f4e4f545f434f4e54524143545f4552524f520000000000006044820152606401610929565b7f360894a13ba1a3210667c828492db98dca3e2076cc3735a920a3ca505d382bbc80546001600160a01b0319166001600160a01b0384169081179091556040517fbc7cd75a20ee27fd9adebab32041f755214dbc6bffa90cc0225b39da2e5c2d3b90600090a25050565b600061114082611d8b565b92915050565b6111896040805160e081019091526000606082018181526080830182905260a0830182905260c08301919091528190815260200160608152602001606081525090565b60405180606001604052806111a9600080516020612b9083398151915290565b6040805160808101825282546001600160a01b0316815260018084015460208301526002840154928201929092526003830154909291606084019160ff16908111156111f7576111f7612495565b600181111561120857611208612495565b9052508152602001600080516020612b10833981519152805461122a90612604565b80601f016020809104026020016040519081016040528092919081815260200182805461125690612604565b80156112a35780601f10611278576101008083540402835291602001916112a3565b820191906000526020600020905b81548152906001019060200180831161128657829003601f168201915b50505050508152602001604051806040016040528060058152602001640312e302e360dc1b815250815250905090565b600061114082611930565b3330146112fd5760405162461bcd60e51b815260040161092990612808565b7f0116feaee435dceaf94f40403a5223724fba6d709cb4ce4aea5becab48feb14254600080516020612b90833981519152908314801590611342575080600201548214155b61135e5760405162461bcd60e51b81526004016109299061283f565b80546040516326549b1360e11b815260048101859052602481018490526001600160a01b0390911690634ca936269060440160006040518083038186803b1580156113a857600080fd5b505afa1580156113bc573d6000803e3d6000fd5b50505050600181018390556002810182905560408051848152602081018490527fd081f5afbf5e2859f2be3d6c573e1cdd6c8fb93b18ec6145427882fe51507b6a910160405180910390a1505050565b60006103ea600080516020612b508339815191525490565b61144560408051606081018252600080825260208201819052909182015290565b7f5a7421539532aa5504e4251551519aa0a06f7c2a3b40bbade5235843e09ad5fe6000848152602091825260408082206001600160a01b03861683528352908190208151606081018352815460ff808216151583526001600160601b036101008304169583019590955290939192840191600160681b9091041660028111156114d0576114d0612495565b60028111156114e1576114e1612495565b9052509392505050565b303b1561153a5760405162461bcd60e51b815260206004820152601960248201527f414c52454144595f494e495449414c495a45445f4552524f52000000000000006044820152606401610929565b6000336001600160a01b031663890357306040518163ffffffff1660e01b8152600401600060405180830381865afa15801561157a573d6000803e3d6000fd5b505050506040513d6000823e601f3d908101601f191682016040526115a2919081019061297d565b6020810151604051630b84008560e21b81529192506001600160a01b031690632e100214906115d5908490600401612a3d565b60006040518083038186803b1580156115ed57600080fd5b505afa158015611601573d6000803e3d6000fd5b505050508060a0015161161f600080516020612b1083398151915290565b9061162a90826126f6565b50604051806080016040528082602001516001600160a01b0316815260200182604001518152602001826060015181526020018260800151600181111561167357611673612495565b90528051600080516020612b9083398151915280546001600160a01b0319166001600160a01b0390921691909117815560208201517f0116feaee435dceaf94f40403a5223724fba6d709cb4ce4aea5becab48feb1425560408201517f0116feaee435dceaf94f40403a5223724fba6d709cb4ce4aea5becab48feb1435560608201517f0116feaee435dceaf94f40403a5223724fba6d709cb4ce4aea5becab48feb144805460ff19166001838181111561173057611730612495565b0217905550505050565b600561174582611d8b565b600881111561175657611756612495565b146117a35760405162461bcd60e51b815260206004820152601c60248201527f564f54494e475f455845435554494f4e5f53544154455f4552524f52000000006044820152606401610929565b6000818152600080516020612b308339815191526020526040812060068101805460ff19166001179055905b81548110156118ff576000838152600080516020612b7083398151915260209081526040808320848452825280832081516060810190925280546001600160a01b03168252600181018054929391929184019161182b90612604565b80601f016020809104026020016040519081016040528092919081815260200182805461185790612604565b80156118a45780601f10611879576101008083540402835291602001916118a4565b820191906000526020600020905b81548152906001019060200180831161188757829003601f168201915b50505091835250506002919091015460209182015281516040830151838301518051949550919390926000918291840185875af13d6000803e806118e7573d6000fd5b505050505080806118f79061266a565b9150506117cf565b506040518281527f712ae1383f79ac853f8d882153778e0260ef8f03b504e2866e0593e04d2b291f90602001610d23565b6000600080516020612b9083398151915254604051635da6a21b60e11b81526001600160a01b0384811660048301529091169063bb4d443690602401602060405180830381865afa158015611989573d6000803e3d6000fd5b505050506040513d601f19601f8201168201806040525081019061114091906125eb565b60016119b883611d8b565b60088111156119c9576119c9612495565b14611a0c5760405162461bcd60e51b81526020600482015260136024820152722b27aa24a723afa1a627a9a2a22fa2a92927a960691b6044820152606401610929565b60008281527f5a7421539532aa5504e4251551519aa0a06f7c2a3b40bbade5235843e09ad5fe602090815260408083206001600160a01b038716845282528083208151606081018352815460ff8082161515835261010082046001600160601b03169583019590955290939192840191600160681b909104166002811115611a9657611a96612495565b6002811115611aa757611aa7612495565b905250805190915015611afc5760405162461bcd60e51b815260206004820152601a60248201527f564f54494e475f414c52454144595f564f5445445f4552524f520000000000006044820152606401610929565b6000611b0785611930565b905080600003611b515760405162461bcd60e51b81526020600482015260156024820152742b27aa24a723afa727afab27aa22a9afa2a92927a960591b6044820152606401610929565b6000848152600080516020612b308339815191526020526040812090846002811115611b7f57611b7f612495565b03611ba35781816003016000828254611b989190612876565b90915550611bea9050565b6001846002811115611bb757611bb7612495565b03611bd05781816004016000828254611b989190612876565b81816005016000828254611be49190612876565b90915550505b60408051606081018252600181526001600160601b0384166020820152908101856002811115611c1c57611c1c612495565b90527f5a7421539532aa5504e4251551519aa0a06f7c2a3b40bbade5235843e09ad5fe6000878152602091825260408082206001600160a01b038b16835283529081902083518154938501516cffffffffffffffffffffffffff199094169015156cffffffffffffffffffffffff001916176101006001600160601b0390941693909302929092178083559083015190829060ff60681b1916600160681b836002811115611ccc57611ccc612495565b021790555060039150611cdc9050565b611ce586611d8b565b6008811115611cf657611cf6612495565b03611d46577f0116feaee435dceaf94f40403a5223724fba6d709cb4ce4aea5becab48feb1445460019060ff1681811115611d3357611d33612495565b14611d3e5743611d40565b425b60028201555b7f2c9deb38f462962eadbd85a9d3a4120503ee091f1582eaaa10aa8c6797651d2986868685604051611d7b9493929190612a9f565b60405180910390a1505050505050565b600081600080516020612b508339815191525410801590611dac5750600082115b611df85760405162461bcd60e51b815260206004820152601860248201527f564f54494e475f50524f504f53414c5f49445f4552524f5200000000000000006044820152606401610929565b6000828152600080516020612b308339815191526020908152604091829020825160e08101845281548152600182015492810192909252600281015482840152600381015460608301526004808201546080840152600582015460a084015260069091015460ff16151560c0830152600080516020612b90833981519152547f0116feaee435dceaf94f40403a5223724fba6d709cb4ce4aea5becab48feb14354935163073c180960e31b815292936001600160a01b03909116926339e0c04892611ec7928692909101612ad2565b602060405180830381865afa158015611ee4573d6000803e3d6000fd5b505050506040513d601f19601f82011682018060405250810190611f089190612aee565b9392505050565b6040518060400160405280611f5c6040518060e001604052806000815260200160008152602001600081526020016000815260200160008152602001600081526020016000151581525090565b8152602001606081525090565b60005b83811015611f84578181015183820152602001611f6c565b50506000910152565b60008151808452611fa5816020860160208601611f69565b601f01601f19169290920160200192915050565b602081526000611f086020830184611f8d565b600060208284031215611fde57600080fd5b5035919050565b600082825180855260208086019550808260051b84010181860160005b8481101561205c57858303601f19018952815180516001600160a01b031684528481015160608686018190529061203b82870182611f8d565b60409384015196909301959095525098840198925090830190600101612002565b5090979650505050505050565b602081526000611f086020830184611fe5565b805182526020810151602083015260408101516040830152606081015160608301526080810151608083015260a081015160a083015260c0810151151560c08301525050565b60006101006120d284845161207c565b60208301518160e08601526120e982860182611fe5565b95945050505050565b602081526000611f0860208301846120c2565b634e487b7160e01b600052604160045260246000fd5b6040516060810167ffffffffffffffff8111828210171561213e5761213e612105565b60405290565b60405160c0810167ffffffffffffffff8111828210171561213e5761213e612105565b604051601f8201601f1916810167ffffffffffffffff8111828210171561219057612190612105565b604052919050565b6001600160a01b03811681146121ad57600080fd5b50565b600067ffffffffffffffff8211156121ca576121ca612105565b50601f01601f191660200190565b60006121eb6121e6846121b0565b612167565b90508281528383830111156121ff57600080fd5b828260208301376000602084830101529392505050565b600082601f83011261222757600080fd5b611f08838335602085016121d8565b600080604080848603121561224a57600080fd5b833567ffffffffffffffff8082111561226257600080fd5b818601915086601f83011261227657600080fd5b813560208282111561228a5761228a612105565b8160051b612299828201612167565b928352848101820192828101908b8511156122b357600080fd5b83870192505b84831015612351578235868111156122d057600080fd5b87016060818e03601f190112156122e75760008081fd5b6122ef61211b565b858201356122fc81612198565b8152818a0135888111156123105760008081fd5b8201603f81018f136123225760008081fd5b6123328f888301358d84016121d8565b82880152506060919091013589820152825291830191908301906122b9565b985050508701359350508083111561236857600080fd5b505061237685828601612216565b9150509250929050565b60006020828403121561239257600080fd5b8135611f0881612198565b6000602080830181845280855180835260408601915060408160051b870101925083870160005b828110156123f257603f198886030184526123e08583516120c2565b945092850192908501906001016123c4565b5092979650505050505050565b80356003811061240e57600080fd5b919050565b6000806040838503121561242657600080fd5b82359150612436602084016123ff565b90509250929050565b600080600080600060a0868803121561245757600080fd5b85359450612467602087016123ff565b9350604086013560ff8116811461247d57600080fd5b94979396509394606081013594506080013592915050565b634e487b7160e01b600052602160045260246000fd5b60208101600983106124bf576124bf612495565b91905290565b600281106124d5576124d5612495565b9052565b602081526000825160018060a01b03815116602084015260208101516040840152604081015160608401526060810151905061251860808401826124c5565b50602083015160c060a084015261253260e0840182611f8d565b90506040840151601f198483030160c08501526120e98282611f8d565b6000806040838503121561256257600080fd5b50508035926020909101359150565b6000806040838503121561258457600080fd5b82359150602083013561259681612198565b809150509250929050565b600381106124d5576124d5612495565b60006060820190508251151582526001600160601b03602084015116602083015260408301516125e460408401826125a1565b5092915050565b6000602082840312156125fd57600080fd5b5051919050565b600181811c9082168061261857607f821691505b60208210810361263857634e487b7160e01b600052602260045260246000fd5b50919050565b634e487b7160e01b600052603260045260246000fd5b634e487b7160e01b600052601160045260246000fd5b60006001820161267c5761267c612654565b5060010190565b6000806040838503121561269657600080fd5b505080516020909101519092909150565b601f8211156126f157600081815260208120601f850160051c810160208610156126ce5750805b601f850160051c820191505b818110156126ed578281556001016126da565b5050505b505050565b815167ffffffffffffffff81111561271057612710612105565b6127248161271e8454612604565b846126a7565b602080601f83116001811461275957600084156127415750858301515b600019600386901b1c1916600185901b1785556126ed565b600085815260208120601f198616915b8281101561278857888601518255948401946001909101908401612769565b50858210156127a65787850151600019600388901b60f8161c191681555b5050505050600190811b01905550565b60018060a01b038716815285602082015260c0604082015260006127dd60c0830187611fe5565b85606084015284608084015282810360a08401526127fb8185611f8d565b9998505050505050505050565b6020808252601a908201527f474f565f555047524144455f415050524f56414c5f4552524f52000000000000604082015260600190565b6020808252601d908201527f555047524144455f53414d455f41535f43555252454e545f4552524f52000000604082015260600190565b8082018082111561114057611140612654565b600080835461289781612604565b600182811680156128af57600181146128c4576128f3565b60ff19841687528215158302870194506128f3565b8760005260208060002060005b858110156128ea5781548a8201529084019082016128d1565b50505082870194505b50929695505050505050565b838152602081018390526060810161291a60408301846125a1565b949350505050565b634e487b7160e01b600052600160045260246000fd5b600082601f83011261294957600080fd5b81516129576121e6826121b0565b81815284602083860101111561296c57600080fd5b61291a826020830160208701611f69565b60006020828403121561298f57600080fd5b815167ffffffffffffffff808211156129a757600080fd5b9083019060c082860312156129bb57600080fd5b6129c3612144565b82516129ce81612198565b815260208301516129de81612198565b806020830152506040830151604082015260608301516060820152608083015160028110612a0b57600080fd5b608082015260a083015182811115612a2257600080fd5b612a2e87828601612938565b60a08301525095945050505050565b60208152600060018060a01b038084511660208401528060208501511660408401525060408301516060830152606083015160808301526080830151612a8660a08401826124c5565b5060a083015160c08084015261291a60e0840182611f8d565b6001600160a01b03851681526020810184905260808101612ac360408301856125a1565b82606083015295945050505050565b6101008101612ae1828561207c565b8260e08301529392505050565b600060208284031215612b0057600080fd5b815160098110611f0857600080fdfe553222b140782d4f4112160b374e6b1dc38e2837c7dcbf3ef473031724ed3bd452dbe777b6bf9bbaf43befe2c8e8af61027e6a0a8901def318a34b207514b5bc7d19d505a441201fb38442238c5f65c45e6231c74b35aed1c92ad842019eab9fe4ff3d203d0a873fb9ffd3a1bbd07943574a73114c5affe6aa0217c743adeb060116feaee435dceaf94f40403a5223724fba6d709cb4ce4aea5becab48feb141a2646970667358221220859d9371baa7b4ca5c8ff1c6d796831d08c749bfe0a4d942446665e9db7ec2e664736f6c634300081100330116feaee435dceaf94f40403a5223724fba6d709cb4ce4aea5becab48feb1410116feaee435dceaf94f40403a5223724fba6d709cb4ce4aea5becab48feb142",
  "devdoc": {
    "kind": "dev",
    "methods": {
      "castVote(uint256,uint8)": {
        "details": "Only callable during the voting period for that proposal. One address can only vote once.",
        "params": {
          "proposalId": "The ID of the proposal to vote on.",
          "voteType": "Whether to support, not support or abstain."
        }
      },
      "castVoteBySignature(uint256,uint8,uint8,bytes32,bytes32)": {
        "details": "Only callable during the voting period for that proposal. One voter can only vote once.",
        "params": {
          "proposalId": "The ID of the proposal to vote on.",
          "r": "the r field of the signature.",
          "s": "the s field of the signature.",
          "v": "the v field of the signature.",
          "voteType": "Whether to support, not support or abstain."
        }
      },
      "constructor": {
        "details": "Setting high proposal threshold locks propose action, which also lock vote actions."
      },
      "execute(uint256)": {
        "params": {
          "proposalId": "The ID of the proposal to execute."
        }
      },
      "getActions(uint256)": {
        "params": {
          "proposalId": "Number of the proposal."
        },
        "returns": {
          "proposedActions": "Array of tuple of proposed actions."
        }
      },
      "getProposalById(uint256)": {
        "params": {
          "proposalId": "The number of the proposal."
        },
        "returns": {
          "proposalWrapper": "Tuple wrapper of the proposal and proposed actions tuples."
        }
      },
      "getProposalState(uint256)": {
        "params": {
          "proposalId": "Number of the proposal."
        },
        "returns": {
          "_0": "Number of proposal state."
        }
      },
      "getReceipt(uint256,address)": {
        "params": {
          "proposalId": "Number of the proposal.",
          "voter": "Address of the voter."
        },
        "returns": {
          "_0": "Tuple of voter receipt."
        }
      },
      "getVotingPower(address)": {
        "params": {
          "account": "The address of the account."
        },
        "returns": {
          "_0": "The current voting power of the given account."
        }
      },
      "governanceParameters()": {
        "returns": {
          "_0": "Tuple of the governance parameters."
        }
      },
      "initializeGovernance()": {
        "details": "Params are stored in factory and read from there."
      },
      "name()": {
        "returns": {
          "_0": "Human readable string of the name."
        }
      },
      "proposalCount()": {
        "returns": {
          "count": "The number of proposals."
        }
      },
      "proposals()": {
        "returns": {
          "proposalWrapper": "Tuple array of all governance proposals."
        }
      },
      "propose((address,bytes,uint256)[],string)": {
        "details": "Must have at least `proposalThreshold` of voting power to call this function.",
        "params": {
          "actions": "The proposed actions. An action specifies a contract call.",
          "description": "A text description for the proposal."
        },
        "returns": {
          "proposalId": "The ID of the newly created proposal."
        }
      },
      "updateThresholds(uint256,uint256)": {
        "details": "Only callable by the governance contract itself.Thresholds can only be updated via a successful governance proposal.",
        "params": {
          "newProposalThreshold": "The new value for the proposal threshold.",
          "newQuorumThreshold": "The new value for the quorum threshold."
        }
      },
      "upgradeImplementation(address)": {
        "details": "Only callable after successful voting.",
        "params": {
          "newImplementation": "Address of the new governance implementation contract."
        }
      },
      "upgradeStrategy(address)": {
        "details": "Only callable by the governance contract itself.",
        "params": {
          "newStrategy": "Address of the new strategy contract."
        }
      },
      "votingPeriod()": {
        "returns": {
          "_0": "Number of blocks or seconds."
        }
      }
    },
    "version": 1
  },
  "userdoc": {
    "events": {
      "ProposalCreated(address,uint256,(address,bytes,uint256)[],uint256,uint256,string)": {
        "notice": "Emitted when a new proposal is created."
      },
      "ProposalExecuted(uint256)": {
        "notice": "Emitted when a proposal is executed."
      },
      "StrategyUpgraded(address)": {
        "notice": "Emmited when the governance strategy is upgraded."
      },
      "ThresholdsUpdated(uint256,uint256)": {
        "notice": "Emitted when voting thresholds get updated."
      },
      "Upgraded(address)": {
        "notice": "Emitted when implementation written to proxy storage."
      },
      "VoteCast(address,uint256,uint8,uint256)": {
        "notice": "Emitted when a voter votes."
      }
    },
    "kind": "user",
    "methods": {
      "castVote(uint256,uint8)": {
        "notice": "Casts a vote for the given proposal."
      },
      "castVoteBySignature(uint256,uint8,uint8,bytes32,bytes32)": {
        "notice": "Casts a vote for the given proposal, by signature."
      },
      "constructor": {
        "notice": "Constructor has no inputs to guarantee same deterministic address across chains."
      },
      "execute(uint256)": {
        "notice": "Executes a proposal that has passed and is currently executable."
      },
      "getActions(uint256)": {
        "notice": "Returns the actions proposed for a given proposal."
      },
      "getProposalById(uint256)": {
        "notice": "Returns a proposal for a given id."
      },
      "getProposalState(uint256)": {
        "notice": "Returns the state of a proposal."
      },
      "getReceipt(uint256,address)": {
        "notice": "Returns the receipt of a voter for a given proposal."
      },
      "getVotingPower(address)": {
        "notice": "Computes the current voting power of the given account."
      },
      "governanceParameters()": {
        "notice": "Returns the governance parameters."
      },
      "initializeGovernance()": {
        "notice": "Initializes the Rigoblock Governance."
      },
      "name()": {
        "notice": "Returns the name of the governace."
      },
      "proposalCount()": {
        "notice": "Returns the total number of proposals."
      },
      "proposals()": {
        "notice": "Returns all proposals ever made to the governance."
      },
      "propose((address,bytes,uint256)[],string)": {
        "notice": "Creates a proposal on the the given actions. Must have at least `proposalThreshold`."
      },
      "updateThresholds(uint256,uint256)": {
        "notice": "Updates the proposal and quorum thresholds to the given values."
      },
      "upgradeImplementation(address)": {
        "notice": "Updates the governance implementation address."
      },
      "upgradeStrategy(address)": {
        "notice": "Updates the governance strategy plugin."
      },
      "votingPeriod()": {
        "notice": "Returns the voting period."
      }
    },
    "version": 1
  },
  "storageLayout": {
    "storage": [],
    "types": null
  }
}