{
  "address": "0x25ACe36b92C163194a812819CE960aF2d25AC81A",
  "abi": [
    {
      "inputs": [
        {
          "internalType": "address",
          "name": "grgVault",
          "type": "address"
        },
        {
          "internalType": "address",
          "name": "poolRegistry",
          "type": "address"
        },
        {
          "internalType": "address",
          "name": "rigoToken",
          "type": "address"
        }
      ],
      "stateMutability": "nonpayable",
      "type": "constructor"
    },
    {
      "anonymous": false,
      "inputs": [
        {
          "indexed": true,
          "internalType": "address",
          "name": "target",
          "type": "address"
        },
        {
          "indexed": true,
          "internalType": "address",
          "name": "caller",
          "type": "address"
        }
      ],
      "name": "AuthorizedAddressAdded",
      "type": "event"
    },
    {
      "anonymous": false,
      "inputs": [
        {
          "indexed": true,
          "internalType": "address",
          "name": "target",
          "type": "address"
        },
        {
          "indexed": true,
          "internalType": "address",
          "name": "caller",
          "type": "address"
        }
      ],
      "name": "AuthorizedAddressRemoved",
      "type": "event"
    },
    {
      "anonymous": false,
      "inputs": [
        {
          "indexed": false,
          "internalType": "string",
          "name": "reason",
          "type": "string"
        }
      ],
      "name": "CatchStringEvent",
      "type": "event"
    },
    {
      "anonymous": false,
      "inputs": [
        {
          "indexed": true,
          "internalType": "uint256",
          "name": "epoch",
          "type": "uint256"
        },
        {
          "indexed": false,
          "internalType": "uint256",
          "name": "numPoolsToFinalize",
          "type": "uint256"
        },
        {
          "indexed": false,
          "internalType": "uint256",
          "name": "rewardsAvailable",
          "type": "uint256"
        },
        {
          "indexed": false,
          "internalType": "uint256",
          "name": "totalFeesCollected",
          "type": "uint256"
        },
        {
          "indexed": false,
          "internalType": "uint256",
          "name": "totalWeightedStake",
          "type": "uint256"
        }
      ],
      "name": "EpochEnded",
      "type": "event"
    },
    {
      "anonymous": false,
      "inputs": [
        {
          "indexed": true,
          "internalType": "uint256",
          "name": "epoch",
          "type": "uint256"
        },
        {
          "indexed": false,
          "internalType": "uint256",
          "name": "rewardsPaid",
          "type": "uint256"
        },
        {
          "indexed": false,
          "internalType": "uint256",
          "name": "rewardsRemaining",
          "type": "uint256"
        }
      ],
      "name": "EpochFinalized",
      "type": "event"
    },
    {
      "anonymous": false,
      "inputs": [
        {
          "indexed": false,
          "internalType": "uint256",
          "name": "grgAmount",
          "type": "uint256"
        }
      ],
      "name": "GrgMintEvent",
      "type": "event"
    },
    {
      "anonymous": false,
      "inputs": [
        {
          "indexed": true,
          "internalType": "address",
          "name": "staker",
          "type": "address"
        },
        {
          "indexed": false,
          "internalType": "uint256",
          "name": "amount",
          "type": "uint256"
        },
        {
          "indexed": false,
          "internalType": "uint8",
          "name": "fromStatus",
          "type": "uint8"
        },
        {
          "indexed": true,
          "internalType": "bytes32",
          "name": "fromPool",
          "type": "bytes32"
        },
        {
          "indexed": false,
          "internalType": "uint8",
          "name": "toStatus",
          "type": "uint8"
        },
        {
          "indexed": true,
          "internalType": "bytes32",
          "name": "toPool",
          "type": "bytes32"
        }
      ],
      "name": "MoveStake",
      "type": "event"
    },
    {
      "anonymous": false,
      "inputs": [
        {
          "indexed": true,
          "internalType": "bytes32",
          "name": "poolId",
          "type": "bytes32"
        },
        {
          "indexed": false,
          "internalType": "uint32",
          "name": "oldOperatorShare",
          "type": "uint32"
        },
        {
          "indexed": false,
          "internalType": "uint32",
          "name": "newOperatorShare",
          "type": "uint32"
        }
      ],
      "name": "OperatorShareDecreased",
      "type": "event"
    },
    {
      "anonymous": false,
      "inputs": [
        {
          "indexed": true,
          "internalType": "address",
          "name": "previousOwner",
          "type": "address"
        },
        {
          "indexed": true,
          "internalType": "address",
          "name": "newOwner",
          "type": "address"
        }
      ],
      "name": "OwnershipTransferred",
      "type": "event"
    },
    {
      "anonymous": false,
      "inputs": [
        {
          "indexed": false,
          "internalType": "uint256",
          "name": "epochDurationInSeconds",
          "type": "uint256"
        },
        {
          "indexed": false,
          "internalType": "uint32",
          "name": "rewardDelegatedStakeWeight",
          "type": "uint32"
        },
        {
          "indexed": false,
          "internalType": "uint256",
          "name": "minimumPoolStake",
          "type": "uint256"
        },
        {
          "indexed": false,
          "internalType": "uint256",
          "name": "cobbDouglasAlphaNumerator",
          "type": "uint256"
        },
        {
          "indexed": false,
          "internalType": "uint256",
          "name": "cobbDouglasAlphaDenominator",
          "type": "uint256"
        }
      ],
      "name": "ParamsSet",
      "type": "event"
    },
    {
      "anonymous": false,
      "inputs": [
        {
          "indexed": false,
          "internalType": "address",
          "name": "exchangeAddress",
          "type": "address"
        }
      ],
      "name": "PopAdded",
      "type": "event"
    },
    {
      "anonymous": false,
      "inputs": [
        {
          "indexed": false,
          "internalType": "address",
          "name": "exchangeAddress",
          "type": "address"
        }
      ],
      "name": "PopRemoved",
      "type": "event"
    },
    {
      "anonymous": false,
      "inputs": [
        {
          "indexed": true,
          "internalType": "address",
          "name": "rbPoolAddress",
          "type": "address"
        },
        {
          "indexed": true,
          "internalType": "bytes32",
          "name": "poolId",
          "type": "bytes32"
        }
      ],
      "name": "RbPoolStakingPoolSet",
      "type": "event"
    },
    {
      "anonymous": false,
      "inputs": [
        {
          "indexed": false,
          "internalType": "bytes",
          "name": "reason",
          "type": "bytes"
        }
      ],
      "name": "ReturnDataEvent",
      "type": "event"
    },
    {
      "anonymous": false,
      "inputs": [
        {
          "indexed": true,
          "internalType": "uint256",
          "name": "epoch",
          "type": "uint256"
        },
        {
          "indexed": true,
          "internalType": "bytes32",
          "name": "poolId",
          "type": "bytes32"
        },
        {
          "indexed": false,
          "internalType": "uint256",
          "name": "operatorReward",
          "type": "uint256"
        },
        {
          "indexed": false,
          "internalType": "uint256",
          "name": "membersReward",
          "type": "uint256"
        }
      ],
      "name": "RewardsPaid",
      "type": "event"
    },
    {
      "anonymous": false,
      "inputs": [
        {
          "indexed": true,
          "internalType": "address",
          "name": "staker",
          "type": "address"
        },
        {
          "indexed": false,
          "internalType": "uint256",
          "name": "amount",
          "type": "uint256"
        }
      ],
      "name": "Stake",
      "type": "event"
    },
    {
      "anonymous": false,
      "inputs": [
        {
          "indexed": false,
          "internalType": "bytes32",
          "name": "poolId",
          "type": "bytes32"
        },
        {
          "indexed": false,
          "internalType": "address",
          "name": "operator",
          "type": "address"
        },
        {
          "indexed": false,
          "internalType": "uint32",
          "name": "operatorShare",
          "type": "uint32"
        }
      ],
      "name": "StakingPoolCreated",
      "type": "event"
    },
    {
      "anonymous": false,
      "inputs": [
        {
          "indexed": true,
          "internalType": "uint256",
          "name": "epoch",
          "type": "uint256"
        },
        {
          "indexed": true,
          "internalType": "bytes32",
          "name": "poolId",
          "type": "bytes32"
        }
      ],
      "name": "StakingPoolEarnedRewardsInEpoch",
      "type": "event"
    },
    {
      "anonymous": false,
      "inputs": [
        {
          "indexed": true,
          "internalType": "address",
          "name": "staker",
          "type": "address"
        },
        {
          "indexed": false,
          "internalType": "uint256",
          "name": "amount",
          "type": "uint256"
        }
      ],
      "name": "Unstake",
      "type": "event"
    },
    {
      "inputs": [
        {
          "internalType": "address",
          "name": "target",
          "type": "address"
        }
      ],
      "name": "addAuthorizedAddress",
      "outputs": [],
      "stateMutability": "nonpayable",
      "type": "function"
    },
    {
      "inputs": [
        {
          "internalType": "address",
          "name": "addr",
          "type": "address"
        }
      ],
      "name": "addPopAddress",
      "outputs": [],
      "stateMutability": "nonpayable",
      "type": "function"
    },
    {
      "inputs": [
        {
          "internalType": "uint256",
          "name": "",
          "type": "uint256"
        }
      ],
      "name": "aggregatedStatsByEpoch",
      "outputs": [
        {
          "internalType": "uint256",
          "name": "rewardsAvailable",
          "type": "uint256"
        },
        {
          "internalType": "uint256",
          "name": "numPoolsToFinalize",
          "type": "uint256"
        },
        {
          "internalType": "uint256",
          "name": "totalFeesCollected",
          "type": "uint256"
        },
        {
          "internalType": "uint256",
          "name": "totalWeightedStake",
          "type": "uint256"
        },
        {
          "internalType": "uint256",
          "name": "totalRewardsFinalized",
          "type": "uint256"
        }
      ],
      "stateMutability": "view",
      "type": "function"
    },
    {
      "inputs": [
        {
          "internalType": "uint256",
          "name": "",
          "type": "uint256"
        }
      ],
      "name": "authorities",
      "outputs": [
        {
          "internalType": "address",
          "name": "",
          "type": "address"
        }
      ],
      "stateMutability": "view",
      "type": "function"
    },
    {
      "inputs": [
        {
          "internalType": "address",
          "name": "",
          "type": "address"
        }
      ],
      "name": "authorized",
      "outputs": [
        {
          "internalType": "bool",
          "name": "",
          "type": "bool"
        }
      ],
      "stateMutability": "view",
      "type": "function"
    },
    {
      "inputs": [],
      "name": "cobbDouglasAlphaDenominator",
      "outputs": [
        {
          "internalType": "uint32",
          "name": "",
          "type": "uint32"
        }
      ],
      "stateMutability": "view",
      "type": "function"
    },
    {
      "inputs": [],
      "name": "cobbDouglasAlphaNumerator",
      "outputs": [
        {
          "internalType": "uint32",
          "name": "",
          "type": "uint32"
        }
      ],
      "stateMutability": "view",
      "type": "function"
    },
    {
      "inputs": [
        {
          "internalType": "bytes32",
          "name": "poolId",
          "type": "bytes32"
        },
        {
          "internalType": "address",
          "name": "member",
          "type": "address"
        }
      ],
      "name": "computeRewardBalanceOfDelegator",
      "outputs": [
        {
          "internalType": "uint256",
          "name": "reward",
          "type": "uint256"
        }
      ],
      "stateMutability": "view",
      "type": "function"
    },
    {
      "inputs": [
        {
          "internalType": "bytes32",
          "name": "poolId",
          "type": "bytes32"
        }
      ],
      "name": "computeRewardBalanceOfOperator",
      "outputs": [
        {
          "internalType": "uint256",
          "name": "reward",
          "type": "uint256"
        }
      ],
      "stateMutability": "view",
      "type": "function"
    },
    {
      "inputs": [
        {
          "internalType": "address",
          "name": "rigoblockPoolAddress",
          "type": "address"
        }
      ],
      "name": "createStakingPool",
      "outputs": [
        {
          "internalType": "bytes32",
          "name": "poolId",
          "type": "bytes32"
        }
      ],
      "stateMutability": "nonpayable",
      "type": "function"
    },
    {
      "inputs": [
        {
          "internalType": "address",
          "name": "poolAccount",
          "type": "address"
        },
        {
          "internalType": "uint256",
          "name": "popReward",
          "type": "uint256"
        }
      ],
      "name": "creditPopReward",
      "outputs": [],
      "stateMutability": "payable",
      "type": "function"
    },
    {
      "inputs": [],
      "name": "currentEpoch",
      "outputs": [
        {
          "internalType": "uint256",
          "name": "",
          "type": "uint256"
        }
      ],
      "stateMutability": "view",
      "type": "function"
    },
    {
      "inputs": [],
      "name": "currentEpochStartTimeInSeconds",
      "outputs": [
        {
          "internalType": "uint256",
          "name": "",
          "type": "uint256"
        }
      ],
      "stateMutability": "view",
      "type": "function"
    },
    {
      "inputs": [
        {
          "internalType": "bytes32",
          "name": "poolId",
          "type": "bytes32"
        },
        {
          "internalType": "uint32",
          "name": "newOperatorShare",
          "type": "uint32"
        }
      ],
      "name": "decreaseStakingPoolOperatorShare",
      "outputs": [],
      "stateMutability": "nonpayable",
      "type": "function"
    },
    {
      "inputs": [],
      "name": "endEpoch",
      "outputs": [
        {
          "internalType": "uint256",
          "name": "numPoolsToFinalize",
          "type": "uint256"
        }
      ],
      "stateMutability": "nonpayable",
      "type": "function"
    },
    {
      "inputs": [],
      "name": "epochDurationInSeconds",
      "outputs": [
        {
          "internalType": "uint256",
          "name": "",
          "type": "uint256"
        }
      ],
      "stateMutability": "view",
      "type": "function"
    },
    {
      "inputs": [
        {
          "internalType": "bytes32",
          "name": "poolId",
          "type": "bytes32"
        }
      ],
      "name": "finalizePool",
      "outputs": [],
      "stateMutability": "nonpayable",
      "type": "function"
    },
    {
      "inputs": [],
      "name": "getAuthorizedAddresses",
      "outputs": [
        {
          "internalType": "address[]",
          "name": "",
          "type": "address[]"
        }
      ],
      "stateMutability": "view",
      "type": "function"
    },
    {
      "inputs": [],
      "name": "getCurrentEpochEarliestEndTimeInSeconds",
      "outputs": [
        {
          "internalType": "uint256",
          "name": "",
          "type": "uint256"
        }
      ],
      "stateMutability": "view",
      "type": "function"
    },
    {
      "inputs": [
        {
          "internalType": "enum IStructs.StakeStatus",
          "name": "stakeStatus",
          "type": "uint8"
        }
      ],
      "name": "getGlobalStakeByStatus",
      "outputs": [
        {
          "components": [
            {
              "internalType": "uint64",
              "name": "currentEpoch",
              "type": "uint64"
            },
            {
              "internalType": "uint96",
              "name": "currentEpochBalance",
              "type": "uint96"
            },
            {
              "internalType": "uint96",
              "name": "nextEpochBalance",
              "type": "uint96"
            }
          ],
          "internalType": "struct IStructs.StoredBalance",
          "name": "balance",
          "type": "tuple"
        }
      ],
      "stateMutability": "view",
      "type": "function"
    },
    {
      "inputs": [],
      "name": "getGrgContract",
      "outputs": [
        {
          "internalType": "contract IRigoToken",
          "name": "",
          "type": "address"
        }
      ],
      "stateMutability": "view",
      "type": "function"
    },
    {
      "inputs": [],
      "name": "getGrgVault",
      "outputs": [
        {
          "internalType": "contract IGrgVault",
          "name": "",
          "type": "address"
        }
      ],
      "stateMutability": "view",
      "type": "function"
    },
    {
      "inputs": [
        {
          "internalType": "address",
          "name": "staker",
          "type": "address"
        },
        {
          "internalType": "enum IStructs.StakeStatus",
          "name": "stakeStatus",
          "type": "uint8"
        }
      ],
      "name": "getOwnerStakeByStatus",
      "outputs": [
        {
          "components": [
            {
              "internalType": "uint64",
              "name": "currentEpoch",
              "type": "uint64"
            },
            {
              "internalType": "uint96",
              "name": "currentEpochBalance",
              "type": "uint96"
            },
            {
              "internalType": "uint96",
              "name": "nextEpochBalance",
              "type": "uint96"
            }
          ],
          "internalType": "struct IStructs.StoredBalance",
          "name": "balance",
          "type": "tuple"
        }
      ],
      "stateMutability": "view",
      "type": "function"
    },
    {
      "inputs": [],
      "name": "getParams",
      "outputs": [
        {
          "internalType": "uint256",
          "name": "_epochDurationInSeconds",
          "type": "uint256"
        },
        {
          "internalType": "uint32",
          "name": "_rewardDelegatedStakeWeight",
          "type": "uint32"
        },
        {
          "internalType": "uint256",
          "name": "_minimumPoolStake",
          "type": "uint256"
        },
        {
          "internalType": "uint32",
          "name": "_cobbDouglasAlphaNumerator",
          "type": "uint32"
        },
        {
          "internalType": "uint32",
          "name": "_cobbDouglasAlphaDenominator",
          "type": "uint32"
        }
      ],
      "stateMutability": "view",
      "type": "function"
    },
    {
      "inputs": [],
      "name": "getPoolRegistry",
      "outputs": [
        {
          "internalType": "contract IPoolRegistry",
          "name": "",
          "type": "address"
        }
      ],
      "stateMutability": "view",
      "type": "function"
    },
    {
      "inputs": [
        {
          "internalType": "address",
          "name": "staker",
          "type": "address"
        },
        {
          "internalType": "bytes32",
          "name": "poolId",
          "type": "bytes32"
        }
      ],
      "name": "getStakeDelegatedToPoolByOwner",
      "outputs": [
        {
          "components": [
            {
              "internalType": "uint64",
              "name": "currentEpoch",
              "type": "uint64"
            },
            {
              "internalType": "uint96",
              "name": "currentEpochBalance",
              "type": "uint96"
            },
            {
              "internalType": "uint96",
              "name": "nextEpochBalance",
              "type": "uint96"
            }
          ],
          "internalType": "struct IStructs.StoredBalance",
          "name": "balance",
          "type": "tuple"
        }
      ],
      "stateMutability": "view",
      "type": "function"
    },
    {
      "inputs": [
        {
          "internalType": "bytes32",
          "name": "poolId",
          "type": "bytes32"
        }
      ],
      "name": "getStakingPool",
      "outputs": [
        {
          "components": [
            {
              "internalType": "address",
              "name": "operator",
              "type": "address"
            },
            {
              "internalType": "address",
              "name": "stakingPal",
              "type": "address"
            },
            {
              "internalType": "uint32",
              "name": "operatorShare",
              "type": "uint32"
            },
            {
              "internalType": "uint32",
              "name": "stakingPalShare",
              "type": "uint32"
            }
          ],
          "internalType": "struct IStructs.Pool",
          "name": "",
          "type": "tuple"
        }
      ],
      "stateMutability": "view",
      "type": "function"
    },
    {
      "inputs": [
        {
          "internalType": "bytes32",
          "name": "poolId",
          "type": "bytes32"
        }
      ],
      "name": "getStakingPoolStatsThisEpoch",
      "outputs": [
        {
          "components": [
            {
              "internalType": "uint256",
              "name": "feesCollected",
              "type": "uint256"
            },
            {
              "internalType": "uint256",
              "name": "weightedStake",
              "type": "uint256"
            },
            {
              "internalType": "uint256",
              "name": "membersStake",
              "type": "uint256"
            }
          ],
          "internalType": "struct IStructs.PoolStats",
          "name": "",
          "type": "tuple"
        }
      ],
      "stateMutability": "view",
      "type": "function"
    },
    {
      "inputs": [
        {
          "internalType": "address",
          "name": "staker",
          "type": "address"
        }
      ],
      "name": "getTotalStake",
      "outputs": [
        {
          "internalType": "uint256",
          "name": "",
          "type": "uint256"
        }
      ],
      "stateMutability": "view",
      "type": "function"
    },
    {
      "inputs": [
        {
          "internalType": "bytes32",
          "name": "poolId",
          "type": "bytes32"
        }
      ],
      "name": "getTotalStakeDelegatedToPool",
      "outputs": [
        {
          "components": [
            {
              "internalType": "uint64",
              "name": "currentEpoch",
              "type": "uint64"
            },
            {
              "internalType": "uint96",
              "name": "currentEpochBalance",
              "type": "uint96"
            },
            {
              "internalType": "uint96",
              "name": "nextEpochBalance",
              "type": "uint96"
            }
          ],
          "internalType": "struct IStructs.StoredBalance",
          "name": "balance",
          "type": "tuple"
        }
      ],
      "stateMutability": "view",
      "type": "function"
    },
    {
      "inputs": [],
      "name": "grgReservedForPoolRewards",
      "outputs": [
        {
          "internalType": "uint256",
          "name": "",
          "type": "uint256"
        }
      ],
      "stateMutability": "view",
      "type": "function"
    },
    {
      "inputs": [],
      "name": "init",
      "outputs": [],
      "stateMutability": "nonpayable",
      "type": "function"
    },
    {
      "inputs": [],
      "name": "minimumPoolStake",
      "outputs": [
        {
          "internalType": "uint256",
          "name": "",
          "type": "uint256"
        }
      ],
      "stateMutability": "view",
      "type": "function"
    },
    {
      "inputs": [
        {
          "components": [
            {
              "internalType": "enum IStructs.StakeStatus",
              "name": "status",
              "type": "uint8"
            },
            {
              "internalType": "bytes32",
              "name": "poolId",
              "type": "bytes32"
            }
          ],
          "internalType": "struct IStructs.StakeInfo",
          "name": "from",
          "type": "tuple"
        },
        {
          "components": [
            {
              "internalType": "enum IStructs.StakeStatus",
              "name": "status",
              "type": "uint8"
            },
            {
              "internalType": "bytes32",
              "name": "poolId",
              "type": "bytes32"
            }
          ],
          "internalType": "struct IStructs.StakeInfo",
          "name": "to",
          "type": "tuple"
        },
        {
          "internalType": "uint256",
          "name": "amount",
          "type": "uint256"
        }
      ],
      "name": "moveStake",
      "outputs": [],
      "stateMutability": "nonpayable",
      "type": "function"
    },
    {
      "inputs": [],
      "name": "owner",
      "outputs": [
        {
          "internalType": "address",
          "name": "",
          "type": "address"
        }
      ],
      "stateMutability": "view",
      "type": "function"
    },
    {
      "inputs": [
        {
          "internalType": "address",
          "name": "",
          "type": "address"
        }
      ],
      "name": "poolIdByRbPoolAccount",
      "outputs": [
        {
          "internalType": "bytes32",
          "name": "",
          "type": "bytes32"
        }
      ],
      "stateMutability": "view",
      "type": "function"
    },
    {
      "inputs": [
        {
          "internalType": "bytes32",
          "name": "",
          "type": "bytes32"
        },
        {
          "internalType": "uint256",
          "name": "",
          "type": "uint256"
        }
      ],
      "name": "poolStatsByEpoch",
      "outputs": [
        {
          "internalType": "uint256",
          "name": "feesCollected",
          "type": "uint256"
        },
        {
          "internalType": "uint256",
          "name": "weightedStake",
          "type": "uint256"
        },
        {
          "internalType": "uint256",
          "name": "membersStake",
          "type": "uint256"
        }
      ],
      "stateMutability": "view",
      "type": "function"
    },
    {
      "inputs": [
        {
          "internalType": "address",
          "name": "target",
          "type": "address"
        }
      ],
      "name": "removeAuthorizedAddress",
      "outputs": [],
      "stateMutability": "nonpayable",
      "type": "function"
    },
    {
      "inputs": [
        {
          "internalType": "address",
          "name": "target",
          "type": "address"
        },
        {
          "internalType": "uint256",
          "name": "index",
          "type": "uint256"
        }
      ],
      "name": "removeAuthorizedAddressAtIndex",
      "outputs": [],
      "stateMutability": "nonpayable",
      "type": "function"
    },
    {
      "inputs": [
        {
          "internalType": "address",
          "name": "addr",
          "type": "address"
        }
      ],
      "name": "removePopAddress",
      "outputs": [],
      "stateMutability": "nonpayable",
      "type": "function"
    },
    {
      "inputs": [],
      "name": "rewardDelegatedStakeWeight",
      "outputs": [
        {
          "internalType": "uint32",
          "name": "",
          "type": "uint32"
        }
      ],
      "stateMutability": "view",
      "type": "function"
    },
    {
      "inputs": [
        {
          "internalType": "bytes32",
          "name": "",
          "type": "bytes32"
        }
      ],
      "name": "rewardsByPoolId",
      "outputs": [
        {
          "internalType": "uint256",
          "name": "",
          "type": "uint256"
        }
      ],
      "stateMutability": "view",
      "type": "function"
    },
    {
      "inputs": [
        {
          "internalType": "uint256",
          "name": "_epochDurationInSeconds",
          "type": "uint256"
        },
        {
          "internalType": "uint32",
          "name": "_rewardDelegatedStakeWeight",
          "type": "uint32"
        },
        {
          "internalType": "uint256",
          "name": "_minimumPoolStake",
          "type": "uint256"
        },
        {
          "internalType": "uint32",
          "name": "_cobbDouglasAlphaNumerator",
          "type": "uint32"
        },
        {
          "internalType": "uint32",
          "name": "_cobbDouglasAlphaDenominator",
          "type": "uint32"
        }
      ],
      "name": "setParams",
      "outputs": [],
      "stateMutability": "nonpayable",
      "type": "function"
    },
    {
      "inputs": [
        {
          "internalType": "bytes32",
          "name": "poolId",
          "type": "bytes32"
        },
        {
          "internalType": "address",
          "name": "newStakingPalAddress",
          "type": "address"
        }
      ],
      "name": "setStakingPalAddress",
      "outputs": [],
      "stateMutability": "nonpayable",
      "type": "function"
    },
    {
      "inputs": [
        {
          "internalType": "uint256",
          "name": "amount",
          "type": "uint256"
        }
      ],
      "name": "stake",
      "outputs": [],
      "stateMutability": "nonpayable",
      "type": "function"
    },
    {
      "inputs": [],
      "name": "stakingContract",
      "outputs": [
        {
          "internalType": "address",
          "name": "",
          "type": "address"
        }
      ],
      "stateMutability": "view",
      "type": "function"
    },
    {
      "inputs": [
        {
          "internalType": "address",
          "name": "newOwner",
          "type": "address"
        }
      ],
      "name": "transferOwnership",
      "outputs": [],
      "stateMutability": "nonpayable",
      "type": "function"
    },
    {
      "inputs": [
        {
          "internalType": "uint256",
          "name": "amount",
          "type": "uint256"
        }
      ],
      "name": "unstake",
      "outputs": [],
      "stateMutability": "nonpayable",
      "type": "function"
    },
    {
      "inputs": [
        {
          "internalType": "address",
          "name": "",
          "type": "address"
        }
      ],
      "name": "validPops",
      "outputs": [
        {
          "internalType": "bool",
          "name": "",
          "type": "bool"
        }
      ],
      "stateMutability": "view",
      "type": "function"
    },
    {
      "inputs": [
        {
          "internalType": "bytes32",
          "name": "poolId",
          "type": "bytes32"
        }
      ],
      "name": "withdrawDelegatorRewards",
      "outputs": [],
      "stateMutability": "nonpayable",
      "type": "function"
    }
  ],
  "transactionHash": "0x38e08fc16ab2846cd049a50fd4dcc6572783ffc3509578b93c8c6f7fd14a2546",
  "args": [
    "0x58b5FBe3e8F86a3f22BB9e47129a9FDE4702c221",
    "0x06767e8090bA5c4Eca89ED00C3A719909D503ED6",
    "0x076C619e7ebaBe40746106B66bFBed731F2c1339"
  ],
  "solcInputHash": "656e34d5c2c173c2d18ee1cf3ed6b924",
  "bytecode": "0x6101006040523480156200001257600080fd5b5060405162005a1c38038062005a1c833981016040819052620000359162000084565b600080546001600160a01b03191690556001600160a01b0392831660c05290821660e0521660a05230608052620000ce565b80516001600160a01b03811681146200007f57600080fd5b919050565b6000806000606084860312156200009a57600080fd5b620000a58462000067565b9250620000b56020850162000067565b9150620000c56040850162000067565b90509250925092565b60805160a05160c05160e0516158c762000155600039600081816107a80152611b3f0152600081816109da01528181610eda01528181611166015281816119830152611eb0015260008181610ad701528181610bf4015281816125540152818161313401528181613734015281816137f9015261389d015260006132c801526158c76000f3fe6080604052600436106102c95760003560e01c80638da5cb5b11610175578063d39de6e9116100dc578063e907f00311610095578063ef4ba6801161006f578063ef4ba68014610ac8578063f252b7a114610afb578063f2fde38b14610b1b578063ff691b1114610b3b57600080fd5b8063e907f00314610a75578063ecc128f214610a95578063ee99205c14610aa857600080fd5b8063d39de6e9146109a9578063e0822db7146109cb578063e0ee036e146109fe578063e1c7392a14610a1b578063e804d0a414610a30578063e8eeb3f814610a5057600080fd5b8063b510879f1161012e578063b510879f146108d6578063b9181611146108f6578063bb7ef7e014610926578063be111af414610946578063c18c914114610966578063d14dc2311461099357600080fd5b80638da5cb5b1461082b5780639ad267441461084b5780639c3ccc821461086b578063a26171e21461088b578063a694fc3a146108a1578063b2baa33e146108c157600080fd5b8063494503d4116102345780635e615a6b116101ed57806376671808116101c757806376671808146107835780637a9bd5e4146107995780637fa140c7146107cc57806381666796146107f957600080fd5b80635e615a6b146106fc578063634038011461074d578063707129391461076357600080fd5b8063494503d41461054b5780634bcc3f6714610583578063540c2d5314610666578063587da023146106a657806358f6c7e3146106bc5780635d91121d146106dc57600080fd5b806338229d931161028657806338229d93146103da5780633a8323821461044c5780633e4ad7321461046c57806342f1181e146104c957806344a6958b146104e957806346b979591461050957600080fd5b80630b9663db146102ce5780631e7ff8f6146102f65780631f81eb80146103165780632a94c279146103385780632e17de781461039a57806336d7dd8e146103ba575b600080fd5b3480156102da57600080fd5b506102e3610b5b565b6040519081526020015b60405180910390f35b34801561030257600080fd5b506102e3610311366004615290565b610ed6565b34801561032257600080fd5b50610336610331366004615290565b610f6b565b005b34801561034457600080fd5b5061037f6103533660046152ad565b601460209081526000928352604080842090915290825290208054600182015460029092015490919083565b604080519384526020840192909252908201526060016102ed565b3480156103a657600080fd5b506103366103b53660046152cf565b611043565b3480156103c657600080fd5b506103366103d5366004615290565b611232565b3480156103e657600080fd5b506104246103f53660046152cf565b601560205260009081526040902080546001820154600283015460038401546004909401549293919290919085565b604080519586526020860194909452928401919091526060830152608082015260a0016102ed565b34801561045857600080fd5b506103366104673660046152e8565b6112f3565b34801561047857600080fd5b5061048c6104873660046152cf565b6113a5565b60408051825167ffffffffffffffff1681526020808401516001600160601b039081169183019190915292820151909216908201526060016102ed565b3480156104d557600080fd5b506103366104e4366004615290565b6113d9565b3480156104f557600080fd5b5061048c610504366004615327565b6113ed565b34801561051557600080fd5b506105296105243660046152cf565b611458565b60408051825181526020808401519082015291810151908201526060016102ed565b34801561055757600080fd5b5061056b6105663660046152cf565b6114bf565b6040516001600160a01b0390911681526020016102ed565b34801561058f57600080fd5b5061061b61059e3660046152cf565b6040805160808082018352600080835260208084018290528385018290526060938401829052948152600985528390208351918201845280546001600160a01b0390811683526001909101549081169482019490945263ffffffff600160a01b8504811693820193909352600160c01b9093049091169082015290565b6040805182516001600160a01b039081168252602080850151909116908201528282015163ffffffff90811692820192909252606092830151909116918101919091526080016102ed565b34801561067257600080fd5b50610696610681366004615290565b600f6020526000908152604090205460ff1681565b60405190151581526020016102ed565b3480156106b257600080fd5b506102e3600c5481565b3480156106c857600080fd5b506103366106d736600461536e565b6114e9565b3480156106e857600080fd5b506103366106f73660046153c0565b611795565b34801561070857600080fd5b506010546011546012546013546040805194855263ffffffff93841660208601528401919091528181166060840152640100000000900416608082015260a0016102ed565b34801561075957600080fd5b506102e360105481565b34801561076f57600080fd5b5061033661077e366004615290565b611835565b34801561078f57600080fd5b506102e3600b5481565b3480156107a557600080fd5b507f000000000000000000000000000000000000000000000000000000000000000061056b565b3480156107d857600080fd5b506102e36107e7366004615290565b60086020526000908152604090205481565b34801561080557600080fd5b506013546108169063ffffffff1681565b60405163ffffffff90911681526020016102ed565b34801561083757600080fd5b5060005461056b906001600160a01b031681565b34801561085757600080fd5b506103366108663660046153e3565b611901565b34801561087757600080fd5b5061033661088636600461540f565b611913565b34801561089757600080fd5b506102e360125481565b3480156108ad57600080fd5b506103366108bc3660046152cf565b611980565b3480156108cd57600080fd5b506102e3611a8e565b3480156108e257600080fd5b506103366108f13660046152cf565b611aa5565b34801561090257600080fd5b50610696610911366004615290565b60016020526000908152604090205460ff1681565b34801561093257600080fd5b506102e36109413660046152cf565b611aaf565b34801561095257600080fd5b506102e3610961366004615290565b611b31565b34801561097257600080fd5b506102e36109813660046152cf565b600a6020526000908152604090205481565b34801561099f57600080fd5b506102e360165481565b3480156109b557600080fd5b506109be611dc5565b6040516102ed9190615466565b3480156109d757600080fd5b507f000000000000000000000000000000000000000000000000000000000000000061056b565b348015610a0a57600080fd5b506011546108169063ffffffff1681565b348015610a2757600080fd5b50610336611e27565b348015610a3c57600080fd5b5061048c610a4b3660046154b3565b611e41565b348015610a5c57600080fd5b5060135461081690640100000000900463ffffffff1681565b348015610a8157600080fd5b506102e3610a903660046152e8565b611f8b565b610336610aa33660046153e3565b61201f565b348015610ab457600080fd5b5060035461056b906001600160a01b031681565b348015610ad457600080fd5b507f000000000000000000000000000000000000000000000000000000000000000061056b565b348015610b0757600080fd5b5061048c610b163660046153e3565b612254565b348015610b2757600080fd5b50610336610b36366004615290565b612296565b348015610b4757600080fd5b50610336610b563660046152cf565b61233f565b600b5460009081610b6d6001836154e4565b6000818152601560205260409020600101549091508015610be95760405162461bcd60e51b815260206004820152602b60248201527f5354414b494e475f4d495353494e475f504f4f4c535f544f5f42455f46494e4160448201526a2624ad22a22fa2a92927a960a91b60648201526084015b60405180910390fd5b6001831115610dcd577f00000000000000000000000000000000000000000000000000000000000000006001600160a01b031663075461726040518163ffffffff1660e01b8152600401602060405180830381865afa158015610c50573d6000803e3d6000fd5b505050506040513d601f19601f82011682018060405250810190610c7491906154f7565b6001600160a01b031663c551a2f96040518163ffffffff1660e01b81526004016020604051808303816000875af1925050508015610ccf575060408051601f3d908101601f19168201909252610ccc91810190615514565b60015b610d9857610cdb61552d565b806308c379a003610d375750610cef615584565b80610cfa5750610d39565b7f1fc94326c4f979e0a19555aef364d7490acf6840560fc01c723e320d6f2d96c181604051610d299190615654565b60405180910390a150610dcd565b505b3d808015610d63576040519150601f19603f3d011682016040523d82523d6000602084013e610d68565b606091505b507f349211c9e282ed467b636a7fe2ccdd287a3f7c67969d4e5fd2ee539df22ed61381604051610d299190615654565b6040518181527f02781ecbb97cbe2fbf6a9b934f9aa6422aca2d528ad53fbfb31f70bc47bcfa5b9060200160405180910390a1505b610dd561254a565b600084815260156020908152604091829020838155825160a0810184528481526001820154928101839052600282015481850181905260038301546060830181905260049093015460808301529351909488947fbb4a26fa0ace13ee4da343896c20eaa44a618fb9071fdd8c2e2c960a4583189d94610e699490845260208401929092526040830152606082015260800190565b60405180910390a2610e796125ea565b8060200151600003610eca57805160405185917fb463d19ecf455be65365092cf8e1db6934a0334cf8cd532ddf9964d01f36b5b291610ec19160008252602082015260400190565b60405180910390a25b60200151949350505050565b60007f00000000000000000000000000000000000000000000000000000000000000006040516370a0823160e01b81526001600160a01b03848116600483015291909116906370a0823190602401602060405180830381865afa158015610f41573d6000803e3d6000fd5b505050506040513d601f19601f82011682018060405250810190610f659190615514565b92915050565b610f73612662565b6001600160a01b0381166000908152600f602052604090205460ff1615610fe85760405162461bcd60e51b8152602060048201526024808201527f5354414b494e475f504f505f414c52454144595f524547495354455245445f45604482015263292927a960e11b6064820152608401610be0565b6001600160a01b0381166000818152600f6020908152604091829020805460ff1916600117905590519182527f5738ee3c8e8fe8b0b9c4c21b16fdca42ec02e271237dfeabbf3b5af1584d732b91015b60405180910390a150565b3360008181527f05b8ccbb9d4d8fb16ea74ce3c29a41f1b461fbdaff4714a0d9a8eb05499746bc6020526040812061107a906126d2565b9050600081604001516001600160601b031682602001516001600160601b0316106110a95781604001516110af565b81602001515b6001600160601b03169050808411156111235760405162461bcd60e51b815260206004820152603060248201527f4d4f56455f5354414b455f414d4f554e545f4849474845525f5448414e5f574960448201526f2a24222920aba0a12622afa2a92927a960811b6064820152608401610be0565b6001600160a01b03831660009081527f05b8ccbb9d4d8fb16ea74ce3c29a41f1b461fbdaff4714a0d9a8eb05499746bc60205260409020611164908561276d565b7f0000000000000000000000000000000000000000000000000000000000000000604051639470b0bd60e01b81526001600160a01b038581166004830152602482018790529190911690639470b0bd90604401600060405180830381600087803b1580156111d157600080fd5b505af11580156111e5573d6000803e3d6000fd5b50505050826001600160a01b03167f85082129d87b2fe11527cb1b3b7a520aeb5aa6913f88a3d8757fe40d1db02fdd8560405161122491815260200190565b60405180910390a250505050565b61123a612662565b6001600160a01b0381166000908152600f602052604090205460ff166112a25760405162461bcd60e51b815260206004820181905260248201527f5354414b494e475f504f505f4e4f545f524547495354455245445f4552524f526044820152606401610be0565b6001600160a01b0381166000818152600f6020908152604091829020805460ff1916905590519182527f9bf55462cb5fa187f725d06de0a70bc01c4e40695570bdc25ad116f9be46bda79101611038565b816112fd816127d5565b60008381526009602052604090206001600160a01b03831615801590611333575060018101546001600160a01b03848116911614155b61137f5760405162461bcd60e51b815260206004820152601e60248201527f5354414b494e475f50414c5f4e554c4c5f4f525f53414d455f4552524f5200006044820152606401610be0565b60010180546001600160a01b0319166001600160a01b0393909316929092179091555050565b60408051606081018252600080825260208201819052918101919091526000828152600760205260409020610f65906126d2565b6113e161283c565b6113ea8161288f565b50565b60408051606081018252600080825260208201819052918101919091526114516005600084600181111561142357611423615667565b60ff168152602080820192909252604090810160009081206001600160a01b038816825290925290206126d2565b9392505050565b61147c60405180606001604052806000815260200160008152602001600081525090565b506000908152601460209081526040808320600b548452825291829020825160608101845281548152600182015492810192909252600201549181019190915290565b600281815481106114cf57600080fd5b6000918252602090912001546001600160a01b0316905081565b33600082900361153b5760405162461bcd60e51b815260206004820152601c60248201527f4d4f56455f5354414b455f414d4f554e545f4e554c4c5f4552524f52000000006044820152606401610be0565b600061154a60208601866154b3565b600181111561155b5761155b615667565b1480156115855750600061157260208501856154b3565b600181111561158357611583615667565b145b156115e85760405162461bcd60e51b815260206004820152602d60248201527f4d4f56455f5354414b455f554e44454c4547415445445f5354415455535f554e60448201526c21a420a723a2a22fa2a92927a960991b6064820152608401610be0565b60016115f760208601866154b3565b600181111561160857611608615667565b0361161c5761161c846020013582846129ea565b600161162b60208501856154b3565b600181111561163c5761163c615667565b036116505761165083602001358284612a76565b600060058161166260208801886154b3565b600181111561167357611673615667565b60ff168152602080820192909252604090810160009081206001600160a01b0386168252835290812092509060059082906116b0908801886154b3565b60018111156116c1576116c1615667565b60ff168152602080820192909252604090810160009081206001600160a01b0387168252909252902090506116f7828286612b02565b6020808601359087018035906001600160a01b038616907f7d3ad1dcf03b9027064d1d9a474a69e0cecc31324c541d3eb9b5e6fa2f106c8d90889061173c908c6154b3565b600181111561174d5761174d615667565b61175a60208c018c6154b3565b600181111561176b5761176b615667565b6040805193845260ff928316602085015291169082015260600160405180910390a4505050505050565b8161179f816127d5565b600083815260096020526040902060010154600160a01b900463ffffffff166117c88184612c3e565b600084815260096020908152604091829020600101805463ffffffff60a01b1916600160a01b63ffffffff88811691820292909217909255835190851681529182015285917f8ea2a7a959bd25f226b7b0a4393613f7fdcaa8404e8bad96aa52dc1c145901679101611224565b61183d61283c565b6001600160a01b03811660009081526001602052604090205460ff1661189d5760405162461bcd60e51b815260206004820152601560248201527415105491d15517d393d517d055551213d492569151605a1b6044820152606401610be0565b60005b6002548110156118eb57816001600160a01b0316600282815481106118c7576118c761567d565b6000918252602090912001546001600160a01b0316036118ef576118eb8282612d10565b5050565b806118f981615693565b9150506118a0565b61190961283c565b6118eb8282612d10565b61191b612662565b6119288585858585612f7f565b306001600160a01b031663c6f3a4276040518163ffffffff1660e01b815260040160006040518083038186803b15801561196157600080fd5b505afa158015611975573d6000803e3d6000fd5b505050505050505050565b337f0000000000000000000000000000000000000000000000000000000000000000604051630ae61b7960e11b81526001600160a01b0383811660048301526024820185905291909116906315cc36f290604401600060405180830381600087803b1580156119ee57600080fd5b505af1158015611a02573d6000803e3d6000fd5b505050506001600160a01b03811660009081527f05b8ccbb9d4d8fb16ea74ce3c29a41f1b461fbdaff4714a0d9a8eb05499746bc60205260409020611a47908361301d565b806001600160a01b03167febedb8b3c678666e7f36970bc8f57abf6d8fa2e828c0da91ea5b75bf68ed101a83604051611a8291815260200190565b60405180910390a25050565b6000601054600c54611aa091906156ac565b905090565b6113ea813361306a565b6000818152600960209081526040808320815160808101835281546001600160a01b0390811682526001909201549182169381019390935263ffffffff600160a01b8204811692840192909252600160c01b90041660608201528180611b14856131d3565b91509150611b2783604001518383613280565b5095945050505050565b6000611b3b6132be565b60007f0000000000000000000000000000000000000000000000000000000000000000604051632cee219160e01b81526001600160a01b0385811660048301529190911690632cee219190602401602060405180830381865afa158015611ba6573d6000803e3d6000fd5b505050506040513d601f19601f82011682018060405250810190611bca9190615514565b905080611c195760405162461bcd60e51b815260206004820152601c60248201527f4e4f4e5f524547495354455245445f52425f504f4f4c5f4552524f52000000006044820152606401610be0565b6000836001600160a01b0316638da5cb5b6040518163ffffffff1660e01b8152600401602060405180830381865afa158015611c59573d6000803e3d6000fd5b505050506040513d601f19601f82011682018060405250810190611c7d91906154f7565b905060006001600160a01b0382163303611c98576000611c9a565b335b9050620aae60620186a0611cad85613344565b604080516080810182526001600160a01b038087168252858116602080840191825263ffffffff8088168587019081528782166060870190815260008d8152600990945292879020865181549087166001600160a01b0319909116178155935160019094018054915193518316600160c01b0263ffffffff60c01b1994909316600160a01b026001600160c01b031990921694909516939093179290921716179055905195965086957fcec6fc86ea644053f6edff1160dfe3fa5c61e7a5ef9f873f145bb03a0bd319e790611da7908890889087909283526001600160a01b0391909116602083015263ffffffff16604082015260600190565b60405180910390a1611db987896133b3565b5050505050505b919050565b60606002805480602002602001604051908101604052809291908181526020018280548015611e1d57602002820191906000526020600020905b81546001600160a01b03168152600190910190602001808311611dff575b5050505050905090565b611e2f612662565b611e376133fa565b611e3f61340d565b565b604080516060810182526000808252602082018190529181019190915260016000526004602052611e917fabd6e7cb50984ff9c2f3e18a2660c3353dadf4e3291deeb275dae2cd1e44fe056126d2565b90506000826001811115611ea757611ea7615667565b03611dc05760007f00000000000000000000000000000000000000000000000000000000000000006001600160a01b0316636b6df5aa6040518163ffffffff1660e01b8152600401602060405180830381865afa158015611f0c573d6000803e3d6000fd5b505050506040513d601f19601f82011682018060405250810190611f309190615514565b9050611f5382602001516001600160601b031682611f4e91906154e4565b61345f565b6001600160601b0390811660208401526040830151611f7791611f4e9116836154e4565b6001600160601b0316604083015250919050565b6000828152600960209081526040808320815160808101835281546001600160a01b0390811682526001909201549182169381019390935263ffffffff600160a01b8204811692840192909252600160c01b90041660608201528180611ff0866131d3565b91509150600061200584604001518484613280565b915050612014878783856134c6565b979650505050505050565b336000908152600f602052604090205460ff166120895760405162461bcd60e51b815260206004820152602260248201527f5354414b494e475f4f4e4c595f43414c4c41424c455f42595f504f505f45525260448201526127a960f11b6064820152608401610be0565b6001600160a01b038216600090815260086020526040902054806120ef5760405162461bcd60e51b815260206004820152601a60248201527f5354414b494e475f4e554c4c5f504f4f4c5f49445f4552524f520000000000006044820152606401610be0565b60006120fa826113a5565b602001516001600160601b031690506012548110156121655760405162461bcd60e51b815260206004820152602160248201527f5354414b494e475f5354414b455f42454c4f575f4d494e494d554d5f4552524f6044820152602960f91b6064820152608401610be0565b600b5460008381526014602090815260408083208484528252808320601590925282208154919290919081900361221c576000806121a388886135d3565b91509150818560020181905550808560010181905550808460030160008282546121cd91906156ac565b9091555050600184810180546000906121e79084906156ac565b9091555050604051889087907f14b098103235344975b17508c2391721cc9ac3f3fa2b56c7ff46f8480dfd074f90600090a350505b8087111561224a5786835561223181886154e4565b82600201600082825461224491906156ac565b90915550505b5050505050505050565b60408051606081018252600080825260208083018290528284018290526001600160a01b038616825260068152838220858352905291909120611451906126d2565b61229e61283c565b6001600160a01b0381166122f45760405162461bcd60e51b815260206004820152601860248201527f494e5055545f414444524553535f4e554c4c5f4552524f5200000000000000006044820152606401610be0565b600080546001600160a01b0319166001600160a01b0383169081178255604051909133917f8be0079c531659141344cd1fd0a4f28419497f9722a3daafe3b4186f6b6457e09190a350565b600b54600061234f6001836154e4565b6000818152601560209081526040808320815160a0810183528154815260018201549381018490526002820154928101929092526003810154606083015260040154608082015292935090036123a55750505050565b60008481526014602090815260408083208584528252808320815160608101835281548082526001830154948201949094526002909101549181019190915291036123f1575050505050565b60008581526014602090815260408083208684529091528120818155600181018290556002018190556124248284613640565b9050600080612438888486604001516136ad565b9150915087877ff1116b309178aa62dcb6bf8c3b8bc2321724907c7ebf52192d14c8ce3aa9194c8484604051612478929190918252602082015260400190565b60405180910390a3600061248c82846156ac565b905080866080015161249e91906156ac565b608087018190526000888152601560209081526040909120600401919091558601516124cc906001906154e4565b602080880182815260008a81526015909252604082206001019290925590519003611975576080860151865188917fb463d19ecf455be65365092cf8e1db6934a0334cf8cd532ddf9964d01f36b5b2916125279082906154e4565b6040805192835260208301919091520160405180910390a2505050505050505050565b60006016546125767f000000000000000000000000000000000000000000000000000000000000000090565b6040516370a0823160e01b81523060048201526001600160a01b0391909116906370a0823190602401602060405180830381865afa1580156125bc573d6000803e3d6000fd5b505050506040513d601f19601f820116820180604052508101906125e09190615514565b611aa091906154e4565b4260006125f5611a8e565b9050818111156126475760405162461bcd60e51b815260206004820152601f60248201527f5354414b494e475f54494d455354414d505f544f4f5f4c4f575f4552524f52006044820152606401610be0565b6000600b54600161265891906156ac565b600b555050600c55565b3360009081526001602052604090205460ff16611e3f5760405162461bcd60e51b815260206004820152602860248201527f415554484f52495a41424c455f53454e4445525f4e4f545f415554484f52495a60448201526722a22fa2a92927a960c11b6064820152608401610be0565b60408051606081018252600080825260208201819052918101919091525060408051606081018252825467ffffffffffffffff81168083526001600160601b03600160401b830481166020850152600160a01b90920490911692820192909252600b5490918111156127675761274781613964565b67ffffffffffffffff16825260408201516001600160601b031660208301525b50919050565b6000612778836126d2565b90506127838261345f565b8160400181815161279491906156bf565b6001600160601b03169052506127a98261345f565b816020018181516127ba91906156bf565b6001600160601b03169052506127d083826139cc565b505050565b6000818152600960205260409020546001600160a01b03163381146118eb5760405162461bcd60e51b815260206004820152601960248201527f43414c4c45525f4e4f545f4f50455241544f525f4552524f52000000000000006044820152606401610be0565b6000546001600160a01b03163314611e3f5760405162461bcd60e51b815260206004820152601660248201527521a0a62622a92fa727aa2fa7aba722a92fa2a92927a960511b6044820152606401610be0565b6001600160a01b0381166128e55760405162461bcd60e51b815260206004820152601f60248201527f415554484f52495a41424c455f4e554c4c5f414444524553535f4552524f52006044820152606401610be0565b6001600160a01b03811660009081526001602052604090205460ff161561295c5760405162461bcd60e51b815260206004820152602560248201527f415554484f52495a41424c455f414c52454144595f415554484f52495a45445f60448201526422a92927a960d91b6064820152608401610be0565b6001600160a01b0381166000818152600160208190526040808320805460ff19168317905560028054928301815583527f405787fa12a823e0f2b7631cc41b3ba8828b3321ca811111fa75cd3aa3bb5ace90910180546001600160a01b03191684179055513392917f3147867c59d17e8fa9d522465651d44aae0a9e38f902f3475b97e58072f0ed4c91a350565b6129f383613a3b565b6129fd838361306a565b6001600160a01b03821660009081526006602090815260408083208684529091529020612a2a9082613aa9565b6000838152600760205260409020612a429082613aa9565b600160005260046020526127d07fabd6e7cb50984ff9c2f3e18a2660c3353dadf4e3291deeb275dae2cd1e44fe0582613aa9565b612a7f83613a3b565b612a89838361306a565b6001600160a01b03821660009081526006602090815260408083208684529091529020612ab69082613ad0565b6000838152600760205260409020612ace9082613ad0565b600160005260046020526127d07fabd6e7cb50984ff9c2f3e18a2660c3353dadf4e3291deeb275dae2cd1e44fe0582613ad0565b81831460011615612b555760405162461bcd60e51b815260206004820152601c60248201527f5354414b494e475f504f494e544552535f455155414c5f4552524f52000000006044820152606401610be0565b6000612b60846126d2565b90506000612b6d846126d2565b905081604001516001600160601b0316831115612bd75760405162461bcd60e51b815260206004820152602260248201527f5354414b494e475f494e53554646494349454e545f42414c414e43455f45525260448201526127a960f11b6064820152608401610be0565b612be08361345f565b82604001818151612bf191906156bf565b6001600160601b0316905250612c068361345f565b81604001818151612c1791906156df565b6001600160601b0316905250612c2d85836139cc565b612c3784826139cc565b5050505050565b620f424063ffffffff82161115612ca35760405162461bcd60e51b8152602060048201526024808201527f4f50455241544f525f53484152455f4249474745525f5448414e5f4d41585f45604482015263292927a960e11b6064820152608401610be0565b8163ffffffff168163ffffffff1611156118eb5760405162461bcd60e51b815260206004820152602860248201527f4f50455241544f525f53484152455f4249474745525f5448414e5f4355525245604482015267272a2fa2a92927a960c11b6064820152608401610be0565b6001600160a01b03821660009081526001602052604090205460ff16612d8a5760405162461bcd60e51b815260206004820152602960248201527f415554484f52495a41424c455f414444524553535f4e4f545f415554484f52496044820152682d22a22fa2a92927a960b91b6064820152608401610be0565b6002548110612dea5760405162461bcd60e51b815260206004820152602660248201527f415554484f52495a41424c455f494e4445585f4f55545f4f465f424f554e44536044820152652fa2a92927a960d11b6064820152608401610be0565b816001600160a01b031660028281548110612e0757612e0761567d565b6000918252602090912001546001600160a01b031614612e755760405162461bcd60e51b815260206004820152602360248201527f415554484f52495a41424c455f414444524553535f4d49534d415443485f45526044820152622927a960e91b6064820152608401610be0565b6001600160a01b0382166000908152600160208190526040909120805460ff19169055600280549091612ea7916154e4565b81548110612eb757612eb761567d565b600091825260209091200154600280546001600160a01b039092169183908110612ee357612ee361567d565b9060005260206000200160006101000a8154816001600160a01b0302191690836001600160a01b031602179055506002805480612f2257612f226156ff565b600082815260208120820160001990810180546001600160a01b031916905590910190915560405133916001600160a01b038516917f1f32c1b084e2de0713b8fb16bd46bb9df710a3dbeae2f3ca93af46e016dcc6b09190a35050565b60108590556011805463ffffffff191663ffffffff86811691821790925560128590556013805485841667ffffffffffffffff199091168117640100000000948616948502179091556040805189815260208101939093528201869052606082015260808101919091527f613157dbb0e920deab8ad6ddd3805e87cbf57344b9fe780f1764790ec78975429060a00160405180910390a15050505050565b6000613028836126d2565b90506130338261345f565b8160400181815161304491906156df565b6001600160601b03169052506130598261345f565b816020018181516127ba91906156df565b61307382613af7565b600061308283836000806134c6565b6001600160a01b038316600090815260066020908152604080832087845290915290209091506130b1906126d2565b6001600160a01b038084166000908152600660209081526040808320888452825291829020845181549286015195909301516001600160601b03908116600160a01b029516600160401b026001600160a01b031990921667ffffffffffffffff909316929092171790911691909117905580156131ca576131328382613b99565b7f000000000000000000000000000000000000000000000000000000000000000060405163a9059cbb60e01b81526001600160a01b03848116600483015260248201849052919091169063a9059cbb906044016020604051808303816000875af11580156131a4573d6000803e3d6000fd5b505050506040513d601f19601f820116820180604052508101906131c89190615715565b505b6127d083613bd9565b60008060006001600b546131e791906154e4565b600085815260146020908152604080832084845282528083208151606080820184528254825260018084015483870152600293840154838601528787526015865295849020845160a08101865281548152968101549587019590955291840154928501929092526003830154908401526004909101546080830152919250613270908290613640565b9350806040015192505050915091565b60008082600003613293578391506132b6565b6132a763ffffffff8616620f424086613be6565b91506132b382856154e4565b90505b935093915050565b6001600160a01b037f0000000000000000000000000000000000000000000000000000000000000000163003611e3f5760405162461bcd60e51b815260206004820152602560248201527f5354414b494e475f4449524543545f43414c4c5f4e4f545f414c4c4f5745445f60448201526422a92927a960d91b6064820152608401610be0565b6000818152600960205260409020546001600160a01b0316156113ea5760405162461bcd60e51b815260206004820152602160248201527f5354414b494e475f504f4f4c5f414c52454144595f4558495354535f4552524f6044820152602960f91b6064820152608401610be0565b6001600160a01b038116600081815260086020526040808220859055518492917fe8b9f7ee7a4480d45b60e98f7b2090dd82e2353b8557a6ee2dd2d5ee9196bac291a35050565b613402613c12565b42600c556001600b55565b613415613c76565b621275006000606461342b620f4240605a615737565b6134359190615775565b9050600061344c670de0b6b3a76400006064615798565b905060026003612c378585858585612f7f565b806001600160601b0381168114611dc05760405162461bcd60e51b815260206004820152602560248201527f56414c55455f544f4f5f4c415247455f544f5f444f574e434153545f544f5f5560448201526424a72a1c9b60d91b6064820152608401610be0565b600b546001600160a01b038416600090815260066020908152604080832088845282528083208151606081018352905467ffffffffffffffff81168083526001600160601b03600160401b8304811695840195909552600160a01b9091049093169181019190915291929190829003613544576000925050506135cb565b61355081838787613d27565b815190935060009061356d9067ffffffffffffffff1660016156ac565b90506135968883602001516001600160601b0316846000015167ffffffffffffffff1684613da2565b6135a090856156ac565b93506135bb8883604001516001600160601b03168386613da2565b6135c590856156ac565b93505050505b949350505050565b600082815260096020526040812054819081906135f9906001600160a01b031686612254565b602001516001600160601b0316905061361281856154e4565b60115490935061362c9063ffffffff16620f424085613e3b565b61363690826156ac565b9150509250929050565b815160009015610f65578151835160408401516020860151606086015160135461368095949392919063ffffffff80821691640100000000900416613e48565b905060008260800151836000015161369891906154e4565b9050818110156136a6578091505b5092915050565b6000838152600960209081526040808320815160808101835281546001600160a01b0390811682526001909201549182169381019390935263ffffffff600160a01b82048116928401839052600160c01b909104166060830152829190613715908686613280565b909350915082156139405760208101516001600160a01b03166137ce577f0000000000000000000000000000000000000000000000000000000000000000815160405163a9059cbb60e01b81526001600160a01b0391821660048201526024810186905291169063a9059cbb906044016020604051808303816000875af11580156137a4573d6000803e3d6000fd5b505050506040513d601f19601f820116820180604052508101906137c89190615715565b50613940565b6060810151600090620f4240906137eb9063ffffffff1686615798565b6137f591906157af565b90507f0000000000000000000000000000000000000000000000000000000000000000602083015160405163a9059cbb60e01b81526001600160a01b0391821660048201526024810184905291169063a9059cbb906044016020604051808303816000875af115801561386c573d6000803e3d6000fd5b505050506040513d601f19601f820116820180604052508101906138909190615715565b5081516001600160a01b037f0000000000000000000000000000000000000000000000000000000000000000169063a9059cbb906138ce84886154e4565b6040516001600160e01b031960e085901b1681526001600160a01b03909216600483015260248201526044016020604051808303816000875af1158015613919573d6000803e3d6000fd5b505050506040513d601f19601f8201168201806040525081019061393d9190615715565b50505b811561395b576139508683613f04565b61395b868386613f3b565b50935093915050565b8067ffffffffffffffff81168114611dc05760405162461bcd60e51b815260206004820152602560248201527f56414c55455f544f4f5f4c415247455f544f5f444f574e434153545f544f5f556044820152641253950d8d60da1b6064820152608401610be0565b8051825460408301516020909301516001600160601b03908116600160401b0273ffffffffffffffffffffffff00000000000000001991909416600160a01b0273ffffffffffffffffffffffff000000000000000090921667ffffffffffffffff909316929092171716179055565b6000818152600960205260409020546001600160a01b03166113ea5760405162461bcd60e51b815260206004820152602160248201527f5354414b494e475f504f4f4c5f444f45535f4e4f545f45584953545f4552524f6044820152602960f91b6064820152608401610be0565b6000613ab4836126d2565b9050613abf8261345f565b816040018181516127ba91906156bf565b6000613adb836126d2565b9050613ae68261345f565b816040018181516127ba91906156df565b60006001600b54613b0891906154e4565b6000838152601460209081526040808320848452825291829020825160608101845281548082526001830154938201939093526002909101549281019290925291925090156127d05760405162461bcd60e51b815260206004820181905260248201527f5354414b494e475f504f4f4c5f4e4f545f46494e414c495a45445f4552524f526044820152606401610be0565b6000828152600a602052604081208054839290613bb79084906154e4565b925050819055508060166000828254613bd091906154e4565b90915550505050565b6113ea8160006001613f3b565b600082613bf46001826154e4565b613bfe8487615798565b613c0891906156ac565b6135cb91906157af565b600c5415611e3f5760405162461bcd60e51b815260206004820152602b60248201527f5354414b494e475f5343484544554c45525f414c52454144595f494e4954494160448201526a2624ad22a22fa2a92927a960a91b6064820152608401610be0565b60105415801590613c8e575060115463ffffffff1615155b8015613c9b575060125415155b8015613cae575060135463ffffffff1615155b8015613cc95750601354640100000000900463ffffffff1615155b15611e3f5760405162461bcd60e51b815260206004820152602860248201527f5354414b494e475f504152414d535f414c52454144595f494e495a49414c495a60448201526722a22fa2a92927a960c11b6064820152608401610be0565b6000821580613d34575081155b15613d41575060006135cb565b6000613d4e6001866154e4565b865167ffffffffffffffff161015613d6a578560400151613d70565b85602001515b6001600160601b0316905080600003613d8d5760009150506135cb565b613d98848483613e3b565b9695505050505050565b6000831580613db057508183145b15613dbd575060006135cb565b818310613e025760405162461bcd60e51b815260206004820152601360248201527210d497d25395115495905317d2539590531251606a1b6044820152606401610be0565b6000613e0e868561401f565b90506000613e1c878561401f565b905061201481600001518260200151846000015185602001518a614123565b600082613c088386615798565b600080613e5588886141ac565b90506000613e6387876141ac565b9050811580613e70575080155b15613e8057600092505050612014565b600081831315613e9957613e94828461424e565b613ea3565b613ea3838361424e565b9050613ec6613ec1613eb483614261565b8860030b8860030b614885565b614894565b905081831315613edf57613eda828261424e565b613ee9565b613ee98282614fc8565b9050613ef5818c614fee565b9b9a5050505050505050505050565b6000828152600a602052604081208054839290613f229084906156ac565b925050819055508060166000828254613bd091906156ac565b6000838152600e6020526040902054600b54808203613f5b575050505050565b6000858152600d6020908152604080832085845282528083208151808301835281548152600190910154818401908152825180840190935284835292820193909352905115613fd857613fb882600001518360200151888861505e565b60208301819052818352613fcc91906150bb565b60208301528152613fe3565b602081018590528581525b6000878152600d6020908152604080832086845282528083208451815593820151600190940193909355978152600e9097529095205550505050565b60408051808201825260008082526020918201819052848152600d8252828120848252825282902082518084019093528054835260010154908201819052610f6557600061406e6001846154e4565b6000858152600d6020908152604080832084845282529182902082518084019093528054835260010154908201819052909350909150156140af5750610f65565b6000848152600e602052604090205483811015614105576000858152600d602090815260408083208484528252918290208251808401909352805483526001015490820181905290935015614105575050610f65565b50506040805180820190915260008152600160208201529392505050565b600081600003614135575060006141a3565b8360000361415957846141488784615798565b61415291906157af565b90506141a3565b60006141658686615798565b61416f8589615798565b61417991906154e4565b9050600061418785836157af565b9050866141948286615798565b61419e91906157af565b925050505b95945050505050565b6000808312156141f25760405162461bcd60e51b8152602060048201526011602482015270272faa27a7afa620a923a2afa2a92927a960791b6044820152606401610be0565b60008212156142375760405162461bcd60e51b8152602060048201526011602482015270222faa27a7afa620a923a2afa2a92927a960791b6044820152606401610be0565b611451614248846001607f1b6150d8565b83615164565b6000611451614248846001607f1b6150d8565b60006001607f1b8213156142ab5760405162461bcd60e51b81526020600482015260116024820152702c2faa27a7afa620a923a2afa2a92927a960791b6044820152606401610be0565b600082136142ef5760405162461bcd60e51b81526020600482015260116024820152702c2faa27a7afa9a6a0a6262fa2a92927a960791b6044820152606401610be0565b6001607f1b820361430257506000919050565b640733048c5a821361431c57610f656101ff607c1b6157c3565b60008060006a01c8464f76164760000000851361436a57614341600160841b856157df565b93506a01c8464f7616476000000061435d6001607f1b876157ff565b614367919061582f565b94505b6cf1aaddd7742e9000000000000085136143b75761438c600160831b856157df565b93506cf1aaddd7742e900000000000006143aa6001607f1b876157ff565b6143b4919061582f565b94505b6615fc21041027af603f1b85136143fe576143d6600160821b856157df565b93506615fc21041027af603f1b6143f16001607f1b876157ff565b6143fb919061582f565b94505b660960aadc109e7b60461b85136144455761441d600160811b856157df565b9350660960aadc109e7b60461b6144386001607f1b876157ff565b614442919061582f565b94505b660454aaa8efe073604a1b851361448c57614464600160801b856157df565b9350660454aaa8efe073604a1b61447f6001607f1b876157ff565b614489919061582f565b94505b6602f16ac6c59de7604c1b85136144d3576144ab6001607f1b856157df565b93506602f16ac6c59de7604c1b6144c66001607f1b876157ff565b6144d0919061582f565b94505b6609b4597e37cb05604b1b851361451a576144f26001607e1b856157df565b93506609b4597e37cb05604b1b61450d6001607f1b876157ff565b614517919061582f565b94505b6618ebef9eac820b604a1b8513614561576145396001607d1b856157df565b93506618ebef9eac820b604a1b6145546001607f1b876157ff565b61455e919061582f565b94505b6f70f5a893b608861e1f58934f97aea57d85136145b4576145866001607c1b856157df565b93506f70f5a893b608861e1f58934f97aea57d6145a76001607f1b876157ff565b6145b1919061582f565b94505b6145c26001607f1b866157df565b92508291506001607f1b6145d683806157ff565b6145e0919061582f565b9050600160801b6145f184826157df565b6145fb90846157ff565b614605919061582f565b61460f908561585d565b93506001607f1b61462082846157ff565b61462a919061582f565b9150600160811b61464b846faaaaaaaaaaaaaaaaaaaaaaaaaaaaaaaa6157df565b61465590846157ff565b61465f919061582f565b614669908561585d565b93506001607f1b61467a82846157ff565b614684919061582f565b9150600360801b6146a5846f999999999999999999999999999999996157df565b6146af90846157ff565b6146b9919061582f565b6146c3908561585d565b93506001607f1b6146d482846157ff565b6146de919061582f565b9150600160821b6146ff846f924924924924924924924924924924926157df565b61470990846157ff565b614713919061582f565b61471d908561585d565b93506001607f1b61472e82846157ff565b614738919061582f565b9150600560801b614759846f8e38e38e38e38e38e38e38e38e38e38e6157df565b61476390846157ff565b61476d919061582f565b614777908561585d565b93506001607f1b61478882846157ff565b614792919061582f565b9150600360811b6147b3846f8ba2e8ba2e8ba2e8ba2e8ba2e8ba2e8b6157df565b6147bd90846157ff565b6147c7919061582f565b6147d1908561585d565b93506001607f1b6147e282846157ff565b6147ec919061582f565b9150600760801b61480d846f89d89d89d89d89d89d89d89d89d89d896157df565b61481790846157ff565b614821919061582f565b61482b908561585d565b93506001607f1b61483c82846157ff565b614846919061582f565b9150600160831b614867846f888888888888888888888888888888886157df565b61487190846157ff565b61487b919061582f565b6141a3908561585d565b60006135cb61424885856150d8565b60006148a46101ff607c1b6157c3565b8212156148b357506000919050565b816000036148c657506001607f1b919050565b600082131561490b5760405162461bcd60e51b81526020600482015260116024820152702c2faa27a7afa620a923a2afa2a92927a960791b6044820152606401610be0565b60008061491c6001607c1b8561587d565b91508190506001607f1b61493082806157ff565b61493a919061582f565b905061494e816710e1b3be415a00006157ff565b614958908461585d565b92506001607f1b61496983836157ff565b614973919061582f565b9050614987816705a0913f6b1e00006157ff565b614991908461585d565b92506001607f1b6149a283836157ff565b6149ac919061582f565b90506149c081670168244fdac780006157ff565b6149ca908461585d565b92506001607f1b6149db83836157ff565b6149e5919061582f565b90506149f881664807432bc180006157ff565b614a02908461585d565b92506001607f1b614a1383836157ff565b614a1d919061582f565b9050614a3081660c0135dca040006157ff565b614a3a908461585d565b92506001607f1b614a4b83836157ff565b614a55919061582f565b9050614a68816601b707b1cdc0006157ff565b614a72908461585d565b92506001607f1b614a8383836157ff565b614a8d919061582f565b9050614a9f816536e0f639b8006157ff565b614aa9908461585d565b92506001607f1b614aba83836157ff565b614ac4919061582f565b9050614ad681650618fee9f8006157ff565b614ae0908461585d565b92506001607f1b614af183836157ff565b614afb919061582f565b9050614b0c81649c197dcc006157ff565b614b16908461585d565b92506001607f1b614b2783836157ff565b614b31919061582f565b9050614b4281640e30dce4006157ff565b614b4c908461585d565b92506001607f1b614b5d83836157ff565b614b67919061582f565b9050614b788164012ebd13006157ff565b614b82908461585d565b92506001607f1b614b9383836157ff565b614b9d919061582f565b9050614bad816317499f006157ff565b614bb7908461585d565b92506001607f1b614bc883836157ff565b614bd2919061582f565b9050614be2816301a9d4806157ff565b614bec908461585d565b92506001607f1b614bfd83836157ff565b614c07919061582f565b9050614c1681621c63806157ff565b614c20908461585d565b92506001607f1b614c3183836157ff565b614c3b919061582f565b9050614c4a816201c6386157ff565b614c54908461585d565b92506001607f1b614c6583836157ff565b614c6f919061582f565b9050614c7d81611ab86157ff565b614c87908461585d565b92506001607f1b614c9883836157ff565b614ca2919061582f565b9050614cb08161017c6157ff565b614cba908461585d565b92506001607f1b614ccb83836157ff565b614cd5919061582f565b9050614ce28160146157ff565b614cec908461585d565b92506001607f1b614cfd83836157ff565b614d07919061582f565b9050614d148160016157ff565b614d1e908461585d565b92506001607f1b82614d386721c3677c82b400008661582f565b614d42919061585d565b614d4c919061585d565b9250614d57846157c3565b9350600160841b841615614d9d577243cbaf42a000812488fc5c220ad7b97bf6e99e614d906cf1aaddd7742e56d32fb9f99744856157ff565b614d9a919061582f565b92505b600160831b841615614de2577105d27a9f51c31b7c2f8038212a0574779991614dd56e0afe10820813d65dfe6a33c07f738f856157ff565b614ddf919061582f565b92505b600160821b841615614e2757701b4c902e273a58678d6d3bfdb93db96d02614e1a6f02582ab704279e8efd15e0265855c47a856157ff565b614e24919061582f565b92505b600160811b841615614e6c577003b1cc971a9bb5b9867477440d6d157750614e5f6f1152aaa3bf81cb9fdb76eae12d029571856157ff565b614e69919061582f565b92505b600160801b841615614eb15770015bf0a8b1457695355fb8ac404e7a79e3614ea46f2f16ac6c59de6f8d5d6f63c1482a7c86856157ff565b614eae919061582f565b92505b6001607f1b841615614ef5576fd3094c70f034de4b96ff7d5b6f99fcd8614ee86f4da2cbf1be5827f9eb3ad1aa9866ebb3856157ff565b614ef2919061582f565b92505b6001607e1b841615614f39576fa45af1e1f40c333b3de1db4dd55f29a7614f2c6f63afbe7ab2082ba1a0ae5e4eb1b479dc856157ff565b614f36919061582f565b92505b6001607d1b841615614f7d576f910b022db7ae67ce76b441c27035c6a1614f706f70f5a893b608861e1f58934f97aea57d856157ff565b614f7a919061582f565b92505b6001607c1b841615614fc1576f88415abbe9a76bead8d00cf112e4d4a8614fb46f783eafef1c0a8f3978c7f81824d62ebf856157ff565b614fbe919061582f565b92505b5050919050565b60006001607f1b614fd984846150d8565b81614fe657614fe661575f565b059392505050565b6000808212156150345760405162461bcd60e51b81526020600482015260116024820152702aafaa27a7afa620a923a2afa2a92927a960791b6044820152606401610be0565b600061504084846150d8565b905060008113615054576000915050610f65565b607f1c9392505050565b600080856000036150735750829050816150b2565b836000036150855750849050836150b2565b61508f8585615798565b6150998488615798565b6150a391906156ac565b91506150af8386615798565b90505b94509492505050565b6000806150cd84846001607f1b61521f565b915091509250929050565b60008215806150e5575081155b156150f257506000610f65565b5081810281615101848361582f565b141580615117575082615114838361582f565b14155b15610f655760405162461bcd60e51b815260206004820152601d60248201527f4d554c5449504c49434154494f4e5f4f564552464c4f575f4552524f520000006044820152606401610be0565b6000816000036151af5760405162461bcd60e51b81526020600482015260166024820152752224ab24a9a4a7a72fa12cafad22a927afa2a92927a960511b6044820152606401610be0565b600160ff1b831480156151c3575081600019145b156152105760405162461bcd60e51b815260206004820152601760248201527f4449564953494f4e5f4f564552464c4f575f4552524f520000000000000000006044820152606401610be0565b818381614fe657614fe661575f565b6000808285118061522f57508284115b15615272576000848610156152445784615246565b855b905061525284826157af565b905061525e81876157af565b925061526a81866157af565b9150506132b6565b50929391925050565b6001600160a01b03811681146113ea57600080fd5b6000602082840312156152a257600080fd5b81356114518161527b565b600080604083850312156152c057600080fd5b50508035926020909101359150565b6000602082840312156152e157600080fd5b5035919050565b600080604083850312156152fb57600080fd5b82359150602083013561530d8161527b565b809150509250929050565b803560028110611dc057600080fd5b6000806040838503121561533a57600080fd5b82356153458161527b565b915061535360208401615318565b90509250929050565b60006040828403121561276757600080fd5b600080600060a0848603121561538357600080fd5b61538d858561535c565b925061539c856040860161535c565b9150608084013590509250925092565b803563ffffffff81168114611dc057600080fd5b600080604083850312156153d357600080fd5b82359150615353602084016153ac565b600080604083850312156153f657600080fd5b82356154018161527b565b946020939093013593505050565b600080600080600060a0868803121561542757600080fd5b85359450615437602087016153ac565b93506040860135925061544c606087016153ac565b915061545a608087016153ac565b90509295509295909350565b6020808252825182820181905260009190848201906040850190845b818110156154a75783516001600160a01b031683529284019291840191600101615482565b50909695505050505050565b6000602082840312156154c557600080fd5b61145182615318565b634e487b7160e01b600052601160045260246000fd5b81810381811115610f6557610f656154ce565b60006020828403121561550957600080fd5b81516114518161527b565b60006020828403121561552657600080fd5b5051919050565b600060033d11156155465760046000803e5060005160e01c5b90565b601f8201601f1916810167ffffffffffffffff8111828210171561557d57634e487b7160e01b600052604160045260246000fd5b6040525050565b600060443d10156155925790565b6040516003193d81016004833e81513d67ffffffffffffffff81602484011181841117156155c257505050505090565b82850191508151818111156155da5750505050505090565b843d87010160208285010111156155f45750505050505090565b61560360208286010187615549565b509095945050505050565b6000815180845260005b8181101561563457602081850181015186830182015201615618565b506000602082860101526020601f19601f83011685010191505092915050565b602081526000611451602083018461560e565b634e487b7160e01b600052602160045260246000fd5b634e487b7160e01b600052603260045260246000fd5b6000600182016156a5576156a56154ce565b5060010190565b80820180821115610f6557610f656154ce565b6001600160601b038281168282160390808211156136a6576136a66154ce565b6001600160601b038181168382160190808211156136a6576136a66154ce565b634e487b7160e01b600052603160045260246000fd5b60006020828403121561572757600080fd5b8151801515811461145157600080fd5b63ffffffff818116838216028082169190828114615757576157576154ce565b505092915050565b634e487b7160e01b600052601260045260246000fd5b600063ffffffff8084168061578c5761578c61575f565b92169190910492915050565b8082028115828204841417610f6557610f656154ce565b6000826157be576157be61575f565b500490565b6000600160ff1b82016157d8576157d86154ce565b5060000390565b81810360008312801583831316838312821617156136a6576136a66154ce565b80820260008212600160ff1b8414161561581b5761581b6154ce565b8181058314821517610f6557610f656154ce565b60008261583e5761583e61575f565b600160ff1b821460001984141615615858576158586154ce565b500590565b8082018281126000831280158216821582161715615757576157576154ce565b60008261588c5761588c61575f565b50079056fea2646970667358221220d34e236496de6efc1b86e9e88e6dcda7b7ccb2a1862a2cbb172885b25980ba9564736f6c63430008110033",
  "devdoc": {
    "kind": "dev",
    "methods": {
      "addAuthorizedAddress(address)": {
        "details": "Authorizes an address.",
        "params": {
          "target": "Address to authorize."
        }
      },
      "addPopAddress(address)": {
        "params": {
          "addr": "Address of proof_of_performance contract to add."
        }
      },
      "computeRewardBalanceOfDelegator(bytes32,address)": {
        "params": {
          "member": "The member of the pool.",
          "poolId": "Unique id of pool."
        },
        "returns": {
          "reward": "Balance in GRG."
        }
      },
      "computeRewardBalanceOfOperator(bytes32)": {
        "params": {
          "poolId": "Unique id of pool."
        },
        "returns": {
          "reward": "Balance in GRG."
        }
      },
      "constructor": {
        "details": "Initializing immutable implementation address is used to allow delegatecalls only.Direct calls to the  implementation contract are effectively locked.",
        "params": {
          "grgVault": "Address of the Grg vault.",
          "poolRegistry": "Address of the RigoBlock pool registry.",
          "rigoToken": "Address of the Grg token."
        }
      },
      "createStakingPool(address)": {
        "details": "Note that a staking pal must be payable.When governance updates registry address, pools must be migrated to new registry, or this contract must query from both.",
        "params": {
          "rigoblockPoolAddress": "Adds rigoblock pool to the created staking pool for convenience if non-null."
        },
        "returns": {
          "poolId": "The unique pool id generated for this pool."
        }
      },
      "creditPopReward(address,uint256)": {
        "details": "Only a known RigoBlock pop can call this method. See (MixinPopManager).",
        "params": {
          "poolAccount": "The address of the rigoblock pool account.",
          "popReward": "The pop reward."
        }
      },
      "decreaseStakingPoolOperatorShare(bytes32,uint32)": {
        "params": {
          "newOperatorShare": "The newly decreased percentage of any rewards owned by the operator.",
          "poolId": "Unique Id of pool."
        }
      },
      "endEpoch()": {
        "details": "Throws if not enough time has passed between epochs or if theprevious epoch was not fully finalized.",
        "returns": {
          "numPoolsToFinalize": "The number of unfinalized pools."
        }
      },
      "finalizePool(bytes32)": {
        "details": "crediting it rewards for members and withdrawing operator's rewards as GRG.This can be called by internal functions that need to finalize a pool immediately.Does nothing if the pool is already finalized or did not earn rewards in the previous epoch.",
        "params": {
          "poolId": "The pool ID to finalize."
        }
      },
      "getAuthorizedAddresses()": {
        "details": "Gets all authorized addresses.",
        "returns": {
          "_0": "Array of authorized addresses."
        }
      },
      "getCurrentEpochEarliestEndTimeInSeconds()": {
        "details": "The next epoch can begin once this time is reached.Epoch period = [startTimeInSeconds..endTimeInSeconds)",
        "returns": {
          "_0": "Time in seconds."
        }
      },
      "getGlobalStakeByStatus(uint8)": {
        "params": {
          "stakeStatus": "UNDELEGATED or DELEGATED"
        },
        "returns": {
          "balance": "Global stake for given status."
        }
      },
      "getGrgContract()": {
        "details": "Must be view to allow overrides to access state.",
        "returns": {
          "_0": "The GRG contract instance."
        }
      },
      "getGrgVault()": {
        "details": "Must be view to allow overrides to access state.",
        "returns": {
          "_0": "The GRG vault contract."
        }
      },
      "getOwnerStakeByStatus(address,uint8)": {
        "params": {
          "stakeStatus": "UNDELEGATED or DELEGATED",
          "staker": "Owner of stake."
        },
        "returns": {
          "balance": "Owner's stake balances for given status."
        }
      },
      "getParams()": {
        "details": "Retrieves all configurable parameter values.",
        "returns": {
          "_cobbDouglasAlphaDenominator": "Denominator for cobb douglas alpha factor.",
          "_cobbDouglasAlphaNumerator": "Numerator for cobb douglas alpha factor.",
          "_epochDurationInSeconds": "Minimum seconds between epochs.",
          "_minimumPoolStake": "Minimum amount of stake required in a pool to collect rewards.",
          "_rewardDelegatedStakeWeight": "How much delegated stake is weighted vs operator stake, in ppm."
        }
      },
      "getPoolRegistry()": {
        "details": "Must be view to allow overrides to access state.",
        "returns": {
          "_0": "The pool registry contract."
        }
      },
      "getStakeDelegatedToPoolByOwner(address,bytes32)": {
        "params": {
          "poolId": "Unique Id of pool.",
          "staker": "of stake."
        },
        "returns": {
          "balance": "Stake delegated to pool by staker."
        }
      },
      "getStakingPool(bytes32)": {
        "params": {
          "poolId": "Unique id of pool."
        }
      },
      "getStakingPoolStatsThisEpoch(bytes32)": {
        "params": {
          "poolId": "Pool Id to query."
        },
        "returns": {
          "_0": "PoolStats struct for pool id."
        }
      },
      "getTotalStake(address)": {
        "params": {
          "staker": "of stake."
        },
        "returns": {
          "_0": "Total GRG staked by `staker`."
        }
      },
      "getTotalStakeDelegatedToPool(bytes32)": {
        "params": {
          "poolId": "Unique Id of pool."
        },
        "returns": {
          "balance": "Total stake delegated to pool."
        }
      },
      "init()": {
        "details": "This function should not be called directly.The StakingProxy contract will call it in `attachStakingContract()`."
      },
      "moveStake((uint8,bytes32),(uint8,bytes32),uint256)": {
        "details": "Delegated stake can also be moved between pools.This change comes into effect next epoch.",
        "params": {
          "amount": "Amount of stake to move.",
          "from": "Status to move stake out of.",
          "to": "Status to move stake into."
        }
      },
      "removeAuthorizedAddress(address)": {
        "details": "Removes authorizion of an address.",
        "params": {
          "target": "Address to remove authorization from."
        }
      },
      "removeAuthorizedAddressAtIndex(address,uint256)": {
        "details": "Removes authorizion of an address.",
        "params": {
          "index": "Index of target in authorities array.",
          "target": "Address to remove authorization from."
        }
      },
      "removePopAddress(address)": {
        "params": {
          "addr": "Address of proof_of_performance contract to remove."
        }
      },
      "setParams(uint256,uint32,uint256,uint32,uint32)": {
        "params": {
          "_cobbDouglasAlphaDenominator": "Denominator for cobb douglas alpha factor.",
          "_cobbDouglasAlphaNumerator": "Numerator for cobb douglas alpha factor.",
          "_epochDurationInSeconds": "Minimum seconds between epochs.",
          "_minimumPoolStake": "Minimum amount of stake required in a pool to collect rewards.",
          "_rewardDelegatedStakeWeight": "How much delegated stake is weighted vs operator stake, in ppm."
        }
      },
      "setStakingPalAddress(bytes32,address)": {
        "params": {
          "newStakingPalAddress": "Address of the new staking pal.",
          "poolId": "Unique id of pool."
        }
      },
      "stake(uint256)": {
        "details": "Unstake to retrieve the GRG. Stake is in the 'Active' status.",
        "params": {
          "amount": "of GRG to stake."
        }
      },
      "transferOwnership(address)": {
        "details": "Change the owner of this contract.",
        "params": {
          "newOwner": "New owner address."
        }
      },
      "unstake(uint256)": {
        "details": "Stake must be in the 'undelegated' status in both the current and next epoch in order to be unstaked.",
        "params": {
          "amount": "of GRG to unstake."
        }
      },
      "withdrawDelegatorRewards(bytes32)": {
        "params": {
          "poolId": "Unique id of pool."
        }
      }
    },
    "version": 1
  },
  "userdoc": {
    "events": {
      "CatchStringEvent(string)": {
        "notice": "Emitted whenever an inflation mint call is reverted."
      },
      "EpochEnded(uint256,uint256,uint256,uint256,uint256)": {
        "notice": "Emitted by MixinFinalizer when an epoch has ended."
      },
      "EpochFinalized(uint256,uint256,uint256)": {
        "notice": "Emitted by MixinFinalizer when an epoch is fully finalized."
      },
      "GrgMintEvent(uint256)": {
        "notice": "Emitted when an inflation mint call is executed successfully."
      },
      "MoveStake(address,uint256,uint8,bytes32,uint8,bytes32)": {
        "notice": "Emitted by MixinStake when GRG is unstaked."
      },
      "OperatorShareDecreased(bytes32,uint32,uint32)": {
        "notice": "Emitted when a staking pool's operator share is decreased."
      },
      "ParamsSet(uint256,uint32,uint256,uint256,uint256)": {
        "notice": "Emitted whenever staking parameters are changed via the `setParams()` function."
      },
      "PopAdded(address)": {
        "notice": "Emitted by MixinExchangeManager when an exchange is added."
      },
      "PopRemoved(address)": {
        "notice": "Emitted by MixinExchangeManager when an exchange is removed."
      },
      "RbPoolStakingPoolSet(address,bytes32)": {
        "notice": "Emitted by MixinStakingPool when a rigoblock pool is added to its staking pool."
      },
      "ReturnDataEvent(bytes)": {
        "notice": "Emitted to catch any other inflation mint call fail."
      },
      "RewardsPaid(uint256,bytes32,uint256,uint256)": {
        "notice": "Emitted by MixinFinalizer when rewards are paid out to a pool."
      },
      "Stake(address,uint256)": {
        "notice": "Emitted by MixinStake when GRG is staked."
      },
      "StakingPoolCreated(bytes32,address,uint32)": {
        "notice": "Emitted by MixinStakingPool when a new pool is created."
      },
      "StakingPoolEarnedRewardsInEpoch(uint256,bytes32)": {
        "notice": "Emitted by MixinExchangeFees when a pool starts earning rewards in an epoch."
      },
      "Unstake(address,uint256)": {
        "notice": "Emitted by MixinStake when GRG is unstaked."
      }
    },
    "kind": "user",
    "methods": {
      "addPopAddress(address)": {
        "notice": "Adds a new proof_of_performance address."
      },
      "aggregatedStatsByEpoch(uint256)": {
        "notice": "Aggregated stats across all pools that generated fees with sufficient stake to earn rewards."
      },
      "cobbDouglasAlphaDenominator()": {
        "notice": "Denominator for cobb douglas alpha factor."
      },
      "cobbDouglasAlphaNumerator()": {
        "notice": "Numerator for cobb douglas alpha factor."
      },
      "computeRewardBalanceOfDelegator(bytes32,address)": {
        "notice": "Computes the reward balance in GRG of a specific member of a pool."
      },
      "computeRewardBalanceOfOperator(bytes32)": {
        "notice": "Computes the reward balance in GRG of the operator of a pool."
      },
      "constructor": {
        "notice": "Setting owner to null address prevents admin direct calls to implementation."
      },
      "createStakingPool(address)": {
        "notice": "Create a new staking pool. The sender will be the staking pal of this pool."
      },
      "creditPopReward(address,uint256)": {
        "notice": "Credits the value of a pool's pop reward."
      },
      "currentEpoch()": {
        "notice": "The current epoch."
      },
      "currentEpochStartTimeInSeconds()": {
        "notice": "The current epoch start time."
      },
      "decreaseStakingPoolOperatorShare(bytes32,uint32)": {
        "notice": "Decreases the operator share for the given pool (i.e. increases pool rewards for members)."
      },
      "endEpoch()": {
        "notice": "Begins a new epoch, preparing the prior one for finalization."
      },
      "epochDurationInSeconds()": {
        "notice": "Minimum seconds between epochs."
      },
      "finalizePool(bytes32)": {
        "notice": "Instantly finalizes a single pool that earned rewards in the previous epoch,"
      },
      "getCurrentEpochEarliestEndTimeInSeconds()": {
        "notice": "Returns the earliest end time in seconds of this epoch."
      },
      "getGlobalStakeByStatus(uint8)": {
        "notice": "Gets global stake for a given status."
      },
      "getGrgContract()": {
        "notice": "An overridable way to access the deployed GRG contract."
      },
      "getGrgVault()": {
        "notice": "An overridable way to access the deployed grgVault."
      },
      "getOwnerStakeByStatus(address,uint8)": {
        "notice": "Gets an owner's stake balances by status."
      },
      "getPoolRegistry()": {
        "notice": "An overridable way to access the deployed rigoblock pool registry."
      },
      "getStakeDelegatedToPoolByOwner(address,bytes32)": {
        "notice": "Returns stake delegated to pool by staker."
      },
      "getStakingPool(bytes32)": {
        "notice": "Returns a staking pool"
      },
      "getStakingPoolStatsThisEpoch(bytes32)": {
        "notice": "Get stats on a staking pool in this epoch."
      },
      "getTotalStake(address)": {
        "notice": "Returns the total stake for a given staker."
      },
      "getTotalStakeDelegatedToPool(bytes32)": {
        "notice": "Returns the total stake delegated to a specific staking pool, across all members."
      },
      "grgReservedForPoolRewards()": {
        "notice": "The GRG balance of this contract that is reserved for pool reward payouts."
      },
      "init()": {
        "notice": "Initialize storage owned by this contract."
      },
      "minimumPoolStake()": {
        "notice": "Minimum amount of stake required in a pool to collect rewards."
      },
      "moveStake((uint8,bytes32),(uint8,bytes32),uint256)": {
        "notice": "Moves stake between statuses: 'undelegated' or 'delegated'."
      },
      "poolIdByRbPoolAccount(address)": {
        "notice": "Mapping from RigoBlock pool subaccount to pool Id of rigoblock pool"
      },
      "poolStatsByEpoch(bytes32,uint256)": {
        "notice": "Stats for each pool that generated fees with sufficient stake to earn rewards."
      },
      "removePopAddress(address)": {
        "notice": "Removes an existing proof_of_performance address."
      },
      "rewardsByPoolId(bytes32)": {
        "notice": "mapping from pool ID to reward balance of members"
      },
      "setParams(uint256,uint32,uint256,uint32,uint32)": {
        "notice": "Set all configurable parameters at once."
      },
      "setStakingPalAddress(bytes32,address)": {
        "notice": "Allows the operator to update the staking pal address."
      },
      "stake(uint256)": {
        "notice": "Stake GRG tokens. Tokens are deposited into the GRG Vault."
      },
      "stakingContract()": {
        "notice": "Address of staking contract."
      },
      "unstake(uint256)": {
        "notice": "Unstake. Tokens are withdrawn from the GRG Vault and returned to the staker."
      },
      "validPops(address)": {
        "notice": "Registered RigoBlock Proof_of_Performance contracts, capable of paying protocol fees."
      },
      "withdrawDelegatorRewards(bytes32)": {
        "notice": "Withdraws the caller's GRG rewards that have accumulated until the last epoch."
      }
    },
    "version": 1
  },
  "storageLayout": {
    "storage": [
      {
        "astId": 16123,
        "contract": "contracts/staking/Staking.sol:Staking",
        "label": "owner",
        "offset": 0,
        "slot": "0",
        "type": "t_address"
      },
      {
        "astId": 15017,
        "contract": "contracts/staking/Staking.sol:Staking",
        "label": "authorized",
        "offset": 0,
        "slot": "1",
        "type": "t_mapping(t_address,t_bool)"
      },
      {
        "astId": 15021,
        "contract": "contracts/staking/Staking.sol:Staking",
        "label": "authorities",
        "offset": 0,
        "slot": "2",
        "type": "t_array(t_address)dyn_storage"
      },
      {
        "astId": 8494,
        "contract": "contracts/staking/Staking.sol:Staking",
        "label": "stakingContract",
        "offset": 0,
        "slot": "3",
        "type": "t_address"
      },
      {
        "astId": 8499,
        "contract": "contracts/staking/Staking.sol:Staking",
        "label": "_globalStakeByStatus",
        "offset": 0,
        "slot": "4",
        "type": "t_mapping(t_uint8,t_struct(StoredBalance)9242_storage)"
      },
      {
        "astId": 8506,
        "contract": "contracts/staking/Staking.sol:Staking",
        "label": "_ownerStakeByStatus",
        "offset": 0,
        "slot": "5",
        "type": "t_mapping(t_uint8,t_mapping(t_address,t_struct(StoredBalance)9242_storage))"
      },
      {
        "astId": 8513,
        "contract": "contracts/staking/Staking.sol:Staking",
        "label": "_delegatedStakeToPoolByOwner",
        "offset": 0,
        "slot": "6",
        "type": "t_mapping(t_address,t_mapping(t_bytes32,t_struct(StoredBalance)9242_storage))"
      },
      {
        "astId": 8518,
        "contract": "contracts/staking/Staking.sol:Staking",
        "label": "_delegatedStakeByPoolId",
        "offset": 0,
        "slot": "7",
        "type": "t_mapping(t_bytes32,t_struct(StoredBalance)9242_storage)"
      },
      {
        "astId": 8524,
        "contract": "contracts/staking/Staking.sol:Staking",
        "label": "poolIdByRbPoolAccount",
        "offset": 0,
        "slot": "8",
        "type": "t_mapping(t_address,t_bytes32)"
      },
      {
        "astId": 8529,
        "contract": "contracts/staking/Staking.sol:Staking",
        "label": "_poolById",
        "offset": 0,
        "slot": "9",
        "type": "t_mapping(t_bytes32,t_struct(Pool)9265_storage)"
      },
      {
        "astId": 8535,
        "contract": "contracts/staking/Staking.sol:Staking",
        "label": "rewardsByPoolId",
        "offset": 0,
        "slot": "10",
        "type": "t_mapping(t_bytes32,t_uint256)"
      },
      {
        "astId": 8539,
        "contract": "contracts/staking/Staking.sol:Staking",
        "label": "currentEpoch",
        "offset": 0,
        "slot": "11",
        "type": "t_uint256"
      },
      {
        "astId": 8543,
        "contract": "contracts/staking/Staking.sol:Staking",
        "label": "currentEpochStartTimeInSeconds",
        "offset": 0,
        "slot": "12",
        "type": "t_uint256"
      },
      {
        "astId": 8550,
        "contract": "contracts/staking/Staking.sol:Staking",
        "label": "_cumulativeRewardsByPool",
        "offset": 0,
        "slot": "13",
        "type": "t_mapping(t_bytes32,t_mapping(t_uint256,t_struct(Fraction)9256_storage))"
      },
      {
        "astId": 8554,
        "contract": "contracts/staking/Staking.sol:Staking",
        "label": "_cumulativeRewardsByPoolLastStored",
        "offset": 0,
        "slot": "14",
        "type": "t_mapping(t_bytes32,t_uint256)"
      },
      {
        "astId": 8560,
        "contract": "contracts/staking/Staking.sol:Staking",
        "label": "validPops",
        "offset": 0,
        "slot": "15",
        "type": "t_mapping(t_address,t_bool)"
      },
      {
        "astId": 8564,
        "contract": "contracts/staking/Staking.sol:Staking",
        "label": "epochDurationInSeconds",
        "offset": 0,
        "slot": "16",
        "type": "t_uint256"
      },
      {
        "astId": 8568,
        "contract": "contracts/staking/Staking.sol:Staking",
        "label": "rewardDelegatedStakeWeight",
        "offset": 0,
        "slot": "17",
        "type": "t_uint32"
      },
      {
        "astId": 8572,
        "contract": "contracts/staking/Staking.sol:Staking",
        "label": "minimumPoolStake",
        "offset": 0,
        "slot": "18",
        "type": "t_uint256"
      },
      {
        "astId": 8576,
        "contract": "contracts/staking/Staking.sol:Staking",
        "label": "cobbDouglasAlphaNumerator",
        "offset": 0,
        "slot": "19",
        "type": "t_uint32"
      },
      {
        "astId": 8580,
        "contract": "contracts/staking/Staking.sol:Staking",
        "label": "cobbDouglasAlphaDenominator",
        "offset": 4,
        "slot": "19",
        "type": "t_uint32"
      },
      {
        "astId": 8589,
        "contract": "contracts/staking/Staking.sol:Staking",
        "label": "poolStatsByEpoch",
        "offset": 0,
        "slot": "20",
        "type": "t_mapping(t_bytes32,t_mapping(t_uint256,t_struct(PoolStats)9224_storage))"
      },
      {
        "astId": 8595,
        "contract": "contracts/staking/Staking.sol:Staking",
        "label": "aggregatedStatsByEpoch",
        "offset": 0,
        "slot": "21",
        "type": "t_mapping(t_uint256,t_struct(AggregatedStats)9235_storage)"
      },
      {
        "astId": 8598,
        "contract": "contracts/staking/Staking.sol:Staking",
        "label": "grgReservedForPoolRewards",
        "offset": 0,
        "slot": "22",
        "type": "t_uint256"
      }
    ],
    "types": {
      "t_address": {
        "encoding": "inplace",
        "label": "address",
        "numberOfBytes": "20"
      },
      "t_array(t_address)dyn_storage": {
        "base": "t_address",
        "encoding": "dynamic_array",
        "label": "address[]",
        "numberOfBytes": "32"
      },
      "t_bool": {
        "encoding": "inplace",
        "label": "bool",
        "numberOfBytes": "1"
      },
      "t_bytes32": {
        "encoding": "inplace",
        "label": "bytes32",
        "numberOfBytes": "32"
      },
      "t_mapping(t_address,t_bool)": {
        "encoding": "mapping",
        "key": "t_address",
        "label": "mapping(address => bool)",
        "numberOfBytes": "32",
        "value": "t_bool"
      },
      "t_mapping(t_address,t_bytes32)": {
        "encoding": "mapping",
        "key": "t_address",
        "label": "mapping(address => bytes32)",
        "numberOfBytes": "32",
        "value": "t_bytes32"
      },
      "t_mapping(t_address,t_mapping(t_bytes32,t_struct(StoredBalance)9242_storage))": {
        "encoding": "mapping",
        "key": "t_address",
        "label": "mapping(address => mapping(bytes32 => struct IStructs.StoredBalance))",
        "numberOfBytes": "32",
        "value": "t_mapping(t_bytes32,t_struct(StoredBalance)9242_storage)"
      },
      "t_mapping(t_address,t_struct(StoredBalance)9242_storage)": {
        "encoding": "mapping",
        "key": "t_address",
        "label": "mapping(address => struct IStructs.StoredBalance)",
        "numberOfBytes": "32",
        "value": "t_struct(StoredBalance)9242_storage"
      },
      "t_mapping(t_bytes32,t_mapping(t_uint256,t_struct(Fraction)9256_storage))": {
        "encoding": "mapping",
        "key": "t_bytes32",
        "label": "mapping(bytes32 => mapping(uint256 => struct IStructs.Fraction))",
        "numberOfBytes": "32",
        "value": "t_mapping(t_uint256,t_struct(Fraction)9256_storage)"
      },
      "t_mapping(t_bytes32,t_mapping(t_uint256,t_struct(PoolStats)9224_storage))": {
        "encoding": "mapping",
        "key": "t_bytes32",
        "label": "mapping(bytes32 => mapping(uint256 => struct IStructs.PoolStats))",
        "numberOfBytes": "32",
        "value": "t_mapping(t_uint256,t_struct(PoolStats)9224_storage)"
      },
      "t_mapping(t_bytes32,t_struct(Pool)9265_storage)": {
        "encoding": "mapping",
        "key": "t_bytes32",
        "label": "mapping(bytes32 => struct IStructs.Pool)",
        "numberOfBytes": "32",
        "value": "t_struct(Pool)9265_storage"
      },
      "t_mapping(t_bytes32,t_struct(StoredBalance)9242_storage)": {
        "encoding": "mapping",
        "key": "t_bytes32",
        "label": "mapping(bytes32 => struct IStructs.StoredBalance)",
        "numberOfBytes": "32",
        "value": "t_struct(StoredBalance)9242_storage"
      },
      "t_mapping(t_bytes32,t_uint256)": {
        "encoding": "mapping",
        "key": "t_bytes32",
        "label": "mapping(bytes32 => uint256)",
        "numberOfBytes": "32",
        "value": "t_uint256"
      },
      "t_mapping(t_uint256,t_struct(AggregatedStats)9235_storage)": {
        "encoding": "mapping",
        "key": "t_uint256",
        "label": "mapping(uint256 => struct IStructs.AggregatedStats)",
        "numberOfBytes": "32",
        "value": "t_struct(AggregatedStats)9235_storage"
      },
      "t_mapping(t_uint256,t_struct(Fraction)9256_storage)": {
        "encoding": "mapping",
        "key": "t_uint256",
        "label": "mapping(uint256 => struct IStructs.Fraction)",
        "numberOfBytes": "32",
        "value": "t_struct(Fraction)9256_storage"
      },
      "t_mapping(t_uint256,t_struct(PoolStats)9224_storage)": {
        "encoding": "mapping",
        "key": "t_uint256",
        "label": "mapping(uint256 => struct IStructs.PoolStats)",
        "numberOfBytes": "32",
        "value": "t_struct(PoolStats)9224_storage"
      },
      "t_mapping(t_uint8,t_mapping(t_address,t_struct(StoredBalance)9242_storage))": {
        "encoding": "mapping",
        "key": "t_uint8",
        "label": "mapping(uint8 => mapping(address => struct IStructs.StoredBalance))",
        "numberOfBytes": "32",
        "value": "t_mapping(t_address,t_struct(StoredBalance)9242_storage)"
      },
      "t_mapping(t_uint8,t_struct(StoredBalance)9242_storage)": {
        "encoding": "mapping",
        "key": "t_uint8",
        "label": "mapping(uint8 => struct IStructs.StoredBalance)",
        "numberOfBytes": "32",
        "value": "t_struct(StoredBalance)9242_storage"
      },
      "t_struct(AggregatedStats)9235_storage": {
        "encoding": "inplace",
        "label": "struct IStructs.AggregatedStats",
        "members": [
          {
            "astId": 9226,
            "contract": "contracts/staking/Staking.sol:Staking",
            "label": "rewardsAvailable",
            "offset": 0,
            "slot": "0",
            "type": "t_uint256"
          },
          {
            "astId": 9228,
            "contract": "contracts/staking/Staking.sol:Staking",
            "label": "numPoolsToFinalize",
            "offset": 0,
            "slot": "1",
            "type": "t_uint256"
          },
          {
            "astId": 9230,
            "contract": "contracts/staking/Staking.sol:Staking",
            "label": "totalFeesCollected",
            "offset": 0,
            "slot": "2",
            "type": "t_uint256"
          },
          {
            "astId": 9232,
            "contract": "contracts/staking/Staking.sol:Staking",
            "label": "totalWeightedStake",
            "offset": 0,
            "slot": "3",
            "type": "t_uint256"
          },
          {
            "astId": 9234,
            "contract": "contracts/staking/Staking.sol:Staking",
            "label": "totalRewardsFinalized",
            "offset": 0,
            "slot": "4",
            "type": "t_uint256"
          }
        ],
        "numberOfBytes": "160"
      },
      "t_struct(Fraction)9256_storage": {
        "encoding": "inplace",
        "label": "struct IStructs.Fraction",
        "members": [
          {
            "astId": 9253,
            "contract": "contracts/staking/Staking.sol:Staking",
            "label": "numerator",
            "offset": 0,
            "slot": "0",
            "type": "t_uint256"
          },
          {
            "astId": 9255,
            "contract": "contracts/staking/Staking.sol:Staking",
            "label": "denominator",
            "offset": 0,
            "slot": "1",
            "type": "t_uint256"
          }
        ],
        "numberOfBytes": "64"
      },
      "t_struct(Pool)9265_storage": {
        "encoding": "inplace",
        "label": "struct IStructs.Pool",
        "members": [
          {
            "astId": 9258,
            "contract": "contracts/staking/Staking.sol:Staking",
            "label": "operator",
            "offset": 0,
            "slot": "0",
            "type": "t_address"
          },
          {
            "astId": 9260,
            "contract": "contracts/staking/Staking.sol:Staking",
            "label": "stakingPal",
            "offset": 0,
            "slot": "1",
            "type": "t_address"
          },
          {
            "astId": 9262,
            "contract": "contracts/staking/Staking.sol:Staking",
            "label": "operatorShare",
            "offset": 20,
            "slot": "1",
            "type": "t_uint32"
          },
          {
            "astId": 9264,
            "contract": "contracts/staking/Staking.sol:Staking",
            "label": "stakingPalShare",
            "offset": 24,
            "slot": "1",
            "type": "t_uint32"
          }
        ],
        "numberOfBytes": "64"
      },
      "t_struct(PoolStats)9224_storage": {
        "encoding": "inplace",
        "label": "struct IStructs.PoolStats",
        "members": [
          {
            "astId": 9219,
            "contract": "contracts/staking/Staking.sol:Staking",
            "label": "feesCollected",
            "offset": 0,
            "slot": "0",
            "type": "t_uint256"
          },
          {
            "astId": 9221,
            "contract": "contracts/staking/Staking.sol:Staking",
            "label": "weightedStake",
            "offset": 0,
            "slot": "1",
            "type": "t_uint256"
          },
          {
            "astId": 9223,
            "contract": "contracts/staking/Staking.sol:Staking",
            "label": "membersStake",
            "offset": 0,
            "slot": "2",
            "type": "t_uint256"
          }
        ],
        "numberOfBytes": "96"
      },
      "t_struct(StoredBalance)9242_storage": {
        "encoding": "inplace",
        "label": "struct IStructs.StoredBalance",
        "members": [
          {
            "astId": 9237,
            "contract": "contracts/staking/Staking.sol:Staking",
            "label": "currentEpoch",
            "offset": 0,
            "slot": "0",
            "type": "t_uint64"
          },
          {
            "astId": 9239,
            "contract": "contracts/staking/Staking.sol:Staking",
            "label": "currentEpochBalance",
            "offset": 8,
            "slot": "0",
            "type": "t_uint96"
          },
          {
            "astId": 9241,
            "contract": "contracts/staking/Staking.sol:Staking",
            "label": "nextEpochBalance",
            "offset": 20,
            "slot": "0",
            "type": "t_uint96"
          }
        ],
        "numberOfBytes": "32"
      },
      "t_uint256": {
        "encoding": "inplace",
        "label": "uint256",
        "numberOfBytes": "32"
      },
      "t_uint32": {
        "encoding": "inplace",
        "label": "uint32",
        "numberOfBytes": "4"
      },
      "t_uint64": {
        "encoding": "inplace",
        "label": "uint64",
        "numberOfBytes": "8"
      },
      "t_uint8": {
        "encoding": "inplace",
        "label": "uint8",
        "numberOfBytes": "1"
      },
      "t_uint96": {
        "encoding": "inplace",
        "label": "uint96",
        "numberOfBytes": "12"
      }
    }
  }
}